{
  "contractName": "AccessRestriction",
  "abi": [
    {
      "constant": true,
      "inputs": [],
      "name": "owner",
      "outputs": [
        {
          "name": "",
          "type": "address"
        }
      ],
      "payable": false,
      "stateMutability": "view",
      "type": "function",
      "signature": "0x8da5cb5b"
    },
    {
      "constant": true,
      "inputs": [],
      "name": "creationTime",
      "outputs": [
        {
          "name": "",
          "type": "uint256"
        }
      ],
      "payable": false,
      "stateMutability": "view",
      "type": "function",
      "signature": "0xd8270dce"
    },
    {
      "constant": false,
      "inputs": [
        {
          "name": "_newOwner",
          "type": "address"
        }
      ],
      "name": "changeOwner",
      "outputs": [],
      "payable": false,
      "stateMutability": "nonpayable",
      "type": "function",
      "signature": "0xa6f9dae1"
    },
    {
      "constant": false,
      "inputs": [],
      "name": "disown",
      "outputs": [],
      "payable": false,
      "stateMutability": "nonpayable",
      "type": "function",
      "signature": "0x1e9bf0da"
    },
    {
      "constant": false,
      "inputs": [
        {
          "name": "_newOwner",
          "type": "address"
        }
      ],
      "name": "forceOwnerChange",
      "outputs": [],
      "payable": true,
      "stateMutability": "payable",
      "type": "function",
      "signature": "0x0cb0c7f0"
    }
  ],
  "bytecode": "0x6080604052336000806101000a81548173ffffffffffffffffffffffffffffffffffffffff021916908373ffffffffffffffffffffffffffffffffffffffff1602179055504260015534801561005457600080fd5b506105ce806100646000396000f3fe60806040526004361061006d576000357c0100000000000000000000000000000000000000000000000000000000900463ffffffff1680630cb0c7f0146100725780631e9bf0da146100b65780638da5cb5b146100cd578063a6f9dae114610124578063d8270dce14610175575b600080fd5b6100b46004803603602081101561008857600080fd5b81019080803573ffffffffffffffffffffffffffffffffffffffff1690602001909291905050506101a0565b005b3480156100c257600080fd5b506100cb610301565b005b3480156100d957600080fd5b506100e261046e565b604051808273ffffffffffffffffffffffffffffffffffffffff1673ffffffffffffffffffffffffffffffffffffffff16815260200191505060405180910390f35b34801561013057600080fd5b506101736004803603602081101561014757600080fd5b81019080803573ffffffffffffffffffffffffffffffffffffffff169060200190929190505050610493565b005b34801561018157600080fd5b5061018a61059c565b6040518082815260200191505060405180910390f35b680ad78ebc5ac6200000803410151515610222576040517f08c379a000000000000000000000000000000000000000000000000000000000815260040180806020018281038252601a8152602001807f4e6f7420656e6f7567682045746865722070726f76696465642e00000000000081525060200191505060405180910390fd5b816000806101000a81548173ffffffffffffffffffffffffffffffffffffffff021916908373ffffffffffffffffffffffffffffffffffffffff160217905550600160008060009054906101000a900473ffffffffffffffffffffffffffffffffffffffff1673ffffffffffffffffffffffffffffffffffffffff161614156102aa576102ab565b5b803411156102fd573373ffffffffffffffffffffffffffffffffffffffff166108fc8234039081150290604051600060405180830381858888f193505050501580156102fb573d6000803e3d6000fd5b505b5050565b6000809054906101000a900473ffffffffffffffffffffffffffffffffffffffff168073ffffffffffffffffffffffffffffffffffffffff163373ffffffffffffffffffffffffffffffffffffffff161415156103c6576040517f08c379a00000000000000000000000000000000000000000000000000000000081526004018080602001828103825260168152602001807f53656e646572206e6f7420617574686f72697a65642e0000000000000000000081525060200191505060405180910390fd5b62375f0060015401804210151515610446576040517f08c379a000000000000000000000000000000000000000000000000000000000815260040180806020018281038252601a8152602001807f46756e6374696f6e2063616c6c656420746f6f206561726c792e00000000000081525060200191505060405180910390fd5b6000806101000a81549073ffffffffffffffffffffffffffffffffffffffff02191690555050565b6000809054906101000a900473ffffffffffffffffffffffffffffffffffffffff1681565b6000809054906101000a900473ffffffffffffffffffffffffffffffffffffffff168073ffffffffffffffffffffffffffffffffffffffff163373ffffffffffffffffffffffffffffffffffffffff16141515610558576040517f08c379a00000000000000000000000000000000000000000000000000000000081526004018080602001828103825260168152602001807f53656e646572206e6f7420617574686f72697a65642e0000000000000000000081525060200191505060405180910390fd5b816000806101000a81548173ffffffffffffffffffffffffffffffffffffffff021916908373ffffffffffffffffffffffffffffffffffffffff1602179055505050565b6001548156fea165627a7a7230582056fda42d113b2b6880d0c69765870d418ed108ec730184f96ab2819fe7271cee0029",
  "source": "pragma solidity ^0.5.0;\ncontract AccessRestriction {\n    // These will be assigned at the construction\n    // phase, where `msg.sender` is the account\n    // creating this contract.\n    address public owner = msg.sender;\n    uint public creationTime = now;\n\n    // Modifiers can be used to change\n    // the body of a function.\n    // If this modifier is used, it will\n    // prepend a check that only passes\n    // if the function is called from\n    // a certain address.\n    modifier onlyBy(address _account)\n    {\n        require(\n            msg.sender == _account,\n            \"Sender not authorized.\"\n        );\n        // Do not forget the \"_;\"! It will\n        // be replaced by the actual function\n        // body when the modifier is used.\n        _;\n    }\n\n    /// Make `_newOwner` the new owner of this\n    /// contract.\n    function changeOwner(address _newOwner)\n        public\n        onlyBy(owner)\n    {\n        owner = _newOwner;\n    }\n\n    modifier onlyAfter(uint _time) {\n        require(\n            now >= _time,\n            \"Function called too early.\"\n        );\n        _;\n    }\n\n    /// Erase ownership information.\n    /// May only be called 6 weeks after\n    /// the contract has been created.\n    function disown()\n        public\n        onlyBy(owner)\n        onlyAfter(creationTime + 6 weeks)\n    {\n        delete owner;\n    }\n\n    // This modifier requires a certain\n    // fee being associated with a function call.\n    // If the caller sent too much, he or she is\n    // refunded, but only after the function body.\n    // This was dangerous before Solidity version 0.4.0,\n    // where it was possible to skip the part after `_;`.\n    modifier costs(uint _amount) {\n        require(\n            msg.value >= _amount,\n            \"Not enough Ether provided.\"\n        );\n        _;\n        if (msg.value > _amount)\n            msg.sender.transfer(msg.value - _amount);\n    }\n\n    function forceOwnerChange(address _newOwner)\n        public\n        payable\n        costs(200 ether)\n    {\n        owner = _newOwner;\n        // just some example condition\n        if (uint(owner) & 0 == 1)\n            // This did not refund for Solidity\n            // before version 0.4.0.\n            return;\n        // refund overpaid fees\n    }\n}",
  "sourcePath": "/Users/naresh_saladi/review/final-project-naresh071872/contracts/AccessRestriction.sol",
  "compiler": {
    "name": "solc",
    "version": "0.5.0+commit.1d4f565a.Emscripten.clang"
  },
  "schemaVersion": "3.0.1",
  "updatedAt": "2019-02-05T03:30:16.509Z",
  "devdoc": {
    "methods": {}
  },
  "userdoc": {
    "methods": {
      "changeOwner(address)": {
        "notice": "Make `_newOwner` the new owner of this contract."
      },
      "disown()": {
        "notice": "Erase ownership information. May only be called 6 weeks after the contract has been created."
      }
    }
  }
}