{
  "contractName": "OnlineMarketPlace",
  "abi": [
    {
      "constant": false,
      "inputs": [
        {
          "name": "_newOwner",
          "type": "address"
        }
      ],
      "name": "forceOwnerChange",
      "outputs": [],
      "payable": true,
      "stateMutability": "payable",
      "type": "function"
    },
    {
      "constant": false,
      "inputs": [],
      "name": "disown",
      "outputs": [],
      "payable": false,
      "stateMutability": "nonpayable",
      "type": "function"
    },
    {
      "constant": true,
      "inputs": [
        {
          "name": "",
          "type": "address"
        }
      ],
      "name": "adminAddressMap",
      "outputs": [
        {
          "name": "",
          "type": "bool"
        }
      ],
      "payable": false,
      "stateMutability": "view",
      "type": "function"
    },
    {
      "constant": true,
      "inputs": [],
      "name": "stopped",
      "outputs": [
        {
          "name": "",
          "type": "bool"
        }
      ],
      "payable": false,
      "stateMutability": "view",
      "type": "function"
    },
    {
      "constant": true,
      "inputs": [
        {
          "name": "",
          "type": "address"
        }
      ],
      "name": "storeOwnerAddressMap",
      "outputs": [
        {
          "name": "",
          "type": "bool"
        }
      ],
      "payable": false,
      "stateMutability": "view",
      "type": "function"
    },
    {
      "constant": true,
      "inputs": [],
      "name": "owner",
      "outputs": [
        {
          "name": "",
          "type": "address"
        }
      ],
      "payable": false,
      "stateMutability": "view",
      "type": "function"
    },
    {
      "constant": false,
      "inputs": [
        {
          "name": "_newOwner",
          "type": "address"
        }
      ],
      "name": "changeOwner",
      "outputs": [],
      "payable": false,
      "stateMutability": "nonpayable",
      "type": "function"
    },
    {
      "constant": true,
      "inputs": [],
      "name": "creationTime",
      "outputs": [
        {
          "name": "",
          "type": "uint256"
        }
      ],
      "payable": false,
      "stateMutability": "view",
      "type": "function"
    },
    {
      "constant": true,
      "inputs": [
        {
          "name": "",
          "type": "uint256"
        }
      ],
      "name": "stores",
      "outputs": [
        {
          "name": "name",
          "type": "string"
        },
        {
          "name": "productsCount",
          "type": "uint256"
        },
        {
          "name": "storeSales",
          "type": "uint256"
        },
        {
          "name": "owner",
          "type": "address"
        }
      ],
      "payable": false,
      "stateMutability": "view",
      "type": "function"
    },
    {
      "inputs": [],
      "payable": false,
      "stateMutability": "nonpayable",
      "type": "constructor"
    },
    {
      "anonymous": false,
      "inputs": [
        {
          "indexed": false,
          "name": "_owner",
          "type": "address"
        }
      ],
      "name": "LogAdminAdded",
      "type": "event"
    },
    {
      "anonymous": false,
      "inputs": [
        {
          "indexed": false,
          "name": "_owner",
          "type": "address"
        }
      ],
      "name": "LogAdminDeleted",
      "type": "event"
    },
    {
      "anonymous": false,
      "inputs": [
        {
          "indexed": false,
          "name": "_owner",
          "type": "address"
        }
      ],
      "name": "LogStoreOwnerAdded",
      "type": "event"
    },
    {
      "anonymous": false,
      "inputs": [
        {
          "indexed": false,
          "name": "_owner",
          "type": "address"
        }
      ],
      "name": "LogStoreOwnerDeleted",
      "type": "event"
    },
    {
      "anonymous": false,
      "inputs": [
        {
          "indexed": false,
          "name": "_storeId",
          "type": "uint256"
        },
        {
          "indexed": false,
          "name": "_name",
          "type": "string"
        }
      ],
      "name": "LogAddStore",
      "type": "event"
    },
    {
      "anonymous": false,
      "inputs": [
        {
          "indexed": false,
          "name": "_storeId",
          "type": "uint256"
        }
      ],
      "name": "LogDeleteStore",
      "type": "event"
    },
    {
      "anonymous": false,
      "inputs": [
        {
          "indexed": false,
          "name": "_storeId",
          "type": "uint256"
        },
        {
          "indexed": false,
          "name": "_name",
          "type": "string"
        },
        {
          "indexed": false,
          "name": "_unitPrice",
          "type": "uint256"
        },
        {
          "indexed": false,
          "name": "_totalQuantity",
          "type": "uint256"
        }
      ],
      "name": "LogProductAdded",
      "type": "event"
    },
    {
      "anonymous": false,
      "inputs": [
        {
          "indexed": false,
          "name": "_storeId",
          "type": "uint256"
        },
        {
          "indexed": false,
          "name": "_productId",
          "type": "uint256"
        }
      ],
      "name": "LogProductRemoved",
      "type": "event"
    },
    {
      "anonymous": false,
      "inputs": [
        {
          "indexed": false,
          "name": "_storeId",
          "type": "uint256"
        },
        {
          "indexed": false,
          "name": "_productid",
          "type": "uint256"
        },
        {
          "indexed": false,
          "name": "_unitPrice",
          "type": "uint256"
        }
      ],
      "name": "LogUpdatePrice",
      "type": "event"
    },
    {
      "anonymous": false,
      "inputs": [
        {
          "indexed": false,
          "name": "_storeId",
          "type": "uint256"
        },
        {
          "indexed": false,
          "name": "_funds",
          "type": "uint256"
        }
      ],
      "name": "LogWithdrawFunds",
      "type": "event"
    },
    {
      "anonymous": false,
      "inputs": [
        {
          "indexed": false,
          "name": "_storeId",
          "type": "uint256"
        },
        {
          "indexed": false,
          "name": "_productId",
          "type": "uint256"
        },
        {
          "indexed": false,
          "name": "_quantity",
          "type": "uint256"
        }
      ],
      "name": "LogProductBought",
      "type": "event"
    },
    {
      "anonymous": false,
      "inputs": [
        {
          "indexed": false,
          "name": "_storeId",
          "type": "uint256"
        },
        {
          "indexed": false,
          "name": "_productId",
          "type": "uint256"
        },
        {
          "indexed": false,
          "name": "_quantity",
          "type": "uint256"
        }
      ],
      "name": "LogInventoryAdjustment",
      "type": "event"
    },
    {
      "constant": false,
      "inputs": [
        {
          "name": "_owner",
          "type": "address"
        }
      ],
      "name": "addAdmin",
      "outputs": [],
      "payable": false,
      "stateMutability": "nonpayable",
      "type": "function"
    },
    {
      "constant": false,
      "inputs": [
        {
          "name": "_owner",
          "type": "address"
        }
      ],
      "name": "deleteAdmin",
      "outputs": [],
      "payable": false,
      "stateMutability": "nonpayable",
      "type": "function"
    },
    {
      "constant": false,
      "inputs": [
        {
          "name": "_owner",
          "type": "address"
        }
      ],
      "name": "addStoreOwner",
      "outputs": [],
      "payable": false,
      "stateMutability": "nonpayable",
      "type": "function"
    },
    {
      "constant": false,
      "inputs": [
        {
          "name": "_owner",
          "type": "address"
        }
      ],
      "name": "deleteStoreOwner",
      "outputs": [],
      "payable": false,
      "stateMutability": "nonpayable",
      "type": "function"
    },
    {
      "constant": false,
      "inputs": [
        {
          "name": "_name",
          "type": "string"
        }
      ],
      "name": "addStore",
      "outputs": [
        {
          "name": "",
          "type": "uint256"
        }
      ],
      "payable": false,
      "stateMutability": "nonpayable",
      "type": "function"
    },
    {
      "constant": false,
      "inputs": [
        {
          "name": "_storeId",
          "type": "uint256"
        }
      ],
      "name": "deleteStore",
      "outputs": [
        {
          "name": "",
          "type": "uint256"
        }
      ],
      "payable": false,
      "stateMutability": "nonpayable",
      "type": "function"
    },
    {
      "constant": false,
      "inputs": [
        {
          "name": "_storeId",
          "type": "uint256"
        },
        {
          "name": "_name",
          "type": "string"
        },
        {
          "name": "_unitPrice",
          "type": "uint256"
        },
        {
          "name": "_totalQuantity",
          "type": "uint256"
        }
      ],
      "name": "addProduct",
      "outputs": [
        {
          "name": "",
          "type": "uint256"
        }
      ],
      "payable": false,
      "stateMutability": "nonpayable",
      "type": "function"
    },
    {
      "constant": false,
      "inputs": [
        {
          "name": "_storeId",
          "type": "uint256"
        },
        {
          "name": "_productId",
          "type": "uint256"
        }
      ],
      "name": "removeProduct",
      "outputs": [],
      "payable": false,
      "stateMutability": "nonpayable",
      "type": "function"
    },
    {
      "constant": false,
      "inputs": [
        {
          "name": "_storeId",
          "type": "uint256"
        },
        {
          "name": "_productId",
          "type": "uint256"
        },
        {
          "name": "_newUnitPrice",
          "type": "uint256"
        }
      ],
      "name": "updatePrice",
      "outputs": [],
      "payable": false,
      "stateMutability": "nonpayable",
      "type": "function"
    },
    {
      "constant": false,
      "inputs": [
        {
          "name": "_storeId",
          "type": "uint256"
        },
        {
          "name": "_targetAddress",
          "type": "address"
        },
        {
          "name": "_funds",
          "type": "uint256"
        }
      ],
      "name": "withdrawFunds",
      "outputs": [],
      "payable": true,
      "stateMutability": "payable",
      "type": "function"
    },
    {
      "constant": false,
      "inputs": [
        {
          "name": "_storeId",
          "type": "uint256"
        },
        {
          "name": "_productId",
          "type": "uint256"
        },
        {
          "name": "_quantity",
          "type": "uint256"
        }
      ],
      "name": "purchaseProduct",
      "outputs": [],
      "payable": true,
      "stateMutability": "payable",
      "type": "function"
    },
    {
      "constant": true,
      "inputs": [],
      "name": "getStoreCount",
      "outputs": [
        {
          "name": "",
          "type": "uint256"
        }
      ],
      "payable": false,
      "stateMutability": "view",
      "type": "function"
    },
    {
      "constant": true,
      "inputs": [
        {
          "name": "storeId",
          "type": "uint256"
        }
      ],
      "name": "getProductCount",
      "outputs": [
        {
          "name": "",
          "type": "uint256"
        }
      ],
      "payable": false,
      "stateMutability": "view",
      "type": "function"
    }
  ],
  "bytecode": "0x6080604052336000806101000a81548173ffffffffffffffffffffffffffffffffffffffff021916908373ffffffffffffffffffffffffffffffffffffffff160217905550426001556000600260006101000a81548160ff02191690831515021790555034801561006f57600080fd5b506123f68061007f6000396000f3fe608060405260043610610128576000357c0100000000000000000000000000000000000000000000000000000000900463ffffffff16806302703acf1461012d5780630cb0c7f01461016f5780630f436129146101b35780631e9bf0da1461020257806327e1f7df146102195780634ffa0ffc1461026a5780635287d535146102d3578063662feffc1461031857806370480275146103f457806375f12b21146104455780637cc693251461047457806386194785146104c35780638da5cb5b1461052c57806398e8bd97146105835780639adeb5f1146105ae578063a6f9dae1146105ff578063ad4891ee14610650578063c27ed2a21461069f578063d8270dce14610799578063dcba65af146107c4578063e8a59cd814610815578063f8f34cde1461090a575b600080fd5b61016d6004803603606081101561014357600080fd5b81019080803590602001909291908035906020019092919080359060200190929190505050610962565b005b6101b16004803603602081101561018557600080fd5b81019080803573ffffffffffffffffffffffffffffffffffffffff169060200190929190505050610b96565b005b3480156101bf57600080fd5b50610200600480360360608110156101d657600080fd5b81019080803590602001909291908035906020019092919080359060200190929190505050610cf7565b005b34801561020e57600080fd5b50610217610e33565b005b34801561022557600080fd5b506102686004803603602081101561023c57600080fd5b81019080803573ffffffffffffffffffffffffffffffffffffffff169060200190929190505050610fa0565b005b34801561027657600080fd5b506102b96004803603602081101561028d57600080fd5b81019080803573ffffffffffffffffffffffffffffffffffffffff16906020019092919050505061113f565b604051808215151515815260200191505060405180910390f35b3480156102df57600080fd5b50610316600480360360408110156102f657600080fd5b81019080803590602001909291908035906020019092919050505061115f565b005b34801561032457600080fd5b506103de6004803603602081101561033b57600080fd5b810190808035906020019064010000000081111561035857600080fd5b82018360208201111561036a57600080fd5b8035906020019184600183028401116401000000008311171561038c57600080fd5b91908080601f016020809104026020016040519081016040528093929190818152602001838380828437600081840152601f19601f8201169050808301925050505050505091929192905050506112e4565b6040518082815260200191505060405180910390f35b34801561040057600080fd5b506104436004803603602081101561041757600080fd5b81019080803573ffffffffffffffffffffffffffffffffffffffff169060200190929190505050611533565b005b34801561045157600080fd5b5061045a6116db565b604051808215151515815260200191505060405180910390f35b34801561048057600080fd5b506104ad6004803603602081101561049757600080fd5b81019080803590602001909291905050506116ee565b6040518082815260200191505060405180910390f35b3480156104cf57600080fd5b50610512600480360360208110156104e657600080fd5b81019080803573ffffffffffffffffffffffffffffffffffffffff169060200190929190505050611860565b604051808215151515815260200191505060405180910390f35b34801561053857600080fd5b50610541611880565b604051808273ffffffffffffffffffffffffffffffffffffffff1673ffffffffffffffffffffffffffffffffffffffff16815260200191505060405180910390f35b34801561058f57600080fd5b506105986118a5565b6040518082815260200191505060405180910390f35b3480156105ba57600080fd5b506105fd600480360360208110156105d157600080fd5b81019080803573ffffffffffffffffffffffffffffffffffffffff1690602001909291905050506118af565b005b34801561060b57600080fd5b5061064e6004803603602081101561062257600080fd5b81019080803573ffffffffffffffffffffffffffffffffffffffff169060200190929190505050611a54565b005b34801561065c57600080fd5b506106896004803603602081101561067357600080fd5b8101908080359060200190929190505050611b5d565b6040518082815260200191505060405180910390f35b3480156106ab57600080fd5b50610783600480360360808110156106c257600080fd5b8101908080359060200190929190803590602001906401000000008111156106e957600080fd5b8201836020820111156106fb57600080fd5b8035906020019184600183028401116401000000008311171561071d57600080fd5b91908080601f016020809104026020016040519081016040528093929190818152602001838380828437600081840152601f19601f8201169050808301925050505050505091929192908035906020019092919080359060200190929190505050611b7d565b6040518082815260200191505060405180910390f35b3480156107a557600080fd5b506107ae611e1d565b6040518082815260200191505060405180910390f35b3480156107d057600080fd5b50610813600480360360208110156107e757600080fd5b81019080803573ffffffffffffffffffffffffffffffffffffffff169060200190929190505050611e23565b005b34801561082157600080fd5b5061084e6004803603602081101561083857600080fd5b8101908080359060200190929190505050611fbf565b60405180806020018581526020018481526020018373ffffffffffffffffffffffffffffffffffffffff1673ffffffffffffffffffffffffffffffffffffffff168152602001828103825286818151815260200191508051906020019080838360005b838110156108cc5780820151818401526020810190506108b1565b50505050905090810190601f1680156108f95780820380516001836020036101000a031916815260200191505b509550505050505060405180910390f35b6109606004803603606081101561092057600080fd5b8101908080359060200190929190803573ffffffffffffffffffffffffffffffffffffffff169060200190929190803590602001909291905050506120a7565b005b828282806005600085815260200190815260200160002060040160008481526020019081526020016000206003015410151515610a07576040517f08c379a000000000000000000000000000000000000000000000000000000000815260040180806020018281038252600c8152602001807f4f75742d6f662d53746f636b000000000000000000000000000000000000000081525060200191505060405180910390fd5b85858560008160056000868152602001908152602001600020600401600085815260200190815260200160002060020154029050803410151515610a8e576040517f08c379a0000000000000000000000000000000000000000000000000000000008152600401808060200182810382526000815260200160200191505060405180910390fd5b600260009054906101000a900460ff16151515610aaa57600080fd5b600088600560008d815260200190815260200160002060040160008c815260200190815260200160002060020154029050610ae68b8b8b612229565b80600560008d815260200190815260200160002060040160008c81526020019081526020016000206004016000828254019250508190555080600560008d8152602001908152602001600020600201600082825401925050819055507f0f4498545e96cd1f17366cecee5badbcf6fafe77c7d02a32bcb5d960643862a68b8b8b60405180848152602001838152602001828152602001935050505060405180910390a15050505050505050505050565b680ad78ebc5ac6200000803410151515610c18576040517f08c379a000000000000000000000000000000000000000000000000000000000815260040180806020018281038252601a8152602001807f4e6f7420656e6f7567682045746865722070726f76696465642e00000000000081525060200191505060405180910390fd5b816000806101000a81548173ffffffffffffffffffffffffffffffffffffffff021916908373ffffffffffffffffffffffffffffffffffffffff160217905550600160008060009054906101000a900473ffffffffffffffffffffffffffffffffffffffff1673ffffffffffffffffffffffffffffffffffffffff16161415610ca057610ca1565b5b80341115610cf3573373ffffffffffffffffffffffffffffffffffffffff166108fc8234039081150290604051600060405180830381858888f19350505050158015610cf1573d6000803e3d6000fd5b505b5050565b600460003373ffffffffffffffffffffffffffffffffffffffff1673ffffffffffffffffffffffffffffffffffffffff16815260200190815260200160002060009054906101000a900460ff161515610db8576040517f08c379a000000000000000000000000000000000000000000000000000000000815260040180806020018281038252601f8152602001807f50726f76696465642075736572206973206e6f742073746f72654f776e65720081525060200191505060405180910390fd5b80600560008581526020019081526020016000206004016000848152602001908152602001600020600201819055507fc889d8b9f4e6f9703b9f96e273c76a18f3cf96d96869a6edc3d768518762301c83838360405180848152602001838152602001828152602001935050505060405180910390a1505050565b6000809054906101000a900473ffffffffffffffffffffffffffffffffffffffff168073ffffffffffffffffffffffffffffffffffffffff163373ffffffffffffffffffffffffffffffffffffffff16141515610ef8576040517f08c379a00000000000000000000000000000000000000000000000000000000081526004018080602001828103825260168152602001807f53656e646572206e6f7420617574686f72697a65642e0000000000000000000081525060200191505060405180910390fd5b62375f0060015401804210151515610f78576040517f08c379a000000000000000000000000000000000000000000000000000000000815260040180806020018281038252601a8152602001807f46756e6374696f6e2063616c6c656420746f6f206561726c792e00000000000081525060200191505060405180910390fd5b6000806101000a81549073ffffffffffffffffffffffffffffffffffffffff02191690555050565b3373ffffffffffffffffffffffffffffffffffffffff166000809054906101000a900473ffffffffffffffffffffffffffffffffffffffff1673ffffffffffffffffffffffffffffffffffffffff1614151561108a576040517f08c379a00000000000000000000000000000000000000000000000000000000081526004018080602001828103825260238152602001807f50726f76696465642075736572206973206e6f7420636f6e7472616374206f7781526020017f6e6572000000000000000000000000000000000000000000000000000000000081525060400191505060405180910390fd5b600360008273ffffffffffffffffffffffffffffffffffffffff1673ffffffffffffffffffffffffffffffffffffffff16815260200190815260200160002060006101000a81549060ff02191690557fc248fc73d6760c715e23a360ece4bfa5e4a9c6868fd39343647b174a6ffaf05b81604051808273ffffffffffffffffffffffffffffffffffffffff1673ffffffffffffffffffffffffffffffffffffffff16815260200191505060405180910390a150565b60036020528060005260406000206000915054906101000a900460ff1681565b600460003373ffffffffffffffffffffffffffffffffffffffff1673ffffffffffffffffffffffffffffffffffffffff16815260200190815260200160002060009054906101000a900460ff161515611220576040517f08c379a000000000000000000000000000000000000000000000000000000000815260040180806020018281038252601f8152602001807f50726f76696465642075736572206973206e6f742073746f72654f776e65720081525060200191505060405180910390fd5b60056000838152602001908152602001600020600101600081548092919060019003919050555060056000838152602001908152602001600020600401600082815260200190815260200160002060008082016000905560018201600061128791906122ad565b60028201600090556003820160009055600482016000905550507fdb7332f001cc76680387a27a8d7a9a83a011dd63dd20b347181a806bd91fdc268282604051808381526020018281526020019250505060405180910390a15050565b6000600460003373ffffffffffffffffffffffffffffffffffffffff1673ffffffffffffffffffffffffffffffffffffffff16815260200190815260200160002060009054906101000a900460ff1615156113a7576040517f08c379a000000000000000000000000000000000000000000000000000000000815260040180806020018281038252601f8152602001807f50726f76696465642075736572206973206e6f742073746f72654f776e65720081525060200191505060405180910390fd5b60066000815480929190600101919050555060806040519081016040528083815260200160008152602001600081526020013373ffffffffffffffffffffffffffffffffffffffff1681525060056000600654815260200190815260200160002060008201518160000190805190602001906114249291906122f5565b50602082015181600101556040820151816002015560608201518160030160006101000a81548173ffffffffffffffffffffffffffffffffffffffff021916908373ffffffffffffffffffffffffffffffffffffffff1602179055509050507fc07e4372fa365db386646af93f798817e2118ab90167a32543aa1b239c1af919600654836040518083815260200180602001828103825283818151815260200191508051906020019080838360005b838110156114ee5780820151818401526020810190506114d3565b50505050905090810190601f16801561151b5780820380516001836020036101000a031916815260200191505b50935050505060405180910390a16006549050919050565b3373ffffffffffffffffffffffffffffffffffffffff166000809054906101000a900473ffffffffffffffffffffffffffffffffffffffff1673ffffffffffffffffffffffffffffffffffffffff1614151561161d576040517f08c379a00000000000000000000000000000000000000000000000000000000081526004018080602001828103825260238152602001807f50726f76696465642075736572206973206e6f7420636f6e7472616374206f7781526020017f6e6572000000000000000000000000000000000000000000000000000000000081525060400191505060405180910390fd5b6001600360008373ffffffffffffffffffffffffffffffffffffffff1673ffffffffffffffffffffffffffffffffffffffff16815260200190815260200160002060006101000a81548160ff0219169083151502179055507f873b6546df550db4e197c19f621af58777f109107ed897212d3ab52d5a9f2ede81604051808273ffffffffffffffffffffffffffffffffffffffff1673ffffffffffffffffffffffffffffffffffffffff16815260200191505060405180910390a150565b600260009054906101000a900460ff1681565b6000600460003373ffffffffffffffffffffffffffffffffffffffff1673ffffffffffffffffffffffffffffffffffffffff16815260200190815260200160002060009054906101000a900460ff1615156117b1576040517f08c379a000000000000000000000000000000000000000000000000000000000815260040180806020018281038252601f8152602001807f50726f76696465642075736572206973206e6f742073746f72654f776e65720081525060200191505060405180910390fd5b6006600081548092919060019003919050555060056000838152602001908152602001600020600080820160006117e891906122ad565b600182016000905560028201600090556003820160006101000a81549073ffffffffffffffffffffffffffffffffffffffff021916905550507ff10d31d003928030ef97d1080319cb2c0a8f3a8a5802837f4f4c221d37978cd2826040518082815260200191505060405180910390a1819050919050565b60046020528060005260406000206000915054906101000a900460ff1681565b6000809054906101000a900473ffffffffffffffffffffffffffffffffffffffff1681565b6000600654905090565b600360003373ffffffffffffffffffffffffffffffffffffffff1673ffffffffffffffffffffffffffffffffffffffff16815260200190815260200160002060009054906101000a900460ff161515611996576040517f08c379a00000000000000000000000000000000000000000000000000000000081526004018080602001828103825260228152602001807f50726f76696465642075736572206973206e6f742061646d696e69737472617481526020017f6f7200000000000000000000000000000000000000000000000000000000000081525060400191505060405180910390fd5b6001600460008373ffffffffffffffffffffffffffffffffffffffff1673ffffffffffffffffffffffffffffffffffffffff16815260200190815260200160002060006101000a81548160ff0219169083151502179055507f9b6906422b19475ec1131684c08d1c6dd03361fc4c734e83a6ecd44acf0fc59681604051808273ffffffffffffffffffffffffffffffffffffffff1673ffffffffffffffffffffffffffffffffffffffff16815260200191505060405180910390a150565b6000809054906101000a900473ffffffffffffffffffffffffffffffffffffffff168073ffffffffffffffffffffffffffffffffffffffff163373ffffffffffffffffffffffffffffffffffffffff16141515611b19576040517f08c379a00000000000000000000000000000000000000000000000000000000081526004018080602001828103825260168152602001807f53656e646572206e6f7420617574686f72697a65642e0000000000000000000081525060200191505060405180910390fd5b816000806101000a81548173ffffffffffffffffffffffffffffffffffffffff021916908373ffffffffffffffffffffffffffffffffffffffff1602179055505050565b600060056000838152602001908152602001600020600101549050919050565b6000600460003373ffffffffffffffffffffffffffffffffffffffff1673ffffffffffffffffffffffffffffffffffffffff16815260200190815260200160002060009054906101000a900460ff161515611c40576040517f08c379a000000000000000000000000000000000000000000000000000000000815260040180806020018281038252601f8152602001807f50726f76696465642075736572206973206e6f742073746f72654f776e65720081525060200191505060405180910390fd5b60016005600087815260200190815260200160002060010154016005600087815260200190815260200160002060010181905550600060056000878152602001908152602001600020600101549050611c97612375565b60a0604051908101604052808381526020018781526020018681526020018581526020016000815250905080600560008981526020019081526020016000206004016000848152602001908152602001600020600082015181600001556020820151816001019080519060200190611d109291906122f5565b506040820151816002015560608201518160030155608082015181600401559050507fb47064f137db457a23f0999063b78d3911cd5604e0eea6e1220725f595d54507878787876040518085815260200180602001848152602001838152602001828103825285818151815260200191508051906020019080838360005b83811015611da9578082015181840152602081019050611d8e565b50505050905090810190601f168015611dd65780820380516001836020036101000a031916815260200191505b509550505050505060405180910390a16005600088815260200190815260200160002060040160008381526020019081526020016000206003015492505050949350505050565b60015481565b600360003373ffffffffffffffffffffffffffffffffffffffff1673ffffffffffffffffffffffffffffffffffffffff16815260200190815260200160002060009054906101000a900460ff161515611f0a576040517f08c379a00000000000000000000000000000000000000000000000000000000081526004018080602001828103825260228152602001807f50726f76696465642075736572206973206e6f742061646d696e69737472617481526020017f6f7200000000000000000000000000000000000000000000000000000000000081525060400191505060405180910390fd5b600460008273ffffffffffffffffffffffffffffffffffffffff1673ffffffffffffffffffffffffffffffffffffffff16815260200190815260200160002060006101000a81549060ff02191690557f8ab0f29f24d118975d6c3ca64cb8189d89957d9af42b5ded53f95044e18f8dd581604051808273ffffffffffffffffffffffffffffffffffffffff1673ffffffffffffffffffffffffffffffffffffffff16815260200191505060405180910390a150565b6005602052806000526040600020600091509050806000018054600181600116156101000203166002900480601f01602080910402602001604051908101604052809291908181526020018280546001816001161561010002031660029004801561206b5780601f106120405761010080835404028352916020019161206b565b820191906000526020600020905b81548152906001019060200180831161204e57829003601f168201915b5050505050908060010154908060020154908060030160009054906101000a900473ffffffffffffffffffffffffffffffffffffffff16905084565b600260009054906101000a900460ff1615156120c257600080fd5b828180600560008481526020019081526020016000206002015410151515612178576040517f08c379a00000000000000000000000000000000000000000000000000000000081526004018080602001828103825260318152602001807f46756e647320706c616e20746f207769746864726177206973206d6f7265207481526020017f68616e2053746f72652042616c616e636500000000000000000000000000000081525060400191505060405180910390fd5b8373ffffffffffffffffffffffffffffffffffffffff166108fc849081150290604051600060405180830381858888f193505050501580156121be573d6000803e3d6000fd5b508260056000878152602001908152602001600020600201600082825403925050819055507fbc2fd4054fad972ecfbb8418a5febbed40808949cc6287e221aefac5ca64c1228584604051808381526020018281526020019250505060405180910390a15050505050565b80600560008581526020019081526020016000206004016000848152602001908152602001600020600301600082825403925050819055507f078089767dc1d9ed98cd3745934d878a08a477875b7851b78a24aa1d0fc4a10283838360405180848152602001838152602001828152602001935050505060405180910390a1505050565b50805460018160011615610100020316600290046000825580601f106122d357506122f2565b601f0160209004906000526020600020908101906122f191906123a5565b5b50565b828054600181600116156101000203166002900490600052602060002090601f016020900481019282601f1061233657805160ff1916838001178555612364565b82800160010185558215612364579182015b82811115612363578251825591602001919060010190612348565b5b50905061237191906123a5565b5090565b60a06040519081016040528060008152602001606081526020016000815260200160008152602001600081525090565b6123c791905b808211156123c35760008160009055506001016123ab565b5090565b9056fea165627a7a7230582044c35329ea23a34b5677314e6c051b9cfef0583575f940658e7e45ca078a6d9f0029",
  "source": "pragma solidity ^0.5.0;\nimport \"./AccessRestriction.sol\";\n\n/* @title OnlineMarketPlace\n* @author Naresh Saladi\n* @notice Final Project - Consensys Training\n*/\ncontract OnlineMarketPlace is AccessRestriction {\n \n    bool public stopped = false;\n\n     mapping(address => bool) public adminAddressMap;  \n     mapping(address => bool) public storeOwnerAddressMap;  \n     struct Product{\n        uint productId;\n        string name;\n        uint unitPrice;\n        uint totalQuantity;\n        uint productSales;\n    }\n     struct Store  {\n        string name;\n        uint productsCount;\n        uint storeSales;\n        address payable owner;\n        mapping(uint => Product) products;\n    }\n    \n    mapping(uint => Store) public stores;\n    uint storeCount;\n   \n    \n     //Events\n     event LogAdminAdded(address _owner);\n     event LogAdminDeleted(address _owner);\n      event LogStoreOwnerAdded(address _owner);\n     event LogStoreOwnerDeleted(address _owner);\n     \n     event LogAddStore(uint _storeId,string _name);\n     event LogDeleteStore(uint _storeId);\n   \n     event LogProductAdded(uint _storeId,string _name,uint _unitPrice,uint _totalQuantity);\n     event LogProductRemoved(uint _storeId,uint _productId);\n     event LogUpdatePrice(uint _storeId,uint _productid,uint _unitPrice);\n     event LogWithdrawFunds(uint _storeId,uint _funds);\n     \n     event LogProductBought(uint _storeId,uint _productId,uint _quantity);\n     event LogInventoryAdjustment(uint _storeId,uint _productId,uint _quantity);\n     \n     /* @dev modifier checks owner is contract owner\n    * @param _owner address of next administrator\n    */\n    modifier restrictContractOwner() \n    {\n       \n        require(owner == msg.sender,\"Provided user is not contract owner\");\n        _;\n    }\n    /* @dev adds given ethereum address as administrator\n    * @param _owner address of next administrator\n    */\n     function addAdmin(address _owner) public restrictContractOwner()\n    {\n        adminAddressMap[_owner]=true;\n        emit LogAdminAdded(_owner);\n    }\n    /* @dev removes given ethereum address as administrator\n    * @param _owner address of next administrator\n    */\n     function deleteAdmin(address _owner) public restrictContractOwner()\n    {\n        delete adminAddressMap[_owner];\n        emit LogAdminDeleted(_owner);\n    }\n    /* @dev modifier checks owner is contract owner\n    * @param _owner address of next administrator\n    */\n    modifier restrictAdmin() \n    {\n        require(adminAddressMap[msg.sender],\"Provided user is not administrator\");\n        _;\n    }\n     /* @dev adds given ethereum address as storeowner\n    * @param _owner address of storeowner\n    */\n     function addStoreOwner(address _owner) public restrictAdmin()\n    {\n        storeOwnerAddressMap[_owner]=true;\n        emit LogStoreOwnerAdded(_owner);\n    }\n    /* @dev removes given ethereum address as storeOwner\n    * @param _owner address of store owner\n    */\n     function deleteStoreOwner(address _owner) public restrictAdmin()\n    {\n        delete storeOwnerAddressMap[_owner];\n        emit LogStoreOwnerDeleted(_owner);\n    }\n    /* @dev modifier checks owner is storeowner\n    */\n    modifier restrictStoreOwner() \n    {\n        require(storeOwnerAddressMap[msg.sender],\"Provided user is not storeOwner\");\n        _;\n    }\n    \n\n    modifier stopInEmergency { require(!stopped); _; }\n    modifier onlyInEmergency { require(stopped); _; }\n\n   \n    constructor() public{\n    }\n    \n    /* @dev create a new storefront that will be displayed on the marketplace\n     * @param name store name \n     * @returns storeId id of store\n    */\n    \n    function addStore(string memory _name) public restrictStoreOwner() returns (uint)\n    {\n        storeCount++;\n        stores[storeCount] = Store(_name,0,0,msg.sender);\n        emit LogAddStore(storeCount,_name);\n        return storeCount;\n       \n    }\n    /* @dev delete a store that will be removed from the marketplace\n    * @param _storeId identifier of a store\n    */\n     function deleteStore(uint _storeId) public restrictStoreOwner() returns (uint)\n    {\n        storeCount--;\n        delete stores[_storeId];\n        emit LogDeleteStore(_storeId);\n        return _storeId;\n       \n    }\n \n    /* @dev add a product to a specific store \n    * @param _storeId identifier of a store\n      * @param _name name of product\n       * @param _unitPrice price of product\n        * @param _totalQuantity total inventory of product available\n         \n    */\n    function addProduct(uint _storeId,string memory _name,uint _unitPrice,uint _totalQuantity) public restrictStoreOwner() returns (uint)\n    {\n        stores[_storeId].productsCount= stores[_storeId].productsCount+1;\n        uint productId = stores[_storeId].productsCount;\n        Product memory product = Product(productId,_name,_unitPrice,_totalQuantity,0);\n        stores[_storeId].products[productId] = product;\n        emit LogProductAdded(_storeId,_name,_unitPrice,_totalQuantity);\n        return  stores[_storeId].products[productId].totalQuantity;\n    }\n      /* @dev remove a product from  a specific store \n    * @param _storeId identifier of a store\n      * @param _productId identifier of a product\n    \n    */\n    function removeProduct(uint _storeId,uint _productId) public restrictStoreOwner() \n    {\n        stores[_storeId].productsCount--;\n        delete stores[_storeId].products[_productId];\n        emit LogProductRemoved(_storeId,_productId);\n    }\n    \n       /* @dev change any of the products prices.\n    * @param _storeId identifier of a store\n      * @param _productId identifier of a product\n    * @param _newUnitPrice new unit price of a product\n    */\n    function updatePrice(uint _storeId,uint _productId,uint _newUnitPrice) public restrictStoreOwner() \n    {\n        stores[_storeId].products[_productId].unitPrice = _newUnitPrice;\n        emit LogUpdatePrice(_storeId,_productId,_newUnitPrice);\n    }\n  \n    /* @dev withdraw any funds that the store has collected from sales\n    * @param _storeId identifier of a store\n      * @param _funds  funds need to be withdraw from store balance\n    */\n    function withdrawFunds(uint _storeId,address payable _targetAddress, uint _funds) public payable onlyInEmergency() checkAvailFunds(_storeId,_funds)\n    {\n        _targetAddress.transfer(_funds);\n        stores[_storeId].storeSales -=_funds;\n        emit LogWithdrawFunds(_storeId,_funds);\n    }\n    /* @dev check availability funds\n    * @param _storeId identifier of a store\n      * @param _funds  funds need to be withdraw from store balance\n    */\n    modifier checkAvailFunds(uint _storeId,uint _funds) {\n        require(stores[_storeId].storeSales>=_funds,\"Funds plan to withdraw is more than Store Balance\");\n        _;\n    }\n\n\n       /* @dev check whether buyer has enough funds \n    * @param _storeId identifier of a store\n      * @param _productId identifier of a product\n    * @param quantity product quantity\n    */\n    modifier buyerEnoughFunds(uint storeId,uint productId,uint quantity) \n    { \n        uint totalCost = stores[storeId].products[productId].unitPrice * quantity;\n        require(msg.value >= totalCost,\"\"); \n        _;\n    }\n      /* @dev check product inventory .\n    * @param _storeId identifier of a store\n      * @param _productId identifier of a product\n    * @param quantity product quantity\n    */\n    modifier checkStock(uint storeId,uint productId,uint quantity)\n    {\n        require (stores[storeId].products[productId].totalQuantity>=quantity,\"Out-of-Stock\"); \n        _;\n    }\n\n   /* @dev buy product .\n    * @param _storeId identifier of a store\n      * @param _productId identifier of a product\n    * @param quantity product quantity\n    */\n    function purchaseProduct(uint _storeId,uint _productId,uint _quantity) public\n    checkStock(_storeId,_productId,_quantity) buyerEnoughFunds(_storeId,_productId,_quantity) stopInEmergency()\n     payable\n    {\n        \n        uint totalAmount = stores[_storeId].products[_productId].unitPrice * _quantity;\n        //stores[_storeId].owner.transfer(totalAmount);\n        adjustInventory(_storeId,_productId,_quantity);\n        stores[_storeId].products[_productId].productSales +=totalAmount;\n        stores[_storeId].storeSales +=totalAmount;\n        emit LogProductBought(_storeId,_productId,_quantity);\n    }\n    /* @dev inventory will be reduced .\n    * @param _storeId identifier of a store\n      * @param _productId identifier of a product\n    * @param quantity product quantity\n    */\n    function adjustInventory(uint _storeId,uint _productId,uint _quantity) private\n    {\n        stores[_storeId].products[_productId].totalQuantity -= _quantity;\n        emit LogInventoryAdjustment(_storeId,_productId,_quantity);\n\n    }\n    function getStoreCount() external view returns(uint)\n    {\n        return storeCount;\n    }\n    function getProductCount(uint storeId) external view returns(uint)\n    {\n        return stores[storeId].productsCount;\n    }\n}\n",
  "sourcePath": "/Users/naresh_saladi/final-project-naresh071872/contracts/OnlineMarketPlace.sol",
  "compiler": {
    "name": "solc",
    "version": "0.5.0+commit.1d4f565a.Emscripten.clang"
  },
  "schemaVersion": "3.0.1",
  "updatedAt": "2019-01-27T05:33:52.499Z",
  "devdoc": {
    "methods": {}
  },
  "userdoc": {
    "methods": {
      "changeOwner(address)": {
        "notice": "Make `_newOwner` the new owner of this contract."
      },
      "disown()": {
        "notice": "Erase ownership information. May only be called 6 weeks after the contract has been created."
      }
    }
  }
}