{
  "contractName": "OnlineMarketPlace",
  "abi": [
    {
      "constant": false,
      "inputs": [
        {
          "name": "_newOwner",
          "type": "address"
        }
      ],
      "name": "forceOwnerChange",
      "outputs": [],
      "payable": true,
      "stateMutability": "payable",
      "type": "function",
      "signature": "0x0cb0c7f0"
    },
    {
      "constant": false,
      "inputs": [],
      "name": "disown",
      "outputs": [],
      "payable": false,
      "stateMutability": "nonpayable",
      "type": "function",
      "signature": "0x1e9bf0da"
    },
    {
      "constant": true,
      "inputs": [
        {
          "name": "",
          "type": "uint256"
        }
      ],
      "name": "storeOwners",
      "outputs": [
        {
          "name": "",
          "type": "address"
        }
      ],
      "payable": false,
      "stateMutability": "view",
      "type": "function",
      "signature": "0x44d50993"
    },
    {
      "constant": true,
      "inputs": [
        {
          "name": "",
          "type": "address"
        }
      ],
      "name": "adminAddressMap",
      "outputs": [
        {
          "name": "",
          "type": "bool"
        }
      ],
      "payable": false,
      "stateMutability": "view",
      "type": "function",
      "signature": "0x4ffa0ffc"
    },
    {
      "constant": true,
      "inputs": [],
      "name": "stopped",
      "outputs": [
        {
          "name": "",
          "type": "bool"
        }
      ],
      "payable": false,
      "stateMutability": "view",
      "type": "function",
      "signature": "0x75f12b21"
    },
    {
      "constant": true,
      "inputs": [
        {
          "name": "",
          "type": "address"
        }
      ],
      "name": "storeOwnerAddressMap",
      "outputs": [
        {
          "name": "",
          "type": "bool"
        }
      ],
      "payable": false,
      "stateMutability": "view",
      "type": "function",
      "signature": "0x86194785"
    },
    {
      "constant": true,
      "inputs": [],
      "name": "owner",
      "outputs": [
        {
          "name": "",
          "type": "address"
        }
      ],
      "payable": false,
      "stateMutability": "view",
      "type": "function",
      "signature": "0x8da5cb5b"
    },
    {
      "constant": false,
      "inputs": [
        {
          "name": "_newOwner",
          "type": "address"
        }
      ],
      "name": "changeOwner",
      "outputs": [],
      "payable": false,
      "stateMutability": "nonpayable",
      "type": "function",
      "signature": "0xa6f9dae1"
    },
    {
      "constant": true,
      "inputs": [],
      "name": "creationTime",
      "outputs": [
        {
          "name": "",
          "type": "uint256"
        }
      ],
      "payable": false,
      "stateMutability": "view",
      "type": "function",
      "signature": "0xd8270dce"
    },
    {
      "constant": true,
      "inputs": [
        {
          "name": "",
          "type": "uint256"
        }
      ],
      "name": "administrators",
      "outputs": [
        {
          "name": "",
          "type": "address"
        }
      ],
      "payable": false,
      "stateMutability": "view",
      "type": "function",
      "signature": "0xd89d1510"
    },
    {
      "constant": true,
      "inputs": [
        {
          "name": "",
          "type": "uint256"
        }
      ],
      "name": "stores",
      "outputs": [
        {
          "name": "name",
          "type": "bytes32"
        },
        {
          "name": "productsCount",
          "type": "uint256"
        },
        {
          "name": "storeSales",
          "type": "uint256"
        },
        {
          "name": "owner",
          "type": "address"
        }
      ],
      "payable": false,
      "stateMutability": "view",
      "type": "function",
      "signature": "0xe8a59cd8"
    },
    {
      "inputs": [],
      "payable": false,
      "stateMutability": "nonpayable",
      "type": "constructor",
      "signature": "constructor"
    },
    {
      "anonymous": false,
      "inputs": [
        {
          "indexed": false,
          "name": "_owner",
          "type": "address"
        }
      ],
      "name": "LogAdminAdded",
      "type": "event",
      "signature": "0x873b6546df550db4e197c19f621af58777f109107ed897212d3ab52d5a9f2ede"
    },
    {
      "anonymous": false,
      "inputs": [
        {
          "indexed": false,
          "name": "_owner",
          "type": "address"
        }
      ],
      "name": "LogAdminDeleted",
      "type": "event",
      "signature": "0xc248fc73d6760c715e23a360ece4bfa5e4a9c6868fd39343647b174a6ffaf05b"
    },
    {
      "anonymous": false,
      "inputs": [
        {
          "indexed": false,
          "name": "_owner",
          "type": "address"
        }
      ],
      "name": "LogStoreOwnerAdded",
      "type": "event",
      "signature": "0x9b6906422b19475ec1131684c08d1c6dd03361fc4c734e83a6ecd44acf0fc596"
    },
    {
      "anonymous": false,
      "inputs": [
        {
          "indexed": false,
          "name": "_owner",
          "type": "address"
        }
      ],
      "name": "LogStoreOwnerDeleted",
      "type": "event",
      "signature": "0x8ab0f29f24d118975d6c3ca64cb8189d89957d9af42b5ded53f95044e18f8dd5"
    },
    {
      "anonymous": false,
      "inputs": [
        {
          "indexed": false,
          "name": "_storeId",
          "type": "uint256"
        },
        {
          "indexed": false,
          "name": "_name",
          "type": "bytes32"
        }
      ],
      "name": "LogAddStore",
      "type": "event",
      "signature": "0xa2fdf429741d3ed8f80f70ca1b0905c675cbc324fb57d51a6520cb63ef4bb550"
    },
    {
      "anonymous": false,
      "inputs": [
        {
          "indexed": false,
          "name": "_storeId",
          "type": "uint256"
        }
      ],
      "name": "LogDeleteStore",
      "type": "event",
      "signature": "0xf10d31d003928030ef97d1080319cb2c0a8f3a8a5802837f4f4c221d37978cd2"
    },
    {
      "anonymous": false,
      "inputs": [
        {
          "indexed": false,
          "name": "_storeId",
          "type": "uint256"
        },
        {
          "indexed": false,
          "name": "_name",
          "type": "bytes32"
        },
        {
          "indexed": false,
          "name": "_unitPrice",
          "type": "uint256"
        },
        {
          "indexed": false,
          "name": "_totalQuantity",
          "type": "uint256"
        }
      ],
      "name": "LogProductAdded",
      "type": "event",
      "signature": "0x8df71e58611f7e5ffd2b12e97b747172f687711442d987323b664682f73012b6"
    },
    {
      "anonymous": false,
      "inputs": [
        {
          "indexed": false,
          "name": "_storeId",
          "type": "uint256"
        },
        {
          "indexed": false,
          "name": "_productId",
          "type": "uint256"
        }
      ],
      "name": "LogProductRemoved",
      "type": "event",
      "signature": "0xdb7332f001cc76680387a27a8d7a9a83a011dd63dd20b347181a806bd91fdc26"
    },
    {
      "anonymous": false,
      "inputs": [
        {
          "indexed": false,
          "name": "_storeId",
          "type": "uint256"
        },
        {
          "indexed": false,
          "name": "_productid",
          "type": "uint256"
        },
        {
          "indexed": false,
          "name": "_unitPrice",
          "type": "uint256"
        }
      ],
      "name": "LogUpdatePrice",
      "type": "event",
      "signature": "0xc889d8b9f4e6f9703b9f96e273c76a18f3cf96d96869a6edc3d768518762301c"
    },
    {
      "anonymous": false,
      "inputs": [
        {
          "indexed": false,
          "name": "_storeId",
          "type": "uint256"
        },
        {
          "indexed": false,
          "name": "_funds",
          "type": "uint256"
        }
      ],
      "name": "LogWithdrawFunds",
      "type": "event",
      "signature": "0xbc2fd4054fad972ecfbb8418a5febbed40808949cc6287e221aefac5ca64c122"
    },
    {
      "anonymous": false,
      "inputs": [
        {
          "indexed": false,
          "name": "_storeId",
          "type": "uint256"
        },
        {
          "indexed": false,
          "name": "_productId",
          "type": "uint256"
        },
        {
          "indexed": false,
          "name": "_quantity",
          "type": "uint256"
        }
      ],
      "name": "LogProductBought",
      "type": "event",
      "signature": "0x0f4498545e96cd1f17366cecee5badbcf6fafe77c7d02a32bcb5d960643862a6"
    },
    {
      "anonymous": false,
      "inputs": [
        {
          "indexed": false,
          "name": "_storeId",
          "type": "uint256"
        },
        {
          "indexed": false,
          "name": "_productId",
          "type": "uint256"
        },
        {
          "indexed": false,
          "name": "_quantity",
          "type": "uint256"
        }
      ],
      "name": "LogInventoryAdjustment",
      "type": "event",
      "signature": "0x078089767dc1d9ed98cd3745934d878a08a477875b7851b78a24aa1d0fc4a102"
    },
    {
      "anonymous": false,
      "inputs": [
        {
          "indexed": false,
          "name": "_productId",
          "type": "uint256"
        },
        {
          "indexed": false,
          "name": "_newQuantity",
          "type": "uint256"
        },
        {
          "indexed": false,
          "name": "oldQty",
          "type": "uint256"
        }
      ],
      "name": "LogProductQtyUpdated",
      "type": "event",
      "signature": "0x9ce6e3eab09f674919289f2ea94a4b892b0c6b52fbcc14633d7c9741a66e0c0d"
    },
    {
      "constant": false,
      "inputs": [
        {
          "name": "_owner",
          "type": "address"
        }
      ],
      "name": "addAdmin",
      "outputs": [],
      "payable": false,
      "stateMutability": "nonpayable",
      "type": "function",
      "signature": "0x70480275"
    },
    {
      "constant": false,
      "inputs": [
        {
          "name": "_owner",
          "type": "address"
        }
      ],
      "name": "deleteAdmin",
      "outputs": [],
      "payable": false,
      "stateMutability": "nonpayable",
      "type": "function",
      "signature": "0x27e1f7df"
    },
    {
      "constant": false,
      "inputs": [
        {
          "name": "_owner",
          "type": "address"
        }
      ],
      "name": "addStoreOwner",
      "outputs": [],
      "payable": false,
      "stateMutability": "nonpayable",
      "type": "function",
      "signature": "0x9adeb5f1"
    },
    {
      "constant": false,
      "inputs": [
        {
          "name": "_owner",
          "type": "address"
        }
      ],
      "name": "deleteStoreOwner",
      "outputs": [],
      "payable": false,
      "stateMutability": "nonpayable",
      "type": "function",
      "signature": "0xdcba65af"
    },
    {
      "constant": false,
      "inputs": [
        {
          "name": "_name",
          "type": "bytes32"
        }
      ],
      "name": "addStore",
      "outputs": [
        {
          "name": "",
          "type": "uint256"
        }
      ],
      "payable": false,
      "stateMutability": "nonpayable",
      "type": "function",
      "signature": "0x9a20400c"
    },
    {
      "constant": false,
      "inputs": [
        {
          "name": "_storeId",
          "type": "uint256"
        }
      ],
      "name": "deleteStore",
      "outputs": [
        {
          "name": "",
          "type": "uint256"
        }
      ],
      "payable": false,
      "stateMutability": "nonpayable",
      "type": "function",
      "signature": "0x7cc69325"
    },
    {
      "constant": false,
      "inputs": [
        {
          "name": "_storeId",
          "type": "uint256"
        },
        {
          "name": "_name",
          "type": "bytes32"
        },
        {
          "name": "_unitPrice",
          "type": "uint256"
        },
        {
          "name": "_totalQuantity",
          "type": "uint256"
        }
      ],
      "name": "addProduct",
      "outputs": [
        {
          "name": "",
          "type": "uint256"
        }
      ],
      "payable": false,
      "stateMutability": "nonpayable",
      "type": "function",
      "signature": "0xa5d2af88"
    },
    {
      "constant": false,
      "inputs": [
        {
          "name": "_storeId",
          "type": "uint256"
        },
        {
          "name": "_productId",
          "type": "uint256"
        }
      ],
      "name": "removeProduct",
      "outputs": [],
      "payable": false,
      "stateMutability": "nonpayable",
      "type": "function",
      "signature": "0x5287d535"
    },
    {
      "constant": false,
      "inputs": [
        {
          "name": "_storeId",
          "type": "uint256"
        },
        {
          "name": "_productId",
          "type": "uint256"
        },
        {
          "name": "_newUnitPrice",
          "type": "uint256"
        }
      ],
      "name": "updatePrice",
      "outputs": [],
      "payable": false,
      "stateMutability": "nonpayable",
      "type": "function",
      "signature": "0x0f436129"
    },
    {
      "constant": false,
      "inputs": [
        {
          "name": "_storeId",
          "type": "uint256"
        },
        {
          "name": "_funds",
          "type": "uint256"
        }
      ],
      "name": "withdrawFunds",
      "outputs": [],
      "payable": true,
      "stateMutability": "payable",
      "type": "function",
      "signature": "0xe5253105"
    },
    {
      "constant": false,
      "inputs": [
        {
          "name": "_storeId",
          "type": "uint256"
        },
        {
          "name": "_productId",
          "type": "uint256"
        },
        {
          "name": "_quantity",
          "type": "uint256"
        }
      ],
      "name": "purchaseProduct",
      "outputs": [],
      "payable": true,
      "stateMutability": "payable",
      "type": "function",
      "signature": "0x02703acf"
    },
    {
      "constant": true,
      "inputs": [],
      "name": "getStoreCount",
      "outputs": [
        {
          "name": "",
          "type": "uint256"
        }
      ],
      "payable": false,
      "stateMutability": "view",
      "type": "function",
      "signature": "0x98e8bd97"
    },
    {
      "constant": true,
      "inputs": [
        {
          "name": "storeId",
          "type": "uint256"
        }
      ],
      "name": "getProductCount",
      "outputs": [
        {
          "name": "",
          "type": "uint256"
        }
      ],
      "payable": false,
      "stateMutability": "view",
      "type": "function",
      "signature": "0xad4891ee"
    },
    {
      "constant": true,
      "inputs": [
        {
          "name": "storeId",
          "type": "uint256"
        },
        {
          "name": "productId",
          "type": "uint256"
        }
      ],
      "name": "getProductPrice",
      "outputs": [
        {
          "name": "",
          "type": "uint256"
        }
      ],
      "payable": false,
      "stateMutability": "view",
      "type": "function",
      "signature": "0x63bb0df5"
    },
    {
      "constant": true,
      "inputs": [],
      "name": "getAdministrators",
      "outputs": [
        {
          "name": "",
          "type": "address[]"
        }
      ],
      "payable": false,
      "stateMutability": "view",
      "type": "function",
      "signature": "0x543b3693"
    },
    {
      "constant": true,
      "inputs": [],
      "name": "getStoreOwners",
      "outputs": [
        {
          "name": "",
          "type": "address[]"
        }
      ],
      "payable": false,
      "stateMutability": "view",
      "type": "function",
      "signature": "0x91f4245a"
    },
    {
      "constant": true,
      "inputs": [],
      "name": "getStores",
      "outputs": [
        {
          "name": "",
          "type": "uint256[]"
        },
        {
          "name": "",
          "type": "bytes32[]"
        },
        {
          "name": "",
          "type": "address[]"
        }
      ],
      "payable": false,
      "stateMutability": "view",
      "type": "function",
      "signature": "0x5dc917f0"
    },
    {
      "constant": true,
      "inputs": [
        {
          "name": "storeOwner",
          "type": "address"
        }
      ],
      "name": "getStores",
      "outputs": [
        {
          "name": "",
          "type": "uint256[]"
        },
        {
          "name": "",
          "type": "bytes32[]"
        },
        {
          "name": "",
          "type": "uint256[]"
        }
      ],
      "payable": false,
      "stateMutability": "view",
      "type": "function",
      "signature": "0x75dae8a6"
    },
    {
      "constant": true,
      "inputs": [
        {
          "name": "_storeId",
          "type": "uint256"
        }
      ],
      "name": "getProductCatalog",
      "outputs": [
        {
          "name": "",
          "type": "uint256[]"
        },
        {
          "name": "",
          "type": "bytes32[]"
        },
        {
          "name": "",
          "type": "uint256[]"
        },
        {
          "name": "",
          "type": "uint256[]"
        }
      ],
      "payable": false,
      "stateMutability": "view",
      "type": "function",
      "signature": "0x0fa226c5"
    },
    {
      "constant": false,
      "inputs": [
        {
          "name": "_productId",
          "type": "uint256"
        },
        {
          "name": "_storeId",
          "type": "uint256"
        },
        {
          "name": "_newQuantity",
          "type": "uint256"
        }
      ],
      "name": "updateItemQuantity",
      "outputs": [
        {
          "name": "",
          "type": "uint256"
        }
      ],
      "payable": false,
      "stateMutability": "nonpayable",
      "type": "function",
      "signature": "0xf7a6711b"
    }
  ],
  "bytecode": "0x6080604052336000806101000a81548173ffffffffffffffffffffffffffffffffffffffff021916908373ffffffffffffffffffffffffffffffffffffffff160217905550426001556000600260006101000a81548160ff02191690831515021790555034801561006f57600080fd5b506001600560003373ffffffffffffffffffffffffffffffffffffffff1673ffffffffffffffffffffffffffffffffffffffff16815260200190815260200160002060006101000a81548160ff02191690831515021790555060033390806001815401808255809150509060018203906000526020600020016000909192909190916101000a81548173ffffffffffffffffffffffffffffffffffffffff021916908373ffffffffffffffffffffffffffffffffffffffff1602179055505061344c8061013d6000396000f3fe60806040526004361061018b576000357c0100000000000000000000000000000000000000000000000000000000900463ffffffff16806302703acf146101905780630cb0c7f0146101d25780630f436129146102165780630fa226c5146102655780631e9bf0da146103cd57806327e1f7df146103e457806344d50993146104355780634ffa0ffc146104b05780635287d53514610519578063543b36931461055e5780635dc917f0146105ca57806363bb0df5146106c6578063704802751461071f57806375dae8a61461077057806375f12b21146108a65780637cc69325146108d557806386194785146109245780638da5cb5b1461098d57806391f4245a146109e457806398e8bd9714610a505780639a20400c14610a7b5780639adeb5f114610aca578063a5d2af8814610b1b578063a6f9dae114610b88578063ad4891ee14610bd9578063d8270dce14610c28578063d89d151014610c53578063dcba65af14610cce578063e525310514610d1f578063e8a59cd814610d57578063f7a6711b14610de7575b600080fd5b6101d0600480360360608110156101a657600080fd5b81019080803590602001909291908035906020019092919080359060200190929190505050610e4a565b005b610214600480360360208110156101e857600080fd5b81019080803573ffffffffffffffffffffffffffffffffffffffff1690602001909291905050506110e0565b005b34801561022257600080fd5b506102636004803603606081101561023957600080fd5b81019080803590602001909291908035906020019092919080359060200190929190505050611241565b005b34801561027157600080fd5b5061029e6004803603602081101561028857600080fd5b81019080803590602001909291905050506113a7565b6040518080602001806020018060200180602001858103855289818151815260200191508051906020019060200280838360005b838110156102ed5780820151818401526020810190506102d2565b50505050905001858103845288818151815260200191508051906020019060200280838360005b8381101561032f578082015181840152602081019050610314565b50505050905001858103835287818151815260200191508051906020019060200280838360005b83811015610371578082015181840152602081019050610356565b50505050905001858103825286818151815260200191508051906020019060200280838360005b838110156103b3578082015181840152602081019050610398565b505050509050019850505050505050505060405180910390f35b3480156103d957600080fd5b506103e26115e8565b005b3480156103f057600080fd5b506104336004803603602081101561040757600080fd5b81019080803573ffffffffffffffffffffffffffffffffffffffff169060200190929190505050611755565b005b34801561044157600080fd5b5061046e6004803603602081101561045857600080fd5b8101908080359060200190929190505050611a76565b604051808273ffffffffffffffffffffffffffffffffffffffff1673ffffffffffffffffffffffffffffffffffffffff16815260200191505060405180910390f35b3480156104bc57600080fd5b506104ff600480360360208110156104d357600080fd5b81019080803573ffffffffffffffffffffffffffffffffffffffff169060200190929190505050611ab4565b604051808215151515815260200191505060405180910390f35b34801561052557600080fd5b5061055c6004803603604081101561053c57600080fd5b810190808035906020019092919080359060200190929190505050611ad4565b005b34801561056a57600080fd5b50610573611c51565b6040518080602001828103825283818151815260200191508051906020019060200280838360005b838110156105b657808201518184015260208101905061059b565b505050509050019250505060405180910390f35b3480156105d657600080fd5b506105df611d39565b60405180806020018060200180602001848103845287818151815260200191508051906020019060200280838360005b8381101561062a57808201518184015260208101905061060f565b50505050905001848103835286818151815260200191508051906020019060200280838360005b8381101561066c578082015181840152602081019050610651565b50505050905001848103825285818151815260200191508051906020019060200280838360005b838110156106ae578082015181840152602081019050610693565b50505050905001965050505050505060405180910390f35b3480156106d257600080fd5b50610709600480360360408110156106e957600080fd5b810190808035906020019092919080359060200190929190505050611edf565b6040518082815260200191505060405180910390f35b34801561072b57600080fd5b5061076e6004803603602081101561074257600080fd5b81019080803573ffffffffffffffffffffffffffffffffffffffff169060200190929190505050611f14565b005b34801561077c57600080fd5b506107bf6004803603602081101561079357600080fd5b81019080803573ffffffffffffffffffffffffffffffffffffffff169060200190929190505050612122565b60405180806020018060200180602001848103845287818151815260200191508051906020019060200280838360005b8381101561080a5780820151818401526020810190506107ef565b50505050905001848103835286818151815260200191508051906020019060200280838360005b8381101561084c578082015181840152602081019050610831565b50505050905001848103825285818151815260200191508051906020019060200280838360005b8381101561088e578082015181840152602081019050610873565b50505050905001965050505050505060405180910390f35b3480156108b257600080fd5b506108bb6122ed565b604051808215151515815260200191505060405180910390f35b3480156108e157600080fd5b5061090e600480360360208110156108f857600080fd5b8101908080359060200190929190505050612300565b6040518082815260200191505060405180910390f35b34801561093057600080fd5b506109736004803603602081101561094757600080fd5b81019080803573ffffffffffffffffffffffffffffffffffffffff16906020019092919050505061246a565b604051808215151515815260200191505060405180910390f35b34801561099957600080fd5b506109a261248a565b604051808273ffffffffffffffffffffffffffffffffffffffff1673ffffffffffffffffffffffffffffffffffffffff16815260200191505060405180910390f35b3480156109f057600080fd5b506109f96124af565b6040518080602001828103825283818151815260200191508051906020019060200280838360005b83811015610a3c578082015181840152602081019050610a21565b505050509050019250505060405180910390f35b348015610a5c57600080fd5b50610a65612597565b6040518082815260200191505060405180910390f35b348015610a8757600080fd5b50610ab460048036036020811015610a9e57600080fd5b81019080803590602001909291905050506125a1565b6040518082815260200191505060405180910390f35b348015610ad657600080fd5b50610b1960048036036020811015610aed57600080fd5b81019080803573ffffffffffffffffffffffffffffffffffffffff169060200190929190505050612778565b005b348015610b2757600080fd5b50610b7260048036036080811015610b3e57600080fd5b8101908080359060200190929190803590602001909291908035906020019092919080359060200190929190505050612983565b6040518082815260200191505060405180910390f35b348015610b9457600080fd5b50610bd760048036036020811015610bab57600080fd5b81019080803573ffffffffffffffffffffffffffffffffffffffff169060200190929190505050612b81565b005b348015610be557600080fd5b50610c1260048036036020811015610bfc57600080fd5b8101908080359060200190929190505050612c8a565b6040518082815260200191505060405180910390f35b348015610c3457600080fd5b50610c3d612caa565b6040518082815260200191505060405180910390f35b348015610c5f57600080fd5b50610c8c60048036036020811015610c7657600080fd5b8101908080359060200190929190505050612cb0565b604051808273ffffffffffffffffffffffffffffffffffffffff1673ffffffffffffffffffffffffffffffffffffffff16815260200191505060405180910390f35b348015610cda57600080fd5b50610d1d60048036036020811015610cf157600080fd5b81019080803573ffffffffffffffffffffffffffffffffffffffff169060200190929190505050612cee565b005b610d5560048036036040811015610d3557600080fd5b81019080803590602001909291908035906020019092919050505061300c565b005b348015610d6357600080fd5b50610d9060048036036020811015610d7a57600080fd5b81019080803590602001909291905050506130a4565b604051808581526020018481526020018381526020018273ffffffffffffffffffffffffffffffffffffffff1673ffffffffffffffffffffffffffffffffffffffff16815260200194505050505060405180910390f35b348015610df357600080fd5b50610e3460048036036060811015610e0a57600080fd5b810190808035906020019092919080359060200190929190803590602001909291905050506130f4565b6040518082815260200191505060405180910390f35b828282806007600085815260200190815260200160002060040160008481526020019081526020016000206003015410151515610eef576040517f08c379a000000000000000000000000000000000000000000000000000000000815260040180806020018281038252600c8152602001807f4f75742d6f662d53746f636b000000000000000000000000000000000000000081525060200191505060405180910390fd5b85858560008160076000868152602001908152602001600020600401600085815260200190815260200160002060020154029050803373ffffffffffffffffffffffffffffffffffffffff163110151515610fd8576040517f08c379a00000000000000000000000000000000000000000000000000000000081526004018080602001828103825260228152602001807f427579657220646f65736e2774206861766520656e6f756768742062616c616e81526020017f636500000000000000000000000000000000000000000000000000000000000081525060400191505060405180910390fd5b600260009054906101000a900460ff16151515610ff457600080fd5b600088600760008d815260200190815260200160002060040160008c8152602001908152602001600020600201540290506110308b8b8b613267565b80600760008d815260200190815260200160002060040160008c81526020019081526020016000206004016000828254019250508190555080600760008d8152602001908152602001600020600201600082825401925050819055507f0f4498545e96cd1f17366cecee5badbcf6fafe77c7d02a32bcb5d960643862a68b8b8b60405180848152602001838152602001828152602001935050505060405180910390a15050505050505050505050565b680ad78ebc5ac6200000803410151515611162576040517f08c379a000000000000000000000000000000000000000000000000000000000815260040180806020018281038252601a8152602001807f4e6f7420656e6f7567682045746865722070726f76696465642e00000000000081525060200191505060405180910390fd5b816000806101000a81548173ffffffffffffffffffffffffffffffffffffffff021916908373ffffffffffffffffffffffffffffffffffffffff160217905550600160008060009054906101000a900473ffffffffffffffffffffffffffffffffffffffff1673ffffffffffffffffffffffffffffffffffffffff161614156111ea576111eb565b5b8034111561123d573373ffffffffffffffffffffffffffffffffffffffff166108fc8234039081150290604051600060405180830381858888f1935050505015801561123b573d6000803e3d6000fd5b505b5050565b600660003373ffffffffffffffffffffffffffffffffffffffff1673ffffffffffffffffffffffffffffffffffffffff16815260200190815260200160002060009054906101000a900460ff161515611302576040517f08c379a000000000000000000000000000000000000000000000000000000000815260040180806020018281038252601f8152602001807f50726f76696465642075736572206973206e6f742073746f72654f776e65720081525060200191505060405180910390fd5b80600760008581526020019081526020016000206004016000848152602001908152602001600020600201819055507fc889d8b9f4e6f9703b9f96e273c76a18f3cf96d96869a6edc3d768518762301c83836007600087815260200190815260200160002060040160008681526020019081526020016000206002015460405180848152602001838152602001828152602001935050505060405180910390a1505050565b6060806060806000600760008781526020019081526020016000206001015490506060816040519080825280602002602001820160405280156113f95781602001602082028038833980820191505090505b50905060608260405190808252806020026020018201604052801561142d5781602001602082028038833980820191505090505b5090506060836040519080825280602002602001820160405280156114615781602001602082028038833980820191505090505b5090506060846040519080825280602002602001820160405280156114955781602001602082028038833980820191505090505b50905060008090505b858110156115cf57600760008c815260200190815260200160002060040160008281526020019081526020016000206000015485828151811015156114df57fe5b9060200190602002018181525050600760008c8152602001908152602001600020600401600082815260200190815260200160002060010154848281518110151561152657fe5b9060200190602002018181525050600760008c8152602001908152602001600020600401600082815260200190815260200160002060030154838281518110151561156d57fe5b9060200190602002018181525050600760008c815260200190815260200160002060040160008281526020019081526020016000206002015482828151811015156115b457fe5b9060200190602002018181525050808060010191505061149e565b5083838383985098509850985050505050509193509193565b6000809054906101000a900473ffffffffffffffffffffffffffffffffffffffff168073ffffffffffffffffffffffffffffffffffffffff163373ffffffffffffffffffffffffffffffffffffffff161415156116ad576040517f08c379a00000000000000000000000000000000000000000000000000000000081526004018080602001828103825260168152602001807f53656e646572206e6f7420617574686f72697a65642e0000000000000000000081525060200191505060405180910390fd5b62375f006001540180421015151561172d576040517f08c379a000000000000000000000000000000000000000000000000000000000815260040180806020018281038252601a8152602001807f46756e6374696f6e2063616c6c656420746f6f206561726c792e00000000000081525060200191505060405180910390fd5b6000806101000a81549073ffffffffffffffffffffffffffffffffffffffff02191690555050565b3373ffffffffffffffffffffffffffffffffffffffff166000809054906101000a900473ffffffffffffffffffffffffffffffffffffffff1673ffffffffffffffffffffffffffffffffffffffff1614151561183f576040517f08c379a00000000000000000000000000000000000000000000000000000000081526004018080602001828103825260238152602001807f50726f76696465642075736572206973206e6f7420636f6e7472616374206f7781526020017f6e6572000000000000000000000000000000000000000000000000000000000081525060400191505060405180910390fd5b600560008273ffffffffffffffffffffffffffffffffffffffff1673ffffffffffffffffffffffffffffffffffffffff16815260200190815260200160002060006101000a81549060ff02191690556000600380549050905060008090505b81811015611a0e578273ffffffffffffffffffffffffffffffffffffffff166003828154811015156118cc57fe5b9060005260206000200160009054906101000a900473ffffffffffffffffffffffffffffffffffffffff1673ffffffffffffffffffffffffffffffffffffffff161415611a015760036001830381548110151561192557fe5b9060005260206000200160009054906101000a900473ffffffffffffffffffffffffffffffffffffffff1660038281548110151561195f57fe5b9060005260206000200160006101000a81548173ffffffffffffffffffffffffffffffffffffffff021916908373ffffffffffffffffffffffffffffffffffffffff1602179055506003600183038154811015156119b957fe5b9060005260206000200160006101000a81549073ffffffffffffffffffffffffffffffffffffffff021916905560038054809190600190036119fb919061339c565b50611a0e565b808060010191505061189e565b507fc248fc73d6760c715e23a360ece4bfa5e4a9c6868fd39343647b174a6ffaf05b82604051808273ffffffffffffffffffffffffffffffffffffffff1673ffffffffffffffffffffffffffffffffffffffff16815260200191505060405180910390a15050565b600481815481101515611a8557fe5b906000526020600020016000915054906101000a900473ffffffffffffffffffffffffffffffffffffffff1681565b60056020528060005260406000206000915054906101000a900460ff1681565b600660003373ffffffffffffffffffffffffffffffffffffffff1673ffffffffffffffffffffffffffffffffffffffff16815260200190815260200160002060009054906101000a900460ff161515611b95576040517f08c379a000000000000000000000000000000000000000000000000000000000815260040180806020018281038252601f8152602001807f50726f76696465642075736572206973206e6f742073746f72654f776e65720081525060200191505060405180910390fd5b600760008381526020019081526020016000206001016000815480929190600190039190505550600760008381526020019081526020016000206004016000828152602001908152602001600020600080820160009055600182016000905560028201600090556003820160009055600482016000905550507fdb7332f001cc76680387a27a8d7a9a83a011dd63dd20b347181a806bd91fdc268282604051808381526020018281526020019250505060405180910390a15050565b606060006003805490509050606081604051908082528060200260200182016040528015611c8e5781602001602082028038833980820191505090505b50905060008090505b82811015611d3057600381815481101515611cae57fe5b9060005260206000200160009054906101000a900473ffffffffffffffffffffffffffffffffffffffff168282815181101515611ce757fe5b9060200190602002019073ffffffffffffffffffffffffffffffffffffffff16908173ffffffffffffffffffffffffffffffffffffffff16815250508080600101915050611c97565b50809250505090565b606080606080600854604051908082528060200260200182016040528015611d705781602001602082028038833980820191505090505b5090506060600854604051908082528060200260200182016040528015611da65781602001602082028038833980820191505090505b5090506060600854604051908082528060200260200182016040528015611ddc5781602001602082028038833980820191505090505b50905060008090505b600854811015611ecd57808482815181101515611dfe57fe5b906020019060200201818152505060076000828152602001908152602001600020600001548382815181101515611e3157fe5b90602001906020020181815250506007600082815260200190815260200160002060030160009054906101000a900473ffffffffffffffffffffffffffffffffffffffff168282815181101515611e8457fe5b9060200190602002019073ffffffffffffffffffffffffffffffffffffffff16908173ffffffffffffffffffffffffffffffffffffffff16815250508080600101915050611de5565b50828282955095509550505050909192565b600060076000848152602001908152602001600020600401600083815260200190815260200160002060020154905092915050565b3373ffffffffffffffffffffffffffffffffffffffff166000809054906101000a900473ffffffffffffffffffffffffffffffffffffffff1673ffffffffffffffffffffffffffffffffffffffff16141515611ffe576040517f08c379a00000000000000000000000000000000000000000000000000000000081526004018080602001828103825260238152602001807f50726f76696465642075736572206973206e6f7420636f6e7472616374206f7781526020017f6e6572000000000000000000000000000000000000000000000000000000000081525060400191505060405180910390fd5b6001600560008373ffffffffffffffffffffffffffffffffffffffff1673ffffffffffffffffffffffffffffffffffffffff16815260200190815260200160002060006101000a81548160ff02191690831515021790555060038190806001815401808255809150509060018203906000526020600020016000909192909190916101000a81548173ffffffffffffffffffffffffffffffffffffffff021916908373ffffffffffffffffffffffffffffffffffffffff160217905550507f873b6546df550db4e197c19f621af58777f109107ed897212d3ab52d5a9f2ede81604051808273ffffffffffffffffffffffffffffffffffffffff1673ffffffffffffffffffffffffffffffffffffffff16815260200191505060405180910390a150565b6060806060806008546040519080825280602002602001820160405280156121595781602001602082028038833980820191505090505b509050606060085460405190808252806020026020018201604052801561218f5781602001602082028038833980820191505090505b50905060606008546040519080825280602002602001820160405280156121c55781602001602082028038833980820191505090505b50905060008090505b6008548110156122d9578773ffffffffffffffffffffffffffffffffffffffff166007600083815260200190815260200160002060030160009054906101000a900473ffffffffffffffffffffffffffffffffffffffff1673ffffffffffffffffffffffffffffffffffffffff16141515612248576122cc565b80848281518110151561225757fe5b90602001906020020181815250506007600082815260200190815260200160002060000154838281518110151561228a57fe5b9060200190602002018181525050600760008281526020019081526020016000206002015482828151811015156122bd57fe5b90602001906020020181815250505b80806001019150506121ce565b508282829550955095505050509193909250565b600260009054906101000a900460ff1681565b6000600660003373ffffffffffffffffffffffffffffffffffffffff1673ffffffffffffffffffffffffffffffffffffffff16815260200190815260200160002060009054906101000a900460ff1615156123c3576040517f08c379a000000000000000000000000000000000000000000000000000000000815260040180806020018281038252601f8152602001807f50726f76696465642075736572206973206e6f742073746f72654f776e65720081525060200191505060405180910390fd5b6008600081548092919060019003919050555060076000838152602001908152602001600020600080820160009055600182016000905560028201600090556003820160006101000a81549073ffffffffffffffffffffffffffffffffffffffff021916905550507ff10d31d003928030ef97d1080319cb2c0a8f3a8a5802837f4f4c221d37978cd2826040518082815260200191505060405180910390a1819050919050565b60066020528060005260406000206000915054906101000a900460ff1681565b6000809054906101000a900473ffffffffffffffffffffffffffffffffffffffff1681565b6060600060048054905090506060816040519080825280602002602001820160405280156124ec5781602001602082028038833980820191505090505b50905060008090505b8281101561258e5760048181548110151561250c57fe5b9060005260206000200160009054906101000a900473ffffffffffffffffffffffffffffffffffffffff16828281518110151561254557fe5b9060200190602002019073ffffffffffffffffffffffffffffffffffffffff16908173ffffffffffffffffffffffffffffffffffffffff168152505080806001019150506124f5565b50809250505090565b6000600854905090565b6000600660003373ffffffffffffffffffffffffffffffffffffffff1673ffffffffffffffffffffffffffffffffffffffff16815260200190815260200160002060009054906101000a900460ff161515612664576040517f08c379a000000000000000000000000000000000000000000000000000000000815260040180806020018281038252601f8152602001807f50726f76696465642075736572206973206e6f742073746f72654f776e65720081525060200191505060405180910390fd5b60086000815480929190600101919050555060806040519081016040528083815260200160008152602001600081526020013373ffffffffffffffffffffffffffffffffffffffff1681525060076000600854815260200190815260200160002060008201518160000155602082015181600101556040820151816002015560608201518160030160006101000a81548173ffffffffffffffffffffffffffffffffffffffff021916908373ffffffffffffffffffffffffffffffffffffffff1602179055509050507fa2fdf429741d3ed8f80f70ca1b0905c675cbc324fb57d51a6520cb63ef4bb55060085483604051808381526020018281526020019250505060405180910390a16008549050919050565b600560003373ffffffffffffffffffffffffffffffffffffffff1673ffffffffffffffffffffffffffffffffffffffff16815260200190815260200160002060009054906101000a900460ff16151561285f576040517f08c379a00000000000000000000000000000000000000000000000000000000081526004018080602001828103825260228152602001807f50726f76696465642075736572206973206e6f742061646d696e69737472617481526020017f6f7200000000000000000000000000000000000000000000000000000000000081525060400191505060405180910390fd5b6001600660008373ffffffffffffffffffffffffffffffffffffffff1673ffffffffffffffffffffffffffffffffffffffff16815260200190815260200160002060006101000a81548160ff02191690831515021790555060048190806001815401808255809150509060018203906000526020600020016000909192909190916101000a81548173ffffffffffffffffffffffffffffffffffffffff021916908373ffffffffffffffffffffffffffffffffffffffff160217905550507f9b6906422b19475ec1131684c08d1c6dd03361fc4c734e83a6ecd44acf0fc59681604051808273ffffffffffffffffffffffffffffffffffffffff1673ffffffffffffffffffffffffffffffffffffffff16815260200191505060405180910390a150565b6000600660003373ffffffffffffffffffffffffffffffffffffffff1673ffffffffffffffffffffffffffffffffffffffff16815260200190815260200160002060009054906101000a900460ff161515612a46576040517f08c379a000000000000000000000000000000000000000000000000000000000815260040180806020018281038252601f8152602001807f50726f76696465642075736572206973206e6f742073746f72654f776e65720081525060200191505060405180910390fd5b60016007600087815260200190815260200160002060010154016007600087815260200190815260200160002060010181905550600060076000878152602001908152602001600020600101549050612a9d6133c8565b60a060405190810160405280838152602001878152602001868152602001858152602001600081525090508060076000898152602001908152602001600020600401600084815260200190815260200160002060008201518160000155602082015181600101556040820151816002015560608201518160030155608082015181600401559050507f8df71e58611f7e5ffd2b12e97b747172f687711442d987323b664682f73012b6878787876040518085815260200184815260200183815260200182815260200194505050505060405180910390a18192505050949350505050565b6000809054906101000a900473ffffffffffffffffffffffffffffffffffffffff168073ffffffffffffffffffffffffffffffffffffffff163373ffffffffffffffffffffffffffffffffffffffff16141515612c46576040517f08c379a00000000000000000000000000000000000000000000000000000000081526004018080602001828103825260168152602001807f53656e646572206e6f7420617574686f72697a65642e0000000000000000000081525060200191505060405180910390fd5b816000806101000a81548173ffffffffffffffffffffffffffffffffffffffff021916908373ffffffffffffffffffffffffffffffffffffffff1602179055505050565b600060076000838152602001908152602001600020600101549050919050565b60015481565b600381815481101515612cbf57fe5b906000526020600020016000915054906101000a900473ffffffffffffffffffffffffffffffffffffffff1681565b600560003373ffffffffffffffffffffffffffffffffffffffff1673ffffffffffffffffffffffffffffffffffffffff16815260200190815260200160002060009054906101000a900460ff161515612dd5576040517f08c379a00000000000000000000000000000000000000000000000000000000081526004018080602001828103825260228152602001807f50726f76696465642075736572206973206e6f742061646d696e69737472617481526020017f6f7200000000000000000000000000000000000000000000000000000000000081525060400191505060405180910390fd5b600660008273ffffffffffffffffffffffffffffffffffffffff1673ffffffffffffffffffffffffffffffffffffffff16815260200190815260200160002060006101000a81549060ff02191690556000600480549050905060008090505b81811015612fa4578273ffffffffffffffffffffffffffffffffffffffff16600482815481101515612e6257fe5b9060005260206000200160009054906101000a900473ffffffffffffffffffffffffffffffffffffffff1673ffffffffffffffffffffffffffffffffffffffff161415612f9757600460018303815481101515612ebb57fe5b9060005260206000200160009054906101000a900473ffffffffffffffffffffffffffffffffffffffff16600482815481101515612ef557fe5b9060005260206000200160006101000a81548173ffffffffffffffffffffffffffffffffffffffff021916908373ffffffffffffffffffffffffffffffffffffffff160217905550600460018303815481101515612f4f57fe5b9060005260206000200160006101000a81549073ffffffffffffffffffffffffffffffffffffffff02191690556004805480919060019003612f91919061339c565b50612fa4565b8080600101915050612e34565b507f8ab0f29f24d118975d6c3ca64cb8189d89957d9af42b5ded53f95044e18f8dd582604051808273ffffffffffffffffffffffffffffffffffffffff1673ffffffffffffffffffffffffffffffffffffffff16815260200191505060405180910390a15050565b600260009054906101000a900460ff16151561302757600080fd5b6130476007600084815260200190815260200160002060020154826132eb565b60076000848152602001908152602001600020600201819055507fbc2fd4054fad972ecfbb8418a5febbed40808949cc6287e221aefac5ca64c1228282604051808381526020018281526020019250505060405180910390a15050565b60076020528060005260406000206000915090508060000154908060010154908060020154908060030160009054906101000a900473ffffffffffffffffffffffffffffffffffffffff16905084565b6000600660003373ffffffffffffffffffffffffffffffffffffffff1673ffffffffffffffffffffffffffffffffffffffff16815260200190815260200160002060009054906101000a900460ff1615156131b7576040517f08c379a000000000000000000000000000000000000000000000000000000000815260040180806020018281038252601f8152602001807f50726f76696465642075736572206973206e6f742073746f72654f776e65720081525060200191505060405180910390fd5b600060076000858152602001908152602001600020600401600086815260200190815260200160002060030154905082600760008681526020019081526020016000206004016000878152602001908152602001600020600301819055507f9ce6e3eab09f674919289f2ea94a4b892b0c6b52fbcc14633d7c9741a66e0c0d85848360405180848152602001838152602001828152602001935050505060405180910390a1849150509392505050565b80600760008581526020019081526020016000206004016000848152602001908152602001600020600301600082825403925050819055507f078089767dc1d9ed98cd3745934d878a08a477875b7851b78a24aa1d0fc4a10283838360405180848152602001838152602001828152602001935050505060405180910390a1505050565b600082821115151561338b576040517f08c379a00000000000000000000000000000000000000000000000000000000081526004018080602001828103825260358152602001807f4e6f206974656d73206c65667420696e206172726179202d206e6f206974656d81526020017f73206265696e6720736f6c6420696e2073746f7265000000000000000000000081525060400191505060405180910390fd5b600082840390508091505092915050565b8154818355818111156133c3578183600052602060002091820191016133c291906133fb565b5b505050565b60a06040519081016040528060008152602001600080191681526020016000815260200160008152602001600081525090565b61341d91905b80821115613419576000816000905550600101613401565b5090565b9056fea165627a7a723058203a5abf3fc52e1cdda4501c4e49f4bcca7d9b400c5d7c6e6f1b42642092028cc80029",
  "source": "pragma solidity ^0.5.0;\n\nimport \"./AccessRestriction.sol\";\nimport \"./SafeMath.sol\";\n/* @title OnlineMarketPlace\n* @author Naresh Saladi\n* @notice Final Project - Consensys Training\n*/\ncontract OnlineMarketPlace is AccessRestriction {\n \n    bool public stopped = false;\n     address[] public administrators;\n     address[] public storeOwners;\n     mapping(address => bool) public adminAddressMap;  \n     mapping(address => bool) public storeOwnerAddressMap;  \n     struct Product{\n        uint productId;\n        bytes32 name;\n        uint unitPrice;\n        uint totalQuantity;\n        uint productSales;\n    }\n     struct Store  {\n        bytes32 name;\n        uint productsCount;\n        uint storeSales;\n        address payable owner;\n        mapping(uint => Product) products;\n    }\n    \n    mapping(uint => Store) public stores;\n    \n    uint storeCount;\n    uint adminCount;\n    uint storeOwnerCount;\n    \n     //Events\n     event LogAdminAdded(address _owner);\n     event LogAdminDeleted(address _owner);\n      event LogStoreOwnerAdded(address _owner);\n     event LogStoreOwnerDeleted(address _owner);\n     \n     event LogAddStore(uint _storeId,bytes32 _name);\n     event LogDeleteStore(uint _storeId);\n   \n     event LogProductAdded(uint _storeId,bytes32 _name,uint _unitPrice,uint _totalQuantity);\n     event LogProductRemoved(uint _storeId,uint _productId);\n     event LogUpdatePrice(uint _storeId,uint _productid,uint _unitPrice);\n     event LogWithdrawFunds(uint _storeId,uint _funds);\n     \n     event LogProductBought(uint _storeId,uint _productId,uint _quantity);\n     event LogInventoryAdjustment(uint _storeId,uint _productId,uint _quantity);\n     event LogProductQtyUpdated(uint _productId,uint _newQuantity,uint oldQty);\n     /* @dev modifier checks owner is contract owner\n    * @param _owner address of next administrator\n    */\n    modifier restrictContractOwner() \n    {\n       \n        require(owner == msg.sender,\"Provided user is not contract owner\");\n        _;\n    }\n    /* @dev adds given ethereum address as administrator\n    * @param _owner address of next administrator\n    */\n     function addAdmin(address _owner) public restrictContractOwner()\n    {\n        adminAddressMap[_owner]=true;\n        administrators.push(_owner);\n        emit LogAdminAdded(_owner);\n    }\n    /* @dev removes given ethereum address as administrator\n    * @param _owner address of next administrator\n    */\n     function deleteAdmin(address _owner) public restrictContractOwner()\n    {\n        delete adminAddressMap[_owner];\n        uint _adminCount = administrators.length;\n        for(uint i = 0; i < _adminCount; i++) {\n            if (administrators[i] == _owner) {\n                administrators[i] = administrators[_adminCount-1];\n                delete administrators[_adminCount-1];\n                administrators.length --;\n                break;\n            }\n        }\n        emit LogAdminDeleted(_owner);\n    }\n    /* @dev modifier checks owner is contract owner\n    * @param _owner address of next administrator\n    */\n    modifier restrictAdmin() \n    {\n        require(adminAddressMap[msg.sender],\"Provided user is not administrator\");\n        _;\n    }\n     /* @dev adds given ethereum address as storeowner\n    * @param _owner address of storeowner\n    */\n     function addStoreOwner(address _owner) public restrictAdmin()\n    {\n        storeOwnerAddressMap[_owner]=true;\n        storeOwners.push(_owner);\n        emit LogStoreOwnerAdded(_owner);\n    }\n    /* @dev removes given ethereum address as storeOwner\n    * @param _owner address of store owner\n    */\n     function deleteStoreOwner(address _owner) public restrictAdmin()\n    {\n        delete storeOwnerAddressMap[_owner];\n         uint ownerCount = storeOwners.length;\n        for(uint i = 0; i < ownerCount; i++) {\n            if (storeOwners[i] == _owner) {\n                storeOwners[i] = storeOwners[ownerCount-1];\n                delete storeOwners[ownerCount-1];\n                storeOwners.length --;\n                break;\n            }\n        }\n        emit LogStoreOwnerDeleted(_owner);\n    }\n    /* @dev modifier checks owner is storeowner\n    */\n    modifier restrictStoreOwner() \n    {\n        require(storeOwnerAddressMap[msg.sender],\"Provided user is not storeOwner\");\n        _;\n    }\n    \n\n    modifier stopInEmergency { require(!stopped); _; }\n    modifier onlyInEmergency { require(stopped); _; }\n\n   \n    constructor() public{\n      \n        adminAddressMap[msg.sender] = true;\n        administrators.push(msg.sender);\n    }\n    \n    /* @dev create a new storefront that will be displayed on the marketplace\n     * @param name store name \n     * @returns storeId id of store\n    */\n    \n    function addStore(bytes32 _name) public restrictStoreOwner() returns (uint)\n    {\n        storeCount++;\n        stores[storeCount] = Store(_name,0,0,msg.sender);\n        emit LogAddStore(storeCount,_name);\n        return storeCount;\n       \n    }\n    /* @dev delete a store that will be removed from the marketplace\n    * @param _storeId identifier of a store\n    */\n     function deleteStore(uint _storeId) public restrictStoreOwner() returns (uint)\n    {\n        storeCount--;\n        delete stores[_storeId];\n        emit LogDeleteStore(_storeId);\n        return _storeId;\n       \n    }\n \n    /* @dev add a product to a specific store \n    * @param _storeId identifier of a store\n      * @param _name name of product\n       * @param _unitPrice price of product\n        * @param _totalQuantity total inventory of product available\n         \n    */\n    function addProduct(uint _storeId,bytes32 _name,uint _unitPrice,uint _totalQuantity) public restrictStoreOwner() returns (uint)\n    {\n        stores[_storeId].productsCount= stores[_storeId].productsCount+1;\n        uint productId = stores[_storeId].productsCount;\n        Product memory product = Product(productId,_name,_unitPrice,_totalQuantity,0);\n        stores[_storeId].products[productId] = product;\n        emit LogProductAdded(_storeId,_name,_unitPrice,_totalQuantity);\n        return  productId;\n    }\n      /* @dev remove a product from  a specific store \n    * @param _storeId identifier of a store\n      * @param _productId identifier of a product\n    \n    */\n    function removeProduct(uint _storeId,uint _productId) public restrictStoreOwner() \n    {\n        stores[_storeId].productsCount--;\n        delete stores[_storeId].products[_productId];\n        emit LogProductRemoved(_storeId,_productId);\n    }\n    \n       /* @dev change any of the products prices.\n    * @param _storeId identifier of a store\n      * @param _productId identifier of a product\n    * @param _newUnitPrice new unit price of a product\n    */\n    function updatePrice(uint _storeId,uint _productId,uint _newUnitPrice) public restrictStoreOwner() \n    {\n        stores[_storeId].products[_productId].unitPrice = _newUnitPrice;\n        emit LogUpdatePrice(_storeId,_productId,stores[_storeId].products[_productId].unitPrice);\n    }\n  \n    /* @dev withdraw any funds that the store has collected from sales\n    * @param _storeId identifier of a store\n      * @param _funds  funds need to be withdraw from store balance\n    */\n    function withdrawFunds(uint _storeId,uint _funds) public payable onlyInEmergency() //checkAvailFunds(_storeId,_funds)\n    {\n        \n        stores[_storeId].storeSales = SafeMath.sub(stores[_storeId].storeSales,_funds);\n        emit LogWithdrawFunds(_storeId,_funds);\n    }\n    /* @dev check availability funds\n    * @param _storeId identifier of a store\n      * @param _funds  funds need to be withdraw from store balance\n    */\n    modifier checkAvailFunds(uint _storeId,uint _funds) {\n        require(stores[_storeId].storeSales>=_funds,\"Funds plan to withdraw is more than Store Balance\");\n        _;\n    }\n\n\n       /* @dev check whether buyer has enough funds \n    * @param _storeId identifier of a store\n      * @param _productId identifier of a product\n    * @param quantity product quantity\n    */\n    modifier buyerEnoughFunds(uint storeId,uint productId,uint quantity) \n    { \n        \n        uint totalCost = stores[storeId].products[productId].unitPrice * (quantity);\n        require(msg.sender.balance >= totalCost,\"Buyer doesn't have enought balance\"); \n        _;\n    }\n      /* @dev check product inventory .\n    * @param _storeId identifier of a store\n      * @param _productId identifier of a product\n    * @param quantity product quantity\n    */\n    modifier checkStock(uint storeId,uint productId,uint quantity)\n    {\n        require (stores[storeId].products[productId].totalQuantity>=quantity,\"Out-of-Stock\"); \n        _;\n    }\n\n   /* @dev buy product .\n    * @param _storeId identifier of a store\n      * @param _productId identifier of a product\n    * @param quantity product quantity\n    */\n    function purchaseProduct(uint _storeId,uint _productId,uint _quantity) public\n    checkStock(_storeId,_productId,_quantity) buyerEnoughFunds(_storeId,_productId,_quantity) stopInEmergency()\n     payable\n    {\n        \n        uint totalAmount = stores[_storeId].products[_productId].unitPrice * _quantity;\n       \n        adjustInventory(_storeId,_productId,_quantity);\n        stores[_storeId].products[_productId].productSales +=totalAmount;\n        stores[_storeId].storeSales +=totalAmount;\n        emit LogProductBought(_storeId,_productId,_quantity);\n    }\n    /* @dev inventory will be reduced .\n    * @param _storeId identifier of a store\n      * @param _productId identifier of a product\n    * @param quantity product quantity\n    */\n    function adjustInventory(uint _storeId,uint _productId,uint _quantity) private\n    {\n        stores[_storeId].products[_productId].totalQuantity -= _quantity;\n        emit LogInventoryAdjustment(_storeId,_productId,_quantity);\n\n    }\n    function getStoreCount() external view returns(uint)\n    {\n        return storeCount;\n    }\n    function getProductCount(uint storeId) external view returns(uint)\n    {\n        return stores[storeId].productsCount;\n    }\n    function getProductPrice(uint storeId,uint productId)  public view returns (uint)\n{\n    return stores[storeId].products[productId].unitPrice;\n}   \n function getAdministrators()\n    public\n    view\n    returns(address[] memory) {\n        uint _adminCount = administrators.length;\n        address[] memory admins = new address[](_adminCount);\n        for (uint i = 0; i < _adminCount; i++) {\n            admins[i] = administrators[i];\n        }\n        return admins;\n    }\n\n  /** @dev Get a list of all the store owners.\n    * @return owners The array of all the store owners address.\n    */\n    function getStoreOwners()\n    public\n    view\n    returns(address[] memory) {\n        uint _storeOwnerCount = storeOwners.length;\n        address[] memory owners = new address[](_storeOwnerCount);\n        for (uint i = 0; i < _storeOwnerCount; i++) {\n            owners[i] = storeOwners[i];\n        }\n        return owners;\n    }\n    \n    function getStores(address storeOwner)\n    public\n    view\n    returns(uint[]  memory ,bytes32[] memory, uint[] memory) {\n        \n        uint[] memory storeIds = new uint[](storeCount);\n        bytes32[] memory names = new bytes32[](storeCount);\n        uint[] memory storeSales = new uint[](storeCount);\n       \n        for(uint i = 0; i < storeCount; i++) {\n            if (stores[i].owner != storeOwner)\n            continue;\n            storeIds[i] = i;\n            names[i] = stores[i].name;\n            storeSales[i] = stores[i].storeSales;\n            \n        }\n        return (storeIds, names, storeSales);\n    }\n    function getStores()\n    public\n    view\n    returns(uint[]  memory ,bytes32[] memory, address[] memory) {\n        \n        uint[] memory storeIds = new uint[](storeCount);\n        bytes32[] memory names = new bytes32[](storeCount);\n        address[] memory owners = new address[](storeCount);\n       \n       \n        for(uint i = 0; i < storeCount; i++) {\n            storeIds[i] = i;\n            names[i] = stores[i].name;\n            owners[i] = stores[i].owner;\n            \n        }\n        return (storeIds, names, owners);\n    }\n    /** @dev Get the inventory for a specific store.\n    * @param _storeId The storefront ID.\n    * @return (itemIds, itemNames, itemQuantities, itemPrices) The Id, name, quantity and price for each Item.\n    */\n    function getProductCatalog(uint _storeId)\n    public\n    view\n    returns(uint[] memory, bytes32[] memory, uint[] memory, uint[] memory)\n    {\n        uint _productCount= stores[_storeId].productsCount;\n        \n        uint[] memory itemIds = new uint[](_productCount);\n        bytes32[] memory itemNames = new bytes32[](_productCount);\n        uint[] memory itemQuantities = new uint[](_productCount);\n        uint[] memory itemPrices = new uint[](_productCount);\n        for(uint i = 0; i < _productCount; i++) {\n            itemIds[i] = stores[_storeId].products[i].productId;\n            itemNames[i] = stores[_storeId].products[i].name;\n            itemQuantities[i] = stores[_storeId].products[i].totalQuantity;\n            itemPrices[i] = stores[_storeId].products[i].unitPrice;\n        }\n        return (itemIds, itemNames, itemQuantities, itemPrices);\n    }\n        /** @dev Updates the quantity of an Item from a specicic Storefront.\n    * @param _productId The item ID we want to update.\n    * @param _storeId The storefront ID we want to update the inventory from.\n    * @param _newQuantity The new quantity value we want to set the Item to.\n    * @return _productId The updated item ID.\n    */\n    function updateItemQuantity(uint _productId, uint _storeId, uint _newQuantity)\n    public\n    restrictStoreOwner()\n    \n    returns(uint) {\n        uint oldQty = stores[_storeId].products[_productId].totalQuantity;\n       stores[_storeId].products[_productId].totalQuantity = _newQuantity;\n        emit LogProductQtyUpdated(_productId, _newQuantity, oldQty);\n        return _productId;\n    }\n}",
  "sourcePath": "/home/naresh/final_projects/final-project-naresh071872/contracts/OnlineMarketPlace.sol",
  "compiler": {
    "name": "solc",
    "version": "0.5.0+commit.1d4f565a.Emscripten.clang"
  },
  "schemaVersion": "3.0.1",
  "updatedAt": "2019-01-28T04:15:58.848Z",
  "devdoc": {
    "methods": {
      "getProductCatalog(uint256)": {
        "details": "Get the inventory for a specific store.",
        "params": {
          "_storeId": "The storefront ID."
        },
        "return": "(itemIds, itemNames, itemQuantities, itemPrices) The Id, name, quantity and price for each Item."
      },
      "getStoreOwners()": {
        "details": "Get a list of all the store owners.",
        "return": "owners The array of all the store owners address."
      },
      "updateItemQuantity(uint256,uint256,uint256)": {
        "details": "Updates the quantity of an Item from a specicic Storefront.",
        "params": {
          "_newQuantity": "The new quantity value we want to set the Item to.",
          "_productId": "The item ID we want to update.",
          "_storeId": "The storefront ID we want to update the inventory from."
        },
        "return": "_productId The updated item ID."
      }
    }
  },
  "userdoc": {
    "methods": {
      "changeOwner(address)": {
        "notice": "Make `_newOwner` the new owner of this contract."
      },
      "disown()": {
        "notice": "Erase ownership information. May only be called 6 weeks after the contract has been created."
      }
    }
  }
}