{
  "contractName": "AdminContract",
  "abi": [
    {
      "constant": true,
      "inputs": [
        {
          "name": "",
          "type": "address"
        }
      ],
      "name": "storeOwners",
      "outputs": [
        {
          "name": "name",
          "type": "string"
        },
        {
          "name": "storeCount",
          "type": "uint256"
        },
        {
          "name": "ownerAddress",
          "type": "address"
        }
      ],
      "payable": false,
      "stateMutability": "view",
      "type": "function"
    },
    {
      "constant": true,
      "inputs": [
        {
          "name": "",
          "type": "uint256"
        }
      ],
      "name": "stores",
      "outputs": [
        {
          "name": "name",
          "type": "string"
        },
        {
          "name": "storeOwnerAddress",
          "type": "address"
        }
      ],
      "payable": false,
      "stateMutability": "view",
      "type": "function"
    },
    {
      "inputs": [],
      "payable": false,
      "stateMutability": "nonpayable",
      "type": "constructor"
    },
    {
      "constant": true,
      "inputs": [],
      "name": "identityAsAdmin",
      "outputs": [],
      "payable": false,
      "stateMutability": "view",
      "type": "function"
    },
    {
      "constant": false,
      "inputs": [
        {
          "name": "_owner",
          "type": "address"
        }
      ],
      "name": "addStoreOwner",
      "outputs": [],
      "payable": false,
      "stateMutability": "nonpayable",
      "type": "function"
    }
  ],
  "bytecode": "0x608060405234801561001057600080fd5b5060016002600073c2bfa544ba80bd4be5e09b87b7f68880196d1bd573ffffffffffffffffffffffffffffffffffffffff1673ffffffffffffffffffffffffffffffffffffffff16815260200190815260200160002060006101000a81548160ff021916908315150217905550600160026000739bd8ae4e329561918cfc650d13736bb120265c4673ffffffffffffffffffffffffffffffffffffffff1673ffffffffffffffffffffffffffffffffffffffff16815260200190815260200160002060006101000a81548160ff02191690831515021790555061072f806100f86000396000f3fe608060405260043610610062576000357c0100000000000000000000000000000000000000000000000000000000900463ffffffff168063057cc2a114610067578063309dfb671461016b5780639adeb5f114610182578063e8a59cd8146101d3575b600080fd5b34801561007357600080fd5b506100b66004803603602081101561008a57600080fd5b81019080803573ffffffffffffffffffffffffffffffffffffffff1690602001909291905050506102ba565b60405180806020018481526020018373ffffffffffffffffffffffffffffffffffffffff1673ffffffffffffffffffffffffffffffffffffffff168152602001828103825285818151815260200191508051906020019080838360005b8381101561012e578082015181840152602081019050610113565b50505050905090810190601f16801561015b5780820380516001836020036101000a031916815260200191505b5094505050505060405180910390f35b34801561017757600080fd5b5061018061039c565b005b34801561018e57600080fd5b506101d1600480360360208110156101a557600080fd5b81019080803573ffffffffffffffffffffffffffffffffffffffff16906020019092919050505061048c565b005b3480156101df57600080fd5b5061020c600480360360208110156101f657600080fd5b8101908080359060200190929190505050610582565b60405180806020018373ffffffffffffffffffffffffffffffffffffffff1673ffffffffffffffffffffffffffffffffffffffff168152602001828103825284818151815260200191508051906020019080838360005b8381101561027e578082015181840152602081019050610263565b50505050905090810190601f1680156102ab5780820380516001836020036101000a031916815260200191505b50935050505060405180910390f35b6001602052806000526040600020600091509050806000018054600181600116156101000203166002900480601f0160208091040260200160405190810160405280929190818152602001828054600181600116156101000203166002900480156103665780601f1061033b57610100808354040283529160200191610366565b820191906000526020600020905b81548152906001019060200180831161034957829003601f168201915b5050505050908060010154908060020160009054906101000a900473ffffffffffffffffffffffffffffffffffffffff16905083565b60011515600260003373ffffffffffffffffffffffffffffffffffffffff1673ffffffffffffffffffffffffffffffffffffffff16815260200190815260200160002060009054906101000a900460ff16151514151561048a576040517f08c379a00000000000000000000000000000000000000000000000000000000081526004018080602001828103825260258152602001807f50726f76696465642061646472657373206973206e6f742061646d696e69737481526020017f7261746f7200000000000000000000000000000000000000000000000000000081525060400191505060405180910390fd5b565b60606040519081016040528060206040519081016040528060008152508152602001600081526020018273ffffffffffffffffffffffffffffffffffffffff16815250600160008373ffffffffffffffffffffffffffffffffffffffff1673ffffffffffffffffffffffffffffffffffffffff168152602001908152602001600020600082015181600001908051906020019061052a92919061065e565b506020820151816001015560408201518160020160006101000a81548173ffffffffffffffffffffffffffffffffffffffff021916908373ffffffffffffffffffffffffffffffffffffffff16021790555090505050565b6000602052806000526040600020600091509050806000018054600181600116156101000203166002900480601f01602080910402602001604051908101604052809291908181526020018280546001816001161561010002031660029004801561062e5780601f106106035761010080835404028352916020019161062e565b820191906000526020600020905b81548152906001019060200180831161061157829003601f168201915b5050505050908060020160009054906101000a900473ffffffffffffffffffffffffffffffffffffffff16905082565b828054600181600116156101000203166002900490600052602060002090601f016020900481019282601f1061069f57805160ff19168380011785556106cd565b828001600101855582156106cd579182015b828111156106cc5782518255916020019190600101906106b1565b5b5090506106da91906106de565b5090565b61070091905b808211156106fc5760008160009055506001016106e4565b5090565b9056fea165627a7a723058201b8f9d9e44bf5e2ccaebe61e812396b5aa39bff16726e8c71a90cbd4f23d49910029",
  "source": "pragma solidity ^0.5.0;\nimport \"./DataStoreContract.sol\";\n//An administrator opens the web app. \n/**, \n such as managing store owners. , so if the owner of that address logs into the app, they have access to the store owner functions.\n*/\n\n/** @title Admin Contract */\ncontract AdminContract is DataStoreContract{\n    mapping (address => bool) admins;\n    \n    constructor() public{\n        admins[0xc2bFa544Ba80BD4Be5E09B87B7f68880196D1bD5]=true;\n        admins[0x9bd8Ae4E329561918Cfc650d13736BB120265C46]=true;\n    }\n    //The web app reads the address and identifies that the user is an admin\n    //showing them admin only functions,\n    function identityAsAdmin() public view \n    {\n        require(admins[msg.sender]==true,\"Provided address is not administrator\");\n    }\n    //An admin adds an address to the list of approved store owners\n    function addStoreOwner(address payable _owner) public \n    {\n        storeOwners[_owner] = StoreOwner(\"\",0,_owner);\n    }\n}",
  "sourcePath": "/home/naresh/final_projects/final-project-naresh071872/contracts/AdminContract.sol",
  "compiler": {
    "name": "solc",
    "version": "0.5.0+commit.1d4f565a.Emscripten.clang"
  },
  "schemaVersion": "3.0.1",
  "updatedAt": "2019-01-24T01:16:53.894Z",
  "devdoc": {
    "methods": {},
    "title": "Admin Contract "
  },
  "userdoc": {
    "methods": {}
  }
}