{
  "contractName": "OnlineMarketPlace",
  "abi": [
    {
      "constant": false,
      "inputs": [
        {
          "name": "_newOwner",
          "type": "address"
        }
      ],
      "name": "forceOwnerChange",
      "outputs": [],
      "payable": true,
      "stateMutability": "payable",
      "type": "function"
    },
    {
      "constant": false,
      "inputs": [],
      "name": "disown",
      "outputs": [],
      "payable": false,
      "stateMutability": "nonpayable",
      "type": "function"
    },
    {
      "constant": true,
      "inputs": [
        {
          "name": "",
          "type": "address"
        }
      ],
      "name": "adminAddressMap",
      "outputs": [
        {
          "name": "",
          "type": "bool"
        }
      ],
      "payable": false,
      "stateMutability": "view",
      "type": "function"
    },
    {
      "constant": true,
      "inputs": [],
      "name": "stopped",
      "outputs": [
        {
          "name": "",
          "type": "bool"
        }
      ],
      "payable": false,
      "stateMutability": "view",
      "type": "function"
    },
    {
      "constant": true,
      "inputs": [
        {
          "name": "",
          "type": "address"
        }
      ],
      "name": "storeOwnerAddressMap",
      "outputs": [
        {
          "name": "",
          "type": "bool"
        }
      ],
      "payable": false,
      "stateMutability": "view",
      "type": "function"
    },
    {
      "constant": true,
      "inputs": [],
      "name": "owner",
      "outputs": [
        {
          "name": "",
          "type": "address"
        }
      ],
      "payable": false,
      "stateMutability": "view",
      "type": "function"
    },
    {
      "constant": false,
      "inputs": [
        {
          "name": "_newOwner",
          "type": "address"
        }
      ],
      "name": "changeOwner",
      "outputs": [],
      "payable": false,
      "stateMutability": "nonpayable",
      "type": "function"
    },
    {
      "constant": true,
      "inputs": [],
      "name": "creationTime",
      "outputs": [
        {
          "name": "",
          "type": "uint256"
        }
      ],
      "payable": false,
      "stateMutability": "view",
      "type": "function"
    },
    {
      "inputs": [],
      "payable": false,
      "stateMutability": "nonpayable",
      "type": "constructor"
    },
    {
      "anonymous": false,
      "inputs": [
        {
          "indexed": false,
          "name": "_owner",
          "type": "address"
        }
      ],
      "name": "LogAdminAdded",
      "type": "event"
    },
    {
      "anonymous": false,
      "inputs": [
        {
          "indexed": false,
          "name": "_owner",
          "type": "address"
        }
      ],
      "name": "LogAdminDeleted",
      "type": "event"
    },
    {
      "anonymous": false,
      "inputs": [
        {
          "indexed": false,
          "name": "_owner",
          "type": "address"
        }
      ],
      "name": "LogStoreOwnerAdded",
      "type": "event"
    },
    {
      "anonymous": false,
      "inputs": [
        {
          "indexed": false,
          "name": "_owner",
          "type": "address"
        }
      ],
      "name": "LogStoreOwnerDeleted",
      "type": "event"
    },
    {
      "anonymous": false,
      "inputs": [
        {
          "indexed": false,
          "name": "_storeId",
          "type": "uint256"
        },
        {
          "indexed": false,
          "name": "_name",
          "type": "string"
        }
      ],
      "name": "LogAddStore",
      "type": "event"
    },
    {
      "anonymous": false,
      "inputs": [
        {
          "indexed": false,
          "name": "_storeId",
          "type": "uint256"
        }
      ],
      "name": "LogDeleteStore",
      "type": "event"
    },
    {
      "anonymous": false,
      "inputs": [
        {
          "indexed": false,
          "name": "_storeId",
          "type": "uint256"
        },
        {
          "indexed": false,
          "name": "_name",
          "type": "string"
        },
        {
          "indexed": false,
          "name": "_unitPrice",
          "type": "uint256"
        },
        {
          "indexed": false,
          "name": "_totalQuantity",
          "type": "uint256"
        }
      ],
      "name": "LogProductAdded",
      "type": "event"
    },
    {
      "anonymous": false,
      "inputs": [
        {
          "indexed": false,
          "name": "_storeId",
          "type": "uint256"
        },
        {
          "indexed": false,
          "name": "_productId",
          "type": "uint256"
        }
      ],
      "name": "LogProductRemoved",
      "type": "event"
    },
    {
      "anonymous": false,
      "inputs": [
        {
          "indexed": false,
          "name": "_storeId",
          "type": "uint256"
        },
        {
          "indexed": false,
          "name": "_productid",
          "type": "uint256"
        },
        {
          "indexed": false,
          "name": "_unitPrice",
          "type": "uint256"
        }
      ],
      "name": "LogUpdatePrice",
      "type": "event"
    },
    {
      "anonymous": false,
      "inputs": [
        {
          "indexed": false,
          "name": "_storeId",
          "type": "uint256"
        },
        {
          "indexed": false,
          "name": "_funds",
          "type": "uint256"
        }
      ],
      "name": "LogWithdrawFunds",
      "type": "event"
    },
    {
      "anonymous": false,
      "inputs": [
        {
          "indexed": false,
          "name": "_storeId",
          "type": "uint256"
        },
        {
          "indexed": false,
          "name": "_productId",
          "type": "uint256"
        },
        {
          "indexed": false,
          "name": "_quantity",
          "type": "uint256"
        }
      ],
      "name": "LogProductBought",
      "type": "event"
    },
    {
      "anonymous": false,
      "inputs": [
        {
          "indexed": false,
          "name": "_storeId",
          "type": "uint256"
        },
        {
          "indexed": false,
          "name": "_productId",
          "type": "uint256"
        },
        {
          "indexed": false,
          "name": "_quantity",
          "type": "uint256"
        }
      ],
      "name": "LogInventoryAdjustment",
      "type": "event"
    },
    {
      "constant": false,
      "inputs": [
        {
          "name": "_owner",
          "type": "address"
        }
      ],
      "name": "addAdmin",
      "outputs": [
        {
          "name": "",
          "type": "bool"
        }
      ],
      "payable": false,
      "stateMutability": "nonpayable",
      "type": "function"
    },
    {
      "constant": false,
      "inputs": [
        {
          "name": "_owner",
          "type": "address"
        }
      ],
      "name": "deleteAdmin",
      "outputs": [
        {
          "name": "",
          "type": "bool"
        }
      ],
      "payable": false,
      "stateMutability": "nonpayable",
      "type": "function"
    },
    {
      "constant": false,
      "inputs": [
        {
          "name": "_owner",
          "type": "address"
        }
      ],
      "name": "addStoreOwner",
      "outputs": [],
      "payable": false,
      "stateMutability": "nonpayable",
      "type": "function"
    },
    {
      "constant": false,
      "inputs": [
        {
          "name": "_owner",
          "type": "address"
        }
      ],
      "name": "deleteStoreOwner",
      "outputs": [],
      "payable": false,
      "stateMutability": "nonpayable",
      "type": "function"
    },
    {
      "constant": false,
      "inputs": [
        {
          "name": "_name",
          "type": "string"
        }
      ],
      "name": "addStore",
      "outputs": [
        {
          "name": "",
          "type": "uint256"
        }
      ],
      "payable": false,
      "stateMutability": "nonpayable",
      "type": "function"
    },
    {
      "constant": false,
      "inputs": [
        {
          "name": "_storeId",
          "type": "uint256"
        }
      ],
      "name": "deleteStore",
      "outputs": [
        {
          "name": "",
          "type": "uint256"
        }
      ],
      "payable": false,
      "stateMutability": "nonpayable",
      "type": "function"
    },
    {
      "constant": false,
      "inputs": [
        {
          "name": "_storeId",
          "type": "uint256"
        },
        {
          "name": "_name",
          "type": "string"
        },
        {
          "name": "_unitPrice",
          "type": "uint256"
        },
        {
          "name": "_totalQuantity",
          "type": "uint256"
        }
      ],
      "name": "addProduct",
      "outputs": [
        {
          "name": "",
          "type": "uint256"
        }
      ],
      "payable": false,
      "stateMutability": "nonpayable",
      "type": "function"
    },
    {
      "constant": false,
      "inputs": [
        {
          "name": "_storeId",
          "type": "uint256"
        },
        {
          "name": "_productId",
          "type": "uint256"
        }
      ],
      "name": "removeProduct",
      "outputs": [],
      "payable": false,
      "stateMutability": "nonpayable",
      "type": "function"
    },
    {
      "constant": false,
      "inputs": [
        {
          "name": "_storeId",
          "type": "uint256"
        },
        {
          "name": "_productId",
          "type": "uint256"
        },
        {
          "name": "_newUnitPrice",
          "type": "uint256"
        }
      ],
      "name": "updatePrice",
      "outputs": [],
      "payable": false,
      "stateMutability": "nonpayable",
      "type": "function"
    },
    {
      "constant": false,
      "inputs": [
        {
          "name": "_storeId",
          "type": "uint256"
        },
        {
          "name": "_targetAddress",
          "type": "address"
        },
        {
          "name": "_funds",
          "type": "uint256"
        }
      ],
      "name": "withdrawFunds",
      "outputs": [],
      "payable": true,
      "stateMutability": "payable",
      "type": "function"
    },
    {
      "constant": false,
      "inputs": [
        {
          "name": "_storeId",
          "type": "uint256"
        },
        {
          "name": "_productId",
          "type": "uint256"
        },
        {
          "name": "_quantity",
          "type": "uint256"
        }
      ],
      "name": "purchaseProduct",
      "outputs": [],
      "payable": true,
      "stateMutability": "payable",
      "type": "function"
    }
  ],
  "bytecode": "0x6080604052336000806101000a81548173ffffffffffffffffffffffffffffffffffffffff021916908373ffffffffffffffffffffffffffffffffffffffff160217905550426001556000600260006101000a81548160ff02191690831515021790555034801561006f57600080fd5b506123998061007f6000396000f3fe608060405260043610610107576000357c0100000000000000000000000000000000000000000000000000000000900463ffffffff16806302703acf1461010c5780630cb0c7f01461014e5780630f436129146101925780631e9bf0da146101e157806327e1f7df146101f85780634ffa0ffc146102615780635287d535146102ca578063662feffc1461030f57806370480275146103eb57806375f12b21146104545780637cc693251461048357806386194785146104d25780638da5cb5b1461053b5780639adeb5f114610592578063a6f9dae1146105e3578063c27ed2a214610634578063d8270dce1461072e578063dcba65af14610759578063f8f34cde146107aa575b600080fd5b61014c6004803603606081101561012257600080fd5b81019080803590602001909291908035906020019092919080359060200190929190505050610802565b005b6101906004803603602081101561016457600080fd5b81019080803573ffffffffffffffffffffffffffffffffffffffff169060200190929190505050610ab3565b005b34801561019e57600080fd5b506101df600480360360608110156101b557600080fd5b81019080803590602001909291908035906020019092919080359060200190929190505050610c14565b005b3480156101ed57600080fd5b506101f6610d50565b005b34801561020457600080fd5b506102476004803603602081101561021b57600080fd5b81019080803573ffffffffffffffffffffffffffffffffffffffff169060200190929190505050610ebd565b604051808215151515815260200191505060405180910390f35b34801561026d57600080fd5b506102b06004803603602081101561028457600080fd5b81019080803573ffffffffffffffffffffffffffffffffffffffff169060200190929190505050611064565b604051808215151515815260200191505060405180910390f35b3480156102d657600080fd5b5061030d600480360360408110156102ed57600080fd5b810190808035906020019092919080359060200190929190505050611084565b005b34801561031b57600080fd5b506103d56004803603602081101561033257600080fd5b810190808035906020019064010000000081111561034f57600080fd5b82018360208201111561036157600080fd5b8035906020019184600183028401116401000000008311171561038357600080fd5b91908080601f016020809104026020016040519081016040528093929190818152602001838380828437600081840152601f19601f82011690508083019250505050505050919291929050505061121d565b6040518082815260200191505060405180910390f35b3480156103f757600080fd5b5061043a6004803603602081101561040e57600080fd5b81019080803573ffffffffffffffffffffffffffffffffffffffff16906020019092919050505061146d565b604051808215151515815260200191505060405180910390f35b34801561046057600080fd5b50610469611668565b604051808215151515815260200191505060405180910390f35b34801561048f57600080fd5b506104bc600480360360208110156104a657600080fd5b810190808035906020019092919050505061167b565b6040518082815260200191505060405180910390f35b3480156104de57600080fd5b50610521600480360360208110156104f557600080fd5b81019080803573ffffffffffffffffffffffffffffffffffffffff1690602001909291905050506117ed565b604051808215151515815260200191505060405180910390f35b34801561054757600080fd5b5061055061180d565b604051808273ffffffffffffffffffffffffffffffffffffffff1673ffffffffffffffffffffffffffffffffffffffff16815260200191505060405180910390f35b34801561059e57600080fd5b506105e1600480360360208110156105b557600080fd5b81019080803573ffffffffffffffffffffffffffffffffffffffff169060200190929190505050611832565b005b3480156105ef57600080fd5b506106326004803603602081101561060657600080fd5b81019080803573ffffffffffffffffffffffffffffffffffffffff1690602001909291905050506119d7565b005b34801561064057600080fd5b506107186004803603608081101561065757600080fd5b81019080803590602001909291908035906020019064010000000081111561067e57600080fd5b82018360208201111561069057600080fd5b803590602001918460018302840111640100000000831117156106b257600080fd5b91908080601f016020809104026020016040519081016040528093929190818152602001838380828437600081840152601f19601f8201169050808301925050505050505091929192908035906020019092919080359060200190929190505050611ae0565b6040518082815260200191505060405180910390f35b34801561073a57600080fd5b50610743611d51565b6040518082815260200191505060405180910390f35b34801561076557600080fd5b506107a86004803603602081101561077c57600080fd5b81019080803573ffffffffffffffffffffffffffffffffffffffff169060200190929190505050611d57565b005b610800600480360360608110156107c057600080fd5b8101908080359060200190929190803573ffffffffffffffffffffffffffffffffffffffff16906020019092919080359060200190929190505050611ef3565b005b8282828060056000858152602001908152602001600020600401600084815260200190815260200160002060030154101515156108a7576040517f08c379a000000000000000000000000000000000000000000000000000000000815260040180806020018281038252600c8152602001807f4f75742d6f662d53746f636b000000000000000000000000000000000000000081525060200191505060405180910390fd5b8585856000816005600086815260200190815260200160002060040160008581526020019081526020016000206002015402905080341015151561092e576040517f08c379a0000000000000000000000000000000000000000000000000000000008152600401808060200182810382526000815260200160200191505060405180910390fd5b600260009054906101000a900460ff1615151561094a57600080fd5b600088600560008d815260200190815260200160002060040160008c815260200190815260200160002060020154029050600560008c815260200190815260200160002060030160009054906101000a900473ffffffffffffffffffffffffffffffffffffffff1673ffffffffffffffffffffffffffffffffffffffff166108fc829081150290604051600060405180830381858888f193505050501580156109f7573d6000803e3d6000fd5b50610a038b8b8b612075565b80600560008d815260200190815260200160002060040160008c81526020019081526020016000206004016000828254019250508190555080600560008d8152602001908152602001600020600201600082825401925050819055507f0f4498545e96cd1f17366cecee5badbcf6fafe77c7d02a32bcb5d960643862a68b8b8b60405180848152602001838152602001828152602001935050505060405180910390a15050505050505050505050565b680ad78ebc5ac6200000803410151515610b35576040517f08c379a000000000000000000000000000000000000000000000000000000000815260040180806020018281038252601a8152602001807f4e6f7420656e6f7567682045746865722070726f76696465642e00000000000081525060200191505060405180910390fd5b816000806101000a81548173ffffffffffffffffffffffffffffffffffffffff021916908373ffffffffffffffffffffffffffffffffffffffff160217905550600160008060009054906101000a900473ffffffffffffffffffffffffffffffffffffffff1673ffffffffffffffffffffffffffffffffffffffff16161415610bbd57610bbe565b5b80341115610c10573373ffffffffffffffffffffffffffffffffffffffff166108fc8234039081150290604051600060405180830381858888f19350505050158015610c0e573d6000803e3d6000fd5b505b5050565b600460003373ffffffffffffffffffffffffffffffffffffffff1673ffffffffffffffffffffffffffffffffffffffff16815260200190815260200160002060009054906101000a900460ff161515610cd5576040517f08c379a000000000000000000000000000000000000000000000000000000000815260040180806020018281038252601f8152602001807f50726f76696465642075736572206973206e6f742073746f72654f776e65720081525060200191505060405180910390fd5b80600560008581526020019081526020016000206004016000848152602001908152602001600020600201819055507fc889d8b9f4e6f9703b9f96e273c76a18f3cf96d96869a6edc3d768518762301c83838360405180848152602001838152602001828152602001935050505060405180910390a1505050565b6000809054906101000a900473ffffffffffffffffffffffffffffffffffffffff168073ffffffffffffffffffffffffffffffffffffffff163373ffffffffffffffffffffffffffffffffffffffff16141515610e15576040517f08c379a00000000000000000000000000000000000000000000000000000000081526004018080602001828103825260168152602001807f53656e646572206e6f7420617574686f72697a65642e0000000000000000000081525060200191505060405180910390fd5b62375f0060015401804210151515610e95576040517f08c379a000000000000000000000000000000000000000000000000000000000815260040180806020018281038252601a8152602001807f46756e6374696f6e2063616c6c656420746f6f206561726c792e00000000000081525060200191505060405180910390fd5b6000806101000a81549073ffffffffffffffffffffffffffffffffffffffff02191690555050565b60003373ffffffffffffffffffffffffffffffffffffffff166000809054906101000a900473ffffffffffffffffffffffffffffffffffffffff1673ffffffffffffffffffffffffffffffffffffffff16141515610fa9576040517f08c379a00000000000000000000000000000000000000000000000000000000081526004018080602001828103825260238152602001807f50726f76696465642075736572206973206e6f7420636f6e7472616374206f7781526020017f6e6572000000000000000000000000000000000000000000000000000000000081525060400191505060405180910390fd5b600360008373ffffffffffffffffffffffffffffffffffffffff1673ffffffffffffffffffffffffffffffffffffffff16815260200190815260200160002060006101000a81549060ff02191690557fc248fc73d6760c715e23a360ece4bfa5e4a9c6868fd39343647b174a6ffaf05b82604051808273ffffffffffffffffffffffffffffffffffffffff1673ffffffffffffffffffffffffffffffffffffffff16815260200191505060405180910390a160019050919050565b60036020528060005260406000206000915054906101000a900460ff1681565b600460003373ffffffffffffffffffffffffffffffffffffffff1673ffffffffffffffffffffffffffffffffffffffff16815260200190815260200160002060009054906101000a900460ff161515611145576040517f08c379a000000000000000000000000000000000000000000000000000000000815260040180806020018281038252601f8152602001807f50726f76696465642075736572206973206e6f742073746f72654f776e65720081525060200191505060405180910390fd5b611166600560008481526020019081526020016000206001015460016120f9565b60056000848152602001908152602001600020600101819055506005600083815260200190815260200160002060040160008281526020019081526020016000206000808201600090556001820160006111c09190612280565b60028201600090556003820160009055600482016000905550507fdb7332f001cc76680387a27a8d7a9a83a011dd63dd20b347181a806bd91fdc268282604051808381526020018281526020019250505060405180910390a15050565b6000600460003373ffffffffffffffffffffffffffffffffffffffff1673ffffffffffffffffffffffffffffffffffffffff16815260200190815260200160002060009054906101000a900460ff1615156112e0576040517f08c379a000000000000000000000000000000000000000000000000000000000815260040180806020018281038252601f8152602001807f50726f76696465642075736572206973206e6f742073746f72654f776e65720081525060200191505060405180910390fd5b6112ed60065460016121aa565b60068190555060806040519081016040528083815260200160008152602001600081526020013373ffffffffffffffffffffffffffffffffffffffff16815250600560006006548152602001908152602001600020600082015181600001908051906020019061135e9291906122c8565b50602082015181600101556040820151816002015560608201518160030160006101000a81548173ffffffffffffffffffffffffffffffffffffffff021916908373ffffffffffffffffffffffffffffffffffffffff1602179055509050507fc07e4372fa365db386646af93f798817e2118ab90167a32543aa1b239c1af919600654836040518083815260200180602001828103825283818151815260200191508051906020019080838360005b8381101561142857808201518184015260208101905061140d565b50505050905090810190601f1680156114555780820380516001836020036101000a031916815260200191505b50935050505060405180910390a16006549050919050565b60003373ffffffffffffffffffffffffffffffffffffffff166000809054906101000a900473ffffffffffffffffffffffffffffffffffffffff1673ffffffffffffffffffffffffffffffffffffffff16141515611559576040517f08c379a00000000000000000000000000000000000000000000000000000000081526004018080602001828103825260238152602001807f50726f76696465642075736572206973206e6f7420636f6e7472616374206f7781526020017f6e6572000000000000000000000000000000000000000000000000000000000081525060400191505060405180910390fd5b6001600360008473ffffffffffffffffffffffffffffffffffffffff1673ffffffffffffffffffffffffffffffffffffffff16815260200190815260200160002060006101000a81548160ff0219169083151502179055507f873b6546df550db4e197c19f621af58777f109107ed897212d3ab52d5a9f2ede82604051808273ffffffffffffffffffffffffffffffffffffffff1673ffffffffffffffffffffffffffffffffffffffff16815260200191505060405180910390a1600360008373ffffffffffffffffffffffffffffffffffffffff1673ffffffffffffffffffffffffffffffffffffffff16815260200190815260200160002060009054906101000a900460ff169050919050565b600260009054906101000a900460ff1681565b6000600460003373ffffffffffffffffffffffffffffffffffffffff1673ffffffffffffffffffffffffffffffffffffffff16815260200190815260200160002060009054906101000a900460ff16151561173e576040517f08c379a000000000000000000000000000000000000000000000000000000000815260040180806020018281038252601f8152602001807f50726f76696465642075736572206973206e6f742073746f72654f776e65720081525060200191505060405180910390fd5b61174b60065460016120f9565b60068190555060056000838152602001908152602001600020600080820160006117759190612280565b600182016000905560028201600090556003820160006101000a81549073ffffffffffffffffffffffffffffffffffffffff021916905550507ff10d31d003928030ef97d1080319cb2c0a8f3a8a5802837f4f4c221d37978cd2826040518082815260200191505060405180910390a1819050919050565b60046020528060005260406000206000915054906101000a900460ff1681565b6000809054906101000a900473ffffffffffffffffffffffffffffffffffffffff1681565b600360003373ffffffffffffffffffffffffffffffffffffffff1673ffffffffffffffffffffffffffffffffffffffff16815260200190815260200160002060009054906101000a900460ff161515611919576040517f08c379a00000000000000000000000000000000000000000000000000000000081526004018080602001828103825260228152602001807f50726f76696465642075736572206973206e6f742061646d696e69737472617481526020017f6f7200000000000000000000000000000000000000000000000000000000000081525060400191505060405180910390fd5b6001600460008373ffffffffffffffffffffffffffffffffffffffff1673ffffffffffffffffffffffffffffffffffffffff16815260200190815260200160002060006101000a81548160ff0219169083151502179055507f9b6906422b19475ec1131684c08d1c6dd03361fc4c734e83a6ecd44acf0fc59681604051808273ffffffffffffffffffffffffffffffffffffffff1673ffffffffffffffffffffffffffffffffffffffff16815260200191505060405180910390a150565b6000809054906101000a900473ffffffffffffffffffffffffffffffffffffffff168073ffffffffffffffffffffffffffffffffffffffff163373ffffffffffffffffffffffffffffffffffffffff16141515611a9c576040517f08c379a00000000000000000000000000000000000000000000000000000000081526004018080602001828103825260168152602001807f53656e646572206e6f7420617574686f72697a65642e0000000000000000000081525060200191505060405180910390fd5b816000806101000a81548173ffffffffffffffffffffffffffffffffffffffff021916908373ffffffffffffffffffffffffffffffffffffffff1602179055505050565b6000600460003373ffffffffffffffffffffffffffffffffffffffff1673ffffffffffffffffffffffffffffffffffffffff16815260200190815260200160002060009054906101000a900460ff161515611ba3576040517f08c379a000000000000000000000000000000000000000000000000000000000815260040180806020018281038252601f8152602001807f50726f76696465642075736572206973206e6f742073746f72654f776e65720081525060200191505060405180910390fd5b611bc4600560008781526020019081526020016000206001015460016121aa565b600560008781526020019081526020016000206001018190555060006005600087815260200190815260200160002060010154905060a0604051908101604052808281526020018681526020018581526020018481526020016000815250600560008881526020019081526020016000206004016000838152602001908152602001600020600082015181600001556020820151816001019080519060200190611c6f9291906122c8565b506040820151816002015560608201518160030155608082015181600401559050507fb47064f137db457a23f0999063b78d3911cd5604e0eea6e1220725f595d54507868686866040518085815260200180602001848152602001838152602001828103825285818151815260200191508051906020019080838360005b83811015611d08578082015181840152602081019050611ced565b50505050905090810190601f168015611d355780820380516001836020036101000a031916815260200191505b509550505050505060405180910390a180915050949350505050565b60015481565b600360003373ffffffffffffffffffffffffffffffffffffffff1673ffffffffffffffffffffffffffffffffffffffff16815260200190815260200160002060009054906101000a900460ff161515611e3e576040517f08c379a00000000000000000000000000000000000000000000000000000000081526004018080602001828103825260228152602001807f50726f76696465642075736572206973206e6f742061646d696e69737472617481526020017f6f7200000000000000000000000000000000000000000000000000000000000081525060400191505060405180910390fd5b600460008273ffffffffffffffffffffffffffffffffffffffff1673ffffffffffffffffffffffffffffffffffffffff16815260200190815260200160002060006101000a81549060ff02191690557f8ab0f29f24d118975d6c3ca64cb8189d89957d9af42b5ded53f95044e18f8dd581604051808273ffffffffffffffffffffffffffffffffffffffff1673ffffffffffffffffffffffffffffffffffffffff16815260200191505060405180910390a150565b600260009054906101000a900460ff161515611f0e57600080fd5b828180600560008481526020019081526020016000206002015410151515611fc4576040517f08c379a00000000000000000000000000000000000000000000000000000000081526004018080602001828103825260318152602001807f46756e647320706c616e20746f207769746864726177206973206d6f7265207481526020017f68616e2053746f72652042616c616e636500000000000000000000000000000081525060400191505060405180910390fd5b8373ffffffffffffffffffffffffffffffffffffffff166108fc849081150290604051600060405180830381858888f1935050505015801561200a573d6000803e3d6000fd5b508260056000878152602001908152602001600020600201600082825403925050819055507fbc2fd4054fad972ecfbb8418a5febbed40808949cc6287e221aefac5ca64c1228584604051808381526020018281526020019250505060405180910390a15050505050565b80600560008581526020019081526020016000206004016000848152602001908152602001600020600301600082825403925050819055507f078089767dc1d9ed98cd3745934d878a08a477875b7851b78a24aa1d0fc4a10283838360405180848152602001838152602001828152602001935050505060405180910390a1505050565b6000828211151515612199576040517f08c379a00000000000000000000000000000000000000000000000000000000081526004018080602001828103825260358152602001807f4e6f206974656d73206c65667420696e206172726179202d206e6f206974656d81526020017f73206265696e6720736f6c6420696e2073746f7265000000000000000000000081525060400191505060405180910390fd5b600082840390508091505092915050565b6000808284019050838110151515612276576040517f08c379a00000000000000000000000000000000000000000000000000000000081526004018080602001828103825260538152602001807f617661696c61626c652073746f726549442773202f20736b752773206f76657281526020017f666c6f776e2e20436f6e73696465722072657573696e6720766f6964206f722081526020017f616c7068616e756d657269632076616c7565730000000000000000000000000081525060600191505060405180910390fd5b8091505092915050565b50805460018160011615610100020316600290046000825580601f106122a657506122c5565b601f0160209004906000526020600020908101906122c49190612348565b5b50565b828054600181600116156101000203166002900490600052602060002090601f016020900481019282601f1061230957805160ff1916838001178555612337565b82800160010185558215612337579182015b8281111561233657825182559160200191906001019061231b565b5b5090506123449190612348565b5090565b61236a91905b8082111561236657600081600090555060010161234e565b5090565b9056fea165627a7a7230582012739a488494b5693e5fcffe9aa73ee6523ebf5fd018c3af5a0be72727ea81420029",
  "source": "pragma solidity ^0.5.0;\nimport \"./AccessRestriction.sol\";\nimport \"./SafeMath.sol\";\n/* @title OnlineMarketPlace\n* @author Naresh Saladi\n* @notice Final Project - Consensys Training\n*/\ncontract OnlineMarketPlace is AccessRestriction {\n \n    bool public stopped = false;\n\n     mapping(address => bool) public adminAddressMap;  \n     mapping(address => bool) public storeOwnerAddressMap;  \n     struct Product{\n        uint productId;\n        string name;\n        uint unitPrice;\n        uint totalQuantity;\n        uint productSales;\n    }\n     struct Store  {\n        string name;\n        uint productsCount;\n        uint storeSales;\n        address payable storeOwnerAddress;\n        mapping(uint => Product) products;\n    }\n    \n    mapping(uint => Store) stores;\n    uint storeCount;\n   \n    \n     //Events\n     event LogAdminAdded(address _owner);\n     event LogAdminDeleted(address _owner);\n      event LogStoreOwnerAdded(address _owner);\n     event LogStoreOwnerDeleted(address _owner);\n     \n     event LogAddStore(uint _storeId,string _name);\n     event LogDeleteStore(uint _storeId);\n   \n     event LogProductAdded(uint _storeId,string _name,uint _unitPrice,uint _totalQuantity);\n     event LogProductRemoved(uint _storeId,uint _productId);\n     event LogUpdatePrice(uint _storeId,uint _productid,uint _unitPrice);\n     event LogWithdrawFunds(uint _storeId,uint _funds);\n     \n     event LogProductBought(uint _storeId,uint _productId,uint _quantity);\n     event LogInventoryAdjustment(uint _storeId,uint _productId,uint _quantity);\n     \n     /* @dev modifier checks owner is contract owner\n    * @param _owner address of next administrator\n    */\n    modifier restrictContractOwner() \n    {\n       \n        require(owner == msg.sender,\"Provided user is not contract owner\");\n        _;\n    }\n    /* @dev adds given ethereum address as administrator\n    * @param _owner address of next administrator\n    */\n     function addAdmin(address _owner) public restrictContractOwner() returns (bool)\n    {\n        adminAddressMap[_owner]=true;\n        emit LogAdminAdded(_owner);\n        return adminAddressMap[_owner];\n    }\n    /* @dev removes given ethereum address as administrator\n    * @param _owner address of next administrator\n    */\n     function deleteAdmin(address _owner) public restrictContractOwner() returns (bool)\n    {\n        delete adminAddressMap[_owner];\n        emit LogAdminDeleted(_owner);\n        return true;\n    }\n    /* @dev modifier checks owner is contract owner\n    * @param _owner address of next administrator\n    */\n    modifier restrictAdmin() \n    {\n        require(adminAddressMap[msg.sender],\"Provided user is not administrator\");\n        _;\n    }\n     /* @dev adds given ethereum address as storeowner\n    * @param _owner address of storeowner\n    */\n     function addStoreOwner(address _owner) public restrictAdmin()\n    {\n        storeOwnerAddressMap[_owner]=true;\n        emit LogStoreOwnerAdded(_owner);\n    }\n    /* @dev removes given ethereum address as storeOwner\n    * @param _owner address of store owner\n    */\n     function deleteStoreOwner(address _owner) public restrictAdmin()\n    {\n        delete storeOwnerAddressMap[_owner];\n        emit LogStoreOwnerDeleted(_owner);\n    }\n    /* @dev modifier checks owner is storeowner\n    */\n    modifier restrictStoreOwner() \n    {\n        require(storeOwnerAddressMap[msg.sender],\"Provided user is not storeOwner\");\n        _;\n    }\n    \n\n    modifier stopInEmergency { require(!stopped); _; }\n    modifier onlyInEmergency { require(stopped); _; }\n\n   \n    constructor() public{\n    }\n    \n    /* @dev create a new storefront that will be displayed on the marketplace\n     * @param name store name \n     * @returns storeId id of store\n    */\n    \n    function addStore(string memory _name) public restrictStoreOwner() returns (uint)\n    {\n        storeCount = SafeMath.add(storeCount,1);\n        stores[storeCount] = Store(_name,0,0,msg.sender);\n        emit LogAddStore(storeCount,_name);\n        return storeCount;\n       \n    }\n    /* @dev delete a store that will be removed from the marketplace\n    * @param _storeId identifier of a store\n    */\n     function deleteStore(uint _storeId) public restrictStoreOwner() returns (uint)\n    {\n        storeCount= SafeMath.sub(storeCount,1);\n        delete stores[_storeId];\n        emit LogDeleteStore(_storeId);\n        return _storeId;\n       \n    }\n \n    /* @dev add a product to a specific store \n    * @param _storeId identifier of a store\n      * @param _name name of product\n       * @param _unitPrice price of product\n        * @param _totalQuantity total inventory of product available\n         \n    */\n    function addProduct(uint _storeId,string memory _name,uint _unitPrice,uint _totalQuantity) public restrictStoreOwner() returns (uint)\n    {\n        stores[_storeId].productsCount= SafeMath.add(stores[_storeId].productsCount,1);\n        uint productId = stores[_storeId].productsCount;\n        stores[_storeId].products[productId] = Product(productId,_name,_unitPrice,_totalQuantity,0);\n        emit LogProductAdded(_storeId,_name,_unitPrice,_totalQuantity);\n        return productId;\n    }\n      /* @dev remove a product from  a specific store \n    * @param _storeId identifier of a store\n      * @param _productId identifier of a product\n    \n    */\n    function removeProduct(uint _storeId,uint _productId) public restrictStoreOwner() \n    {\n        stores[_storeId].productsCount= SafeMath.sub(stores[_storeId].productsCount,1);\n        delete stores[_storeId].products[_productId];\n        emit LogProductRemoved(_storeId,_productId);\n    }\n    \n       /* @dev change any of the products prices.\n    * @param _storeId identifier of a store\n      * @param _productId identifier of a product\n    * @param _newUnitPrice new unit price of a product\n    */\n    function updatePrice(uint _storeId,uint _productId,uint _newUnitPrice) public restrictStoreOwner() \n    {\n        stores[_storeId].products[_productId].unitPrice = _newUnitPrice;\n        emit LogUpdatePrice(_storeId,_productId,_newUnitPrice);\n    }\n  \n    /* @dev withdraw any funds that the store has collected from sales\n    * @param _storeId identifier of a store\n      * @param _funds  funds need to be withdraw from store balance\n    */\n    function withdrawFunds(uint _storeId,address payable _targetAddress, uint _funds) public payable onlyInEmergency() checkAvailFunds(_storeId,_funds)\n    {\n        _targetAddress.transfer(_funds);\n        stores[_storeId].storeSales -=_funds;\n        emit LogWithdrawFunds(_storeId,_funds);\n    }\n    /* @dev check availability funds\n    * @param _storeId identifier of a store\n      * @param _funds  funds need to be withdraw from store balance\n    */\n    modifier checkAvailFunds(uint _storeId,uint _funds) {\n        require(stores[_storeId].storeSales>=_funds,\"Funds plan to withdraw is more than Store Balance\");\n        _;\n    }\n\n\n       /* @dev check whether buyer has enough funds \n    * @param _storeId identifier of a store\n      * @param _productId identifier of a product\n    * @param quantity product quantity\n    */\n    modifier buyerEnoughFunds(uint storeId,uint productId,uint quantity) \n    { \n        uint totalCost = stores[storeId].products[productId].unitPrice * quantity;\n        require(msg.value >= totalCost,\"\"); \n        _;\n    }\n      /* @dev check product inventory .\n    * @param _storeId identifier of a store\n      * @param _productId identifier of a product\n    * @param quantity product quantity\n    */\n    modifier checkStock(uint storeId,uint productId,uint quantity)\n    {\n        require (stores[storeId].products[productId].totalQuantity>=quantity,\"Out-of-Stock\"); \n        _;\n    }\n\n   /* @dev buy product .\n    * @param _storeId identifier of a store\n      * @param _productId identifier of a product\n    * @param quantity product quantity\n    */\n    function purchaseProduct(uint _storeId,uint _productId,uint _quantity) public\n    checkStock(_storeId,_productId,_quantity) buyerEnoughFunds(_storeId,_productId,_quantity) stopInEmergency()\n     payable\n    {\n        \n        uint totalAmount = stores[_storeId].products[_productId].unitPrice * _quantity;\n        stores[_storeId].storeOwnerAddress.transfer(totalAmount);\n        adjustInventory(_storeId,_productId,_quantity);\n        stores[_storeId].products[_productId].productSales +=totalAmount;\n        stores[_storeId].storeSales +=totalAmount;\n        emit LogProductBought(_storeId,_productId,_quantity);\n    }\n    /* @dev inventory will be reduced .\n    * @param _storeId identifier of a store\n      * @param _productId identifier of a product\n    * @param quantity product quantity\n    */\n    function adjustInventory(uint _storeId,uint _productId,uint _quantity) private\n    {\n        stores[_storeId].products[_productId].totalQuantity -= _quantity;\n        emit LogInventoryAdjustment(_storeId,_productId,_quantity);\n\n    }\n}\n",
  "sourcePath": "/Users/naresh_saladi/final-project-naresh071872/contracts/OnlineMarketPlace.sol",
  "compiler": {
    "name": "solc",
    "version": "0.5.0+commit.1d4f565a.Emscripten.clang"
  },
  "schemaVersion": "3.0.1",
  "updatedAt": "2019-01-26T07:30:50.702Z",
  "devdoc": {
    "methods": {}
  },
  "userdoc": {
    "methods": {
      "changeOwner(address)": {
        "notice": "Make `_newOwner` the new owner of this contract."
      },
      "disown()": {
        "notice": "Erase ownership information. May only be called 6 weeks after the contract has been created."
      }
    }
  }
}