{
  "contractName": "OnlineMarketPlace",
  "abi": [
    {
      "constant": false,
      "inputs": [
        {
          "name": "_newOwner",
          "type": "address"
        }
      ],
      "name": "forceOwnerChange",
      "outputs": [],
      "payable": true,
      "stateMutability": "payable",
      "type": "function",
      "signature": "0x0cb0c7f0"
    },
    {
      "constant": false,
      "inputs": [],
      "name": "disown",
      "outputs": [],
      "payable": false,
      "stateMutability": "nonpayable",
      "type": "function",
      "signature": "0x1e9bf0da"
    },
    {
      "constant": true,
      "inputs": [
        {
          "name": "",
          "type": "address"
        }
      ],
      "name": "adminAddressMap",
      "outputs": [
        {
          "name": "",
          "type": "bool"
        }
      ],
      "payable": false,
      "stateMutability": "view",
      "type": "function",
      "signature": "0x4ffa0ffc"
    },
    {
      "constant": true,
      "inputs": [],
      "name": "stopped",
      "outputs": [
        {
          "name": "",
          "type": "bool"
        }
      ],
      "payable": false,
      "stateMutability": "view",
      "type": "function",
      "signature": "0x75f12b21"
    },
    {
      "constant": true,
      "inputs": [
        {
          "name": "",
          "type": "address"
        }
      ],
      "name": "storeOwnerAddressMap",
      "outputs": [
        {
          "name": "",
          "type": "bool"
        }
      ],
      "payable": false,
      "stateMutability": "view",
      "type": "function",
      "signature": "0x86194785"
    },
    {
      "constant": true,
      "inputs": [],
      "name": "owner",
      "outputs": [
        {
          "name": "",
          "type": "address"
        }
      ],
      "payable": false,
      "stateMutability": "view",
      "type": "function",
      "signature": "0x8da5cb5b"
    },
    {
      "constant": false,
      "inputs": [
        {
          "name": "_newOwner",
          "type": "address"
        }
      ],
      "name": "changeOwner",
      "outputs": [],
      "payable": false,
      "stateMutability": "nonpayable",
      "type": "function",
      "signature": "0xa6f9dae1"
    },
    {
      "constant": true,
      "inputs": [],
      "name": "creationTime",
      "outputs": [
        {
          "name": "",
          "type": "uint256"
        }
      ],
      "payable": false,
      "stateMutability": "view",
      "type": "function",
      "signature": "0xd8270dce"
    },
    {
      "constant": true,
      "inputs": [
        {
          "name": "",
          "type": "uint256"
        }
      ],
      "name": "stores",
      "outputs": [
        {
          "name": "name",
          "type": "string"
        },
        {
          "name": "productsCount",
          "type": "uint256"
        },
        {
          "name": "storeSales",
          "type": "uint256"
        },
        {
          "name": "owner",
          "type": "address"
        }
      ],
      "payable": false,
      "stateMutability": "view",
      "type": "function",
      "signature": "0xe8a59cd8"
    },
    {
      "inputs": [],
      "payable": false,
      "stateMutability": "nonpayable",
      "type": "constructor",
      "signature": "constructor"
    },
    {
      "anonymous": false,
      "inputs": [
        {
          "indexed": false,
          "name": "_owner",
          "type": "address"
        }
      ],
      "name": "LogAdminAdded",
      "type": "event",
      "signature": "0x873b6546df550db4e197c19f621af58777f109107ed897212d3ab52d5a9f2ede"
    },
    {
      "anonymous": false,
      "inputs": [
        {
          "indexed": false,
          "name": "_owner",
          "type": "address"
        }
      ],
      "name": "LogAdminDeleted",
      "type": "event",
      "signature": "0xc248fc73d6760c715e23a360ece4bfa5e4a9c6868fd39343647b174a6ffaf05b"
    },
    {
      "anonymous": false,
      "inputs": [
        {
          "indexed": false,
          "name": "_owner",
          "type": "address"
        }
      ],
      "name": "LogStoreOwnerAdded",
      "type": "event",
      "signature": "0x9b6906422b19475ec1131684c08d1c6dd03361fc4c734e83a6ecd44acf0fc596"
    },
    {
      "anonymous": false,
      "inputs": [
        {
          "indexed": false,
          "name": "_owner",
          "type": "address"
        }
      ],
      "name": "LogStoreOwnerDeleted",
      "type": "event",
      "signature": "0x8ab0f29f24d118975d6c3ca64cb8189d89957d9af42b5ded53f95044e18f8dd5"
    },
    {
      "anonymous": false,
      "inputs": [
        {
          "indexed": false,
          "name": "_storeId",
          "type": "uint256"
        },
        {
          "indexed": false,
          "name": "_name",
          "type": "string"
        }
      ],
      "name": "LogAddStore",
      "type": "event",
      "signature": "0xc07e4372fa365db386646af93f798817e2118ab90167a32543aa1b239c1af919"
    },
    {
      "anonymous": false,
      "inputs": [
        {
          "indexed": false,
          "name": "_storeId",
          "type": "uint256"
        }
      ],
      "name": "LogDeleteStore",
      "type": "event",
      "signature": "0xf10d31d003928030ef97d1080319cb2c0a8f3a8a5802837f4f4c221d37978cd2"
    },
    {
      "anonymous": false,
      "inputs": [
        {
          "indexed": false,
          "name": "_storeId",
          "type": "uint256"
        },
        {
          "indexed": false,
          "name": "_name",
          "type": "string"
        },
        {
          "indexed": false,
          "name": "_unitPrice",
          "type": "uint256"
        },
        {
          "indexed": false,
          "name": "_totalQuantity",
          "type": "uint256"
        }
      ],
      "name": "LogProductAdded",
      "type": "event",
      "signature": "0xb47064f137db457a23f0999063b78d3911cd5604e0eea6e1220725f595d54507"
    },
    {
      "anonymous": false,
      "inputs": [
        {
          "indexed": false,
          "name": "_storeId",
          "type": "uint256"
        },
        {
          "indexed": false,
          "name": "_productId",
          "type": "uint256"
        }
      ],
      "name": "LogProductRemoved",
      "type": "event",
      "signature": "0xdb7332f001cc76680387a27a8d7a9a83a011dd63dd20b347181a806bd91fdc26"
    },
    {
      "anonymous": false,
      "inputs": [
        {
          "indexed": false,
          "name": "_storeId",
          "type": "uint256"
        },
        {
          "indexed": false,
          "name": "_productid",
          "type": "uint256"
        },
        {
          "indexed": false,
          "name": "_unitPrice",
          "type": "uint256"
        }
      ],
      "name": "LogUpdatePrice",
      "type": "event",
      "signature": "0xc889d8b9f4e6f9703b9f96e273c76a18f3cf96d96869a6edc3d768518762301c"
    },
    {
      "anonymous": false,
      "inputs": [
        {
          "indexed": false,
          "name": "_storeId",
          "type": "uint256"
        },
        {
          "indexed": false,
          "name": "_funds",
          "type": "uint256"
        }
      ],
      "name": "LogWithdrawFunds",
      "type": "event",
      "signature": "0xbc2fd4054fad972ecfbb8418a5febbed40808949cc6287e221aefac5ca64c122"
    },
    {
      "anonymous": false,
      "inputs": [
        {
          "indexed": false,
          "name": "_storeId",
          "type": "uint256"
        },
        {
          "indexed": false,
          "name": "_productId",
          "type": "uint256"
        },
        {
          "indexed": false,
          "name": "_quantity",
          "type": "uint256"
        }
      ],
      "name": "LogProductBought",
      "type": "event",
      "signature": "0x0f4498545e96cd1f17366cecee5badbcf6fafe77c7d02a32bcb5d960643862a6"
    },
    {
      "anonymous": false,
      "inputs": [
        {
          "indexed": false,
          "name": "_storeId",
          "type": "uint256"
        },
        {
          "indexed": false,
          "name": "_productId",
          "type": "uint256"
        },
        {
          "indexed": false,
          "name": "_quantity",
          "type": "uint256"
        }
      ],
      "name": "LogInventoryAdjustment",
      "type": "event",
      "signature": "0x078089767dc1d9ed98cd3745934d878a08a477875b7851b78a24aa1d0fc4a102"
    },
    {
      "constant": false,
      "inputs": [
        {
          "name": "_owner",
          "type": "address"
        }
      ],
      "name": "addAdmin",
      "outputs": [],
      "payable": false,
      "stateMutability": "nonpayable",
      "type": "function",
      "signature": "0x70480275"
    },
    {
      "constant": false,
      "inputs": [
        {
          "name": "_owner",
          "type": "address"
        }
      ],
      "name": "deleteAdmin",
      "outputs": [],
      "payable": false,
      "stateMutability": "nonpayable",
      "type": "function",
      "signature": "0x27e1f7df"
    },
    {
      "constant": false,
      "inputs": [
        {
          "name": "_owner",
          "type": "address"
        }
      ],
      "name": "addStoreOwner",
      "outputs": [],
      "payable": false,
      "stateMutability": "nonpayable",
      "type": "function",
      "signature": "0x9adeb5f1"
    },
    {
      "constant": false,
      "inputs": [
        {
          "name": "_owner",
          "type": "address"
        }
      ],
      "name": "deleteStoreOwner",
      "outputs": [],
      "payable": false,
      "stateMutability": "nonpayable",
      "type": "function",
      "signature": "0xdcba65af"
    },
    {
      "constant": false,
      "inputs": [
        {
          "name": "_name",
          "type": "string"
        }
      ],
      "name": "addStore",
      "outputs": [
        {
          "name": "",
          "type": "uint256"
        }
      ],
      "payable": false,
      "stateMutability": "nonpayable",
      "type": "function",
      "signature": "0x662feffc"
    },
    {
      "constant": false,
      "inputs": [
        {
          "name": "_storeId",
          "type": "uint256"
        }
      ],
      "name": "deleteStore",
      "outputs": [
        {
          "name": "",
          "type": "uint256"
        }
      ],
      "payable": false,
      "stateMutability": "nonpayable",
      "type": "function",
      "signature": "0x7cc69325"
    },
    {
      "constant": false,
      "inputs": [
        {
          "name": "_storeId",
          "type": "uint256"
        },
        {
          "name": "_name",
          "type": "string"
        },
        {
          "name": "_unitPrice",
          "type": "uint256"
        },
        {
          "name": "_totalQuantity",
          "type": "uint256"
        }
      ],
      "name": "addProduct",
      "outputs": [
        {
          "name": "",
          "type": "uint256"
        }
      ],
      "payable": false,
      "stateMutability": "nonpayable",
      "type": "function",
      "signature": "0xc27ed2a2"
    },
    {
      "constant": false,
      "inputs": [
        {
          "name": "_storeId",
          "type": "uint256"
        },
        {
          "name": "_productId",
          "type": "uint256"
        }
      ],
      "name": "removeProduct",
      "outputs": [],
      "payable": false,
      "stateMutability": "nonpayable",
      "type": "function",
      "signature": "0x5287d535"
    },
    {
      "constant": false,
      "inputs": [
        {
          "name": "_storeId",
          "type": "uint256"
        },
        {
          "name": "_productId",
          "type": "uint256"
        },
        {
          "name": "_newUnitPrice",
          "type": "uint256"
        }
      ],
      "name": "updatePrice",
      "outputs": [],
      "payable": false,
      "stateMutability": "nonpayable",
      "type": "function",
      "signature": "0x0f436129"
    },
    {
      "constant": false,
      "inputs": [
        {
          "name": "_storeId",
          "type": "uint256"
        },
        {
          "name": "_funds",
          "type": "uint256"
        }
      ],
      "name": "withdrawFunds",
      "outputs": [],
      "payable": true,
      "stateMutability": "payable",
      "type": "function",
      "signature": "0xe5253105"
    },
    {
      "constant": false,
      "inputs": [
        {
          "name": "_storeId",
          "type": "uint256"
        },
        {
          "name": "_productId",
          "type": "uint256"
        },
        {
          "name": "_quantity",
          "type": "uint256"
        }
      ],
      "name": "purchaseProduct",
      "outputs": [],
      "payable": true,
      "stateMutability": "payable",
      "type": "function",
      "signature": "0x02703acf"
    },
    {
      "constant": true,
      "inputs": [],
      "name": "getStoreCount",
      "outputs": [
        {
          "name": "",
          "type": "uint256"
        }
      ],
      "payable": false,
      "stateMutability": "view",
      "type": "function",
      "signature": "0x98e8bd97"
    },
    {
      "constant": true,
      "inputs": [
        {
          "name": "storeId",
          "type": "uint256"
        }
      ],
      "name": "getProductCount",
      "outputs": [
        {
          "name": "",
          "type": "uint256"
        }
      ],
      "payable": false,
      "stateMutability": "view",
      "type": "function",
      "signature": "0xad4891ee"
    },
    {
      "constant": true,
      "inputs": [
        {
          "name": "storeId",
          "type": "uint256"
        },
        {
          "name": "productId",
          "type": "uint256"
        }
      ],
      "name": "getProductPrice",
      "outputs": [
        {
          "name": "",
          "type": "uint256"
        }
      ],
      "payable": false,
      "stateMutability": "view",
      "type": "function",
      "signature": "0x63bb0df5"
    }
  ],
  "bytecode": "0x6080604052336000806101000a81548173ffffffffffffffffffffffffffffffffffffffff021916908373ffffffffffffffffffffffffffffffffffffffff160217905550426001556000600260006101000a81548160ff02191690831515021790555034801561006f57600080fd5b506124988061007f6000396000f3fe608060405260043610610133576000357c0100000000000000000000000000000000000000000000000000000000900463ffffffff16806302703acf146101385780630cb0c7f01461017a5780630f436129146101be5780631e9bf0da1461020d57806327e1f7df146102245780634ffa0ffc146102755780635287d535146102de57806363bb0df514610323578063662feffc1461037c578063704802751461045857806375f12b21146104a95780637cc69325146104d857806386194785146105275780638da5cb5b1461059057806398e8bd97146105e75780639adeb5f114610612578063a6f9dae114610663578063ad4891ee146106b4578063c27ed2a214610703578063d8270dce146107fd578063dcba65af14610828578063e525310514610879578063e8a59cd8146108b1575b600080fd5b6101786004803603606081101561014e57600080fd5b810190808035906020019092919080359060200190929190803590602001909291905050506109a6565b005b6101bc6004803603602081101561019057600080fd5b81019080803573ffffffffffffffffffffffffffffffffffffffff169060200190929190505050610c3c565b005b3480156101ca57600080fd5b5061020b600480360360608110156101e157600080fd5b81019080803590602001909291908035906020019092919080359060200190929190505050610d9d565b005b34801561021957600080fd5b50610222610f03565b005b34801561023057600080fd5b506102736004803603602081101561024757600080fd5b81019080803573ffffffffffffffffffffffffffffffffffffffff169060200190929190505050611070565b005b34801561028157600080fd5b506102c46004803603602081101561029857600080fd5b81019080803573ffffffffffffffffffffffffffffffffffffffff16906020019092919050505061120f565b604051808215151515815260200191505060405180910390f35b3480156102ea57600080fd5b506103216004803603604081101561030157600080fd5b81019080803590602001909291908035906020019092919050505061122f565b005b34801561032f57600080fd5b506103666004803603604081101561034657600080fd5b8101908080359060200190929190803590602001909291905050506113b4565b6040518082815260200191505060405180910390f35b34801561038857600080fd5b506104426004803603602081101561039f57600080fd5b81019080803590602001906401000000008111156103bc57600080fd5b8201836020820111156103ce57600080fd5b803590602001918460018302840111640100000000831117156103f057600080fd5b91908080601f016020809104026020016040519081016040528093929190818152602001838380828437600081840152601f19601f8201169050808301925050505050505091929192905050506113e9565b6040518082815260200191505060405180910390f35b34801561046457600080fd5b506104a76004803603602081101561047b57600080fd5b81019080803573ffffffffffffffffffffffffffffffffffffffff169060200190929190505050611638565b005b3480156104b557600080fd5b506104be6117e0565b604051808215151515815260200191505060405180910390f35b3480156104e457600080fd5b50610511600480360360208110156104fb57600080fd5b81019080803590602001909291905050506117f3565b6040518082815260200191505060405180910390f35b34801561053357600080fd5b506105766004803603602081101561054a57600080fd5b81019080803573ffffffffffffffffffffffffffffffffffffffff169060200190929190505050611965565b604051808215151515815260200191505060405180910390f35b34801561059c57600080fd5b506105a5611985565b604051808273ffffffffffffffffffffffffffffffffffffffff1673ffffffffffffffffffffffffffffffffffffffff16815260200191505060405180910390f35b3480156105f357600080fd5b506105fc6119aa565b6040518082815260200191505060405180910390f35b34801561061e57600080fd5b506106616004803603602081101561063557600080fd5b81019080803573ffffffffffffffffffffffffffffffffffffffff1690602001909291905050506119b4565b005b34801561066f57600080fd5b506106b26004803603602081101561068657600080fd5b81019080803573ffffffffffffffffffffffffffffffffffffffff169060200190929190505050611b59565b005b3480156106c057600080fd5b506106ed600480360360208110156106d757600080fd5b8101908080359060200190929190505050611c62565b6040518082815260200191505060405180910390f35b34801561070f57600080fd5b506107e76004803603608081101561072657600080fd5b81019080803590602001909291908035906020019064010000000081111561074d57600080fd5b82018360208201111561075f57600080fd5b8035906020019184600183028401116401000000008311171561078157600080fd5b91908080601f016020809104026020016040519081016040528093929190818152602001838380828437600081840152601f19601f8201169050808301925050505050505091929192908035906020019092919080359060200190929190505050611c82565b6040518082815260200191505060405180910390f35b34801561080957600080fd5b50610812611ef8565b6040518082815260200191505060405180910390f35b34801561083457600080fd5b506108776004803603602081101561084b57600080fd5b81019080803573ffffffffffffffffffffffffffffffffffffffff169060200190929190505050611efe565b005b6108af6004803603604081101561088f57600080fd5b81019080803590602001909291908035906020019092919050505061209a565b005b3480156108bd57600080fd5b506108ea600480360360208110156108d457600080fd5b8101908080359060200190929190505050612132565b60405180806020018581526020018481526020018373ffffffffffffffffffffffffffffffffffffffff1673ffffffffffffffffffffffffffffffffffffffff168152602001828103825286818151815260200191508051906020019080838360005b8381101561096857808201518184015260208101905061094d565b50505050905090810190601f1680156109955780820380516001836020036101000a031916815260200191505b509550505050505060405180910390f35b828282806005600085815260200190815260200160002060040160008481526020019081526020016000206003015410151515610a4b576040517f08c379a000000000000000000000000000000000000000000000000000000000815260040180806020018281038252600c8152602001807f4f75742d6f662d53746f636b000000000000000000000000000000000000000081525060200191505060405180910390fd5b85858560008160056000868152602001908152602001600020600401600085815260200190815260200160002060020154029050803373ffffffffffffffffffffffffffffffffffffffff163110151515610b34576040517f08c379a00000000000000000000000000000000000000000000000000000000081526004018080602001828103825260228152602001807f427579657220646f65736e2774206861766520656e6f756768742062616c616e81526020017f636500000000000000000000000000000000000000000000000000000000000081525060400191505060405180910390fd5b600260009054906101000a900460ff16151515610b5057600080fd5b600088600560008d815260200190815260200160002060040160008c815260200190815260200160002060020154029050610b8c8b8b8b61221a565b80600560008d815260200190815260200160002060040160008c81526020019081526020016000206004016000828254019250508190555080600560008d8152602001908152602001600020600201600082825401925050819055507f0f4498545e96cd1f17366cecee5badbcf6fafe77c7d02a32bcb5d960643862a68b8b8b60405180848152602001838152602001828152602001935050505060405180910390a15050505050505050505050565b680ad78ebc5ac6200000803410151515610cbe576040517f08c379a000000000000000000000000000000000000000000000000000000000815260040180806020018281038252601a8152602001807f4e6f7420656e6f7567682045746865722070726f76696465642e00000000000081525060200191505060405180910390fd5b816000806101000a81548173ffffffffffffffffffffffffffffffffffffffff021916908373ffffffffffffffffffffffffffffffffffffffff160217905550600160008060009054906101000a900473ffffffffffffffffffffffffffffffffffffffff1673ffffffffffffffffffffffffffffffffffffffff16161415610d4657610d47565b5b80341115610d99573373ffffffffffffffffffffffffffffffffffffffff166108fc8234039081150290604051600060405180830381858888f19350505050158015610d97573d6000803e3d6000fd5b505b5050565b600460003373ffffffffffffffffffffffffffffffffffffffff1673ffffffffffffffffffffffffffffffffffffffff16815260200190815260200160002060009054906101000a900460ff161515610e5e576040517f08c379a000000000000000000000000000000000000000000000000000000000815260040180806020018281038252601f8152602001807f50726f76696465642075736572206973206e6f742073746f72654f776e65720081525060200191505060405180910390fd5b80600560008581526020019081526020016000206004016000848152602001908152602001600020600201819055507fc889d8b9f4e6f9703b9f96e273c76a18f3cf96d96869a6edc3d768518762301c83836005600087815260200190815260200160002060040160008681526020019081526020016000206002015460405180848152602001838152602001828152602001935050505060405180910390a1505050565b6000809054906101000a900473ffffffffffffffffffffffffffffffffffffffff168073ffffffffffffffffffffffffffffffffffffffff163373ffffffffffffffffffffffffffffffffffffffff16141515610fc8576040517f08c379a00000000000000000000000000000000000000000000000000000000081526004018080602001828103825260168152602001807f53656e646572206e6f7420617574686f72697a65642e0000000000000000000081525060200191505060405180910390fd5b62375f0060015401804210151515611048576040517f08c379a000000000000000000000000000000000000000000000000000000000815260040180806020018281038252601a8152602001807f46756e6374696f6e2063616c6c656420746f6f206561726c792e00000000000081525060200191505060405180910390fd5b6000806101000a81549073ffffffffffffffffffffffffffffffffffffffff02191690555050565b3373ffffffffffffffffffffffffffffffffffffffff166000809054906101000a900473ffffffffffffffffffffffffffffffffffffffff1673ffffffffffffffffffffffffffffffffffffffff1614151561115a576040517f08c379a00000000000000000000000000000000000000000000000000000000081526004018080602001828103825260238152602001807f50726f76696465642075736572206973206e6f7420636f6e7472616374206f7781526020017f6e6572000000000000000000000000000000000000000000000000000000000081525060400191505060405180910390fd5b600360008273ffffffffffffffffffffffffffffffffffffffff1673ffffffffffffffffffffffffffffffffffffffff16815260200190815260200160002060006101000a81549060ff02191690557fc248fc73d6760c715e23a360ece4bfa5e4a9c6868fd39343647b174a6ffaf05b81604051808273ffffffffffffffffffffffffffffffffffffffff1673ffffffffffffffffffffffffffffffffffffffff16815260200191505060405180910390a150565b60036020528060005260406000206000915054906101000a900460ff1681565b600460003373ffffffffffffffffffffffffffffffffffffffff1673ffffffffffffffffffffffffffffffffffffffff16815260200190815260200160002060009054906101000a900460ff1615156112f0576040517f08c379a000000000000000000000000000000000000000000000000000000000815260040180806020018281038252601f8152602001807f50726f76696465642075736572206973206e6f742073746f72654f776e65720081525060200191505060405180910390fd5b600560008381526020019081526020016000206001016000815480929190600190039190505550600560008381526020019081526020016000206004016000828152602001908152602001600020600080820160009055600182016000611357919061234f565b60028201600090556003820160009055600482016000905550507fdb7332f001cc76680387a27a8d7a9a83a011dd63dd20b347181a806bd91fdc268282604051808381526020018281526020019250505060405180910390a15050565b600060056000848152602001908152602001600020600401600083815260200190815260200160002060020154905092915050565b6000600460003373ffffffffffffffffffffffffffffffffffffffff1673ffffffffffffffffffffffffffffffffffffffff16815260200190815260200160002060009054906101000a900460ff1615156114ac576040517f08c379a000000000000000000000000000000000000000000000000000000000815260040180806020018281038252601f8152602001807f50726f76696465642075736572206973206e6f742073746f72654f776e65720081525060200191505060405180910390fd5b60066000815480929190600101919050555060806040519081016040528083815260200160008152602001600081526020013373ffffffffffffffffffffffffffffffffffffffff168152506005600060065481526020019081526020016000206000820151816000019080519060200190611529929190612397565b50602082015181600101556040820151816002015560608201518160030160006101000a81548173ffffffffffffffffffffffffffffffffffffffff021916908373ffffffffffffffffffffffffffffffffffffffff1602179055509050507fc07e4372fa365db386646af93f798817e2118ab90167a32543aa1b239c1af919600654836040518083815260200180602001828103825283818151815260200191508051906020019080838360005b838110156115f35780820151818401526020810190506115d8565b50505050905090810190601f1680156116205780820380516001836020036101000a031916815260200191505b50935050505060405180910390a16006549050919050565b3373ffffffffffffffffffffffffffffffffffffffff166000809054906101000a900473ffffffffffffffffffffffffffffffffffffffff1673ffffffffffffffffffffffffffffffffffffffff16141515611722576040517f08c379a00000000000000000000000000000000000000000000000000000000081526004018080602001828103825260238152602001807f50726f76696465642075736572206973206e6f7420636f6e7472616374206f7781526020017f6e6572000000000000000000000000000000000000000000000000000000000081525060400191505060405180910390fd5b6001600360008373ffffffffffffffffffffffffffffffffffffffff1673ffffffffffffffffffffffffffffffffffffffff16815260200190815260200160002060006101000a81548160ff0219169083151502179055507f873b6546df550db4e197c19f621af58777f109107ed897212d3ab52d5a9f2ede81604051808273ffffffffffffffffffffffffffffffffffffffff1673ffffffffffffffffffffffffffffffffffffffff16815260200191505060405180910390a150565b600260009054906101000a900460ff1681565b6000600460003373ffffffffffffffffffffffffffffffffffffffff1673ffffffffffffffffffffffffffffffffffffffff16815260200190815260200160002060009054906101000a900460ff1615156118b6576040517f08c379a000000000000000000000000000000000000000000000000000000000815260040180806020018281038252601f8152602001807f50726f76696465642075736572206973206e6f742073746f72654f776e65720081525060200191505060405180910390fd5b6006600081548092919060019003919050555060056000838152602001908152602001600020600080820160006118ed919061234f565b600182016000905560028201600090556003820160006101000a81549073ffffffffffffffffffffffffffffffffffffffff021916905550507ff10d31d003928030ef97d1080319cb2c0a8f3a8a5802837f4f4c221d37978cd2826040518082815260200191505060405180910390a1819050919050565b60046020528060005260406000206000915054906101000a900460ff1681565b6000809054906101000a900473ffffffffffffffffffffffffffffffffffffffff1681565b6000600654905090565b600360003373ffffffffffffffffffffffffffffffffffffffff1673ffffffffffffffffffffffffffffffffffffffff16815260200190815260200160002060009054906101000a900460ff161515611a9b576040517f08c379a00000000000000000000000000000000000000000000000000000000081526004018080602001828103825260228152602001807f50726f76696465642075736572206973206e6f742061646d696e69737472617481526020017f6f7200000000000000000000000000000000000000000000000000000000000081525060400191505060405180910390fd5b6001600460008373ffffffffffffffffffffffffffffffffffffffff1673ffffffffffffffffffffffffffffffffffffffff16815260200190815260200160002060006101000a81548160ff0219169083151502179055507f9b6906422b19475ec1131684c08d1c6dd03361fc4c734e83a6ecd44acf0fc59681604051808273ffffffffffffffffffffffffffffffffffffffff1673ffffffffffffffffffffffffffffffffffffffff16815260200191505060405180910390a150565b6000809054906101000a900473ffffffffffffffffffffffffffffffffffffffff168073ffffffffffffffffffffffffffffffffffffffff163373ffffffffffffffffffffffffffffffffffffffff16141515611c1e576040517f08c379a00000000000000000000000000000000000000000000000000000000081526004018080602001828103825260168152602001807f53656e646572206e6f7420617574686f72697a65642e0000000000000000000081525060200191505060405180910390fd5b816000806101000a81548173ffffffffffffffffffffffffffffffffffffffff021916908373ffffffffffffffffffffffffffffffffffffffff1602179055505050565b600060056000838152602001908152602001600020600101549050919050565b6000600460003373ffffffffffffffffffffffffffffffffffffffff1673ffffffffffffffffffffffffffffffffffffffff16815260200190815260200160002060009054906101000a900460ff161515611d45576040517f08c379a000000000000000000000000000000000000000000000000000000000815260040180806020018281038252601f8152602001807f50726f76696465642075736572206973206e6f742073746f72654f776e65720081525060200191505060405180910390fd5b60016005600087815260200190815260200160002060010154016005600087815260200190815260200160002060010181905550600060056000878152602001908152602001600020600101549050611d9c612417565b60a0604051908101604052808381526020018781526020018681526020018581526020016000815250905080600560008981526020019081526020016000206004016000848152602001908152602001600020600082015181600001556020820151816001019080519060200190611e15929190612397565b506040820151816002015560608201518160030155608082015181600401559050507fb47064f137db457a23f0999063b78d3911cd5604e0eea6e1220725f595d54507878787876040518085815260200180602001848152602001838152602001828103825285818151815260200191508051906020019080838360005b83811015611eae578082015181840152602081019050611e93565b50505050905090810190601f168015611edb5780820380516001836020036101000a031916815260200191505b509550505050505060405180910390a18192505050949350505050565b60015481565b600360003373ffffffffffffffffffffffffffffffffffffffff1673ffffffffffffffffffffffffffffffffffffffff16815260200190815260200160002060009054906101000a900460ff161515611fe5576040517f08c379a00000000000000000000000000000000000000000000000000000000081526004018080602001828103825260228152602001807f50726f76696465642075736572206973206e6f742061646d696e69737472617481526020017f6f7200000000000000000000000000000000000000000000000000000000000081525060400191505060405180910390fd5b600460008273ffffffffffffffffffffffffffffffffffffffff1673ffffffffffffffffffffffffffffffffffffffff16815260200190815260200160002060006101000a81549060ff02191690557f8ab0f29f24d118975d6c3ca64cb8189d89957d9af42b5ded53f95044e18f8dd581604051808273ffffffffffffffffffffffffffffffffffffffff1673ffffffffffffffffffffffffffffffffffffffff16815260200191505060405180910390a150565b600260009054906101000a900460ff1615156120b557600080fd5b6120d560056000848152602001908152602001600020600201548261229e565b60056000848152602001908152602001600020600201819055507fbc2fd4054fad972ecfbb8418a5febbed40808949cc6287e221aefac5ca64c1228282604051808381526020018281526020019250505060405180910390a15050565b6005602052806000526040600020600091509050806000018054600181600116156101000203166002900480601f0160208091040260200160405190810160405280929190818152602001828054600181600116156101000203166002900480156121de5780601f106121b3576101008083540402835291602001916121de565b820191906000526020600020905b8154815290600101906020018083116121c157829003601f168201915b5050505050908060010154908060020154908060030160009054906101000a900473ffffffffffffffffffffffffffffffffffffffff16905084565b80600560008581526020019081526020016000206004016000848152602001908152602001600020600301600082825403925050819055507f078089767dc1d9ed98cd3745934d878a08a477875b7851b78a24aa1d0fc4a10283838360405180848152602001838152602001828152602001935050505060405180910390a1505050565b600082821115151561233e576040517f08c379a00000000000000000000000000000000000000000000000000000000081526004018080602001828103825260358152602001807f4e6f206974656d73206c65667420696e206172726179202d206e6f206974656d81526020017f73206265696e6720736f6c6420696e2073746f7265000000000000000000000081525060400191505060405180910390fd5b600082840390508091505092915050565b50805460018160011615610100020316600290046000825580601f106123755750612394565b601f0160209004906000526020600020908101906123939190612447565b5b50565b828054600181600116156101000203166002900490600052602060002090601f016020900481019282601f106123d857805160ff1916838001178555612406565b82800160010185558215612406579182015b828111156124055782518255916020019190600101906123ea565b5b5090506124139190612447565b5090565b60a06040519081016040528060008152602001606081526020016000815260200160008152602001600081525090565b61246991905b8082111561246557600081600090555060010161244d565b5090565b9056fea165627a7a72305820fb33af8271f629cea50fdcb27ae7b7ebf60673738d5762af8eae467a3c44c76e0029",
  "source": "pragma solidity ^0.5.0;\nimport \"./AccessRestriction.sol\";\nimport \"./SafeMath.sol\";\n/* @title OnlineMarketPlace\n* @author Naresh Saladi\n* @notice Final Project - Consensys Training\n*/\ncontract OnlineMarketPlace is AccessRestriction {\n \n    bool public stopped = false;\n\n     mapping(address => bool) public adminAddressMap;  \n     mapping(address => bool) public storeOwnerAddressMap;  \n     struct Product{\n        uint productId;\n        string name;\n        uint unitPrice;\n        uint totalQuantity;\n        uint productSales;\n    }\n     struct Store  {\n        string name;\n        uint productsCount;\n        uint storeSales;\n        address payable owner;\n        mapping(uint => Product) products;\n    }\n    \n    mapping(uint => Store) public stores;\n    \n    uint storeCount;\n    uint adminCount;\n    uint storeOwnerCount;\n    \n     //Events\n     event LogAdminAdded(address _owner);\n     event LogAdminDeleted(address _owner);\n      event LogStoreOwnerAdded(address _owner);\n     event LogStoreOwnerDeleted(address _owner);\n     \n     event LogAddStore(uint _storeId,string _name);\n     event LogDeleteStore(uint _storeId);\n   \n     event LogProductAdded(uint _storeId,string _name,uint _unitPrice,uint _totalQuantity);\n     event LogProductRemoved(uint _storeId,uint _productId);\n     event LogUpdatePrice(uint _storeId,uint _productid,uint _unitPrice);\n     event LogWithdrawFunds(uint _storeId,uint _funds);\n     \n     event LogProductBought(uint _storeId,uint _productId,uint _quantity);\n     event LogInventoryAdjustment(uint _storeId,uint _productId,uint _quantity);\n     \n     /* @dev modifier checks owner is contract owner\n    * @param _owner address of next administrator\n    */\n    modifier restrictContractOwner() \n    {\n       \n        require(owner == msg.sender,\"Provided user is not contract owner\");\n        _;\n    }\n    /* @dev adds given ethereum address as administrator\n    * @param _owner address of next administrator\n    */\n     function addAdmin(address _owner) public restrictContractOwner()\n    {\n        adminAddressMap[_owner]=true;\n        emit LogAdminAdded(_owner);\n    }\n    /* @dev removes given ethereum address as administrator\n    * @param _owner address of next administrator\n    */\n     function deleteAdmin(address _owner) public restrictContractOwner()\n    {\n        delete adminAddressMap[_owner];\n        emit LogAdminDeleted(_owner);\n    }\n    /* @dev modifier checks owner is contract owner\n    * @param _owner address of next administrator\n    */\n    modifier restrictAdmin() \n    {\n        require(adminAddressMap[msg.sender],\"Provided user is not administrator\");\n        _;\n    }\n     /* @dev adds given ethereum address as storeowner\n    * @param _owner address of storeowner\n    */\n     function addStoreOwner(address _owner) public restrictAdmin()\n    {\n        storeOwnerAddressMap[_owner]=true;\n        emit LogStoreOwnerAdded(_owner);\n    }\n    /* @dev removes given ethereum address as storeOwner\n    * @param _owner address of store owner\n    */\n     function deleteStoreOwner(address _owner) public restrictAdmin()\n    {\n        delete storeOwnerAddressMap[_owner];\n        emit LogStoreOwnerDeleted(_owner);\n    }\n    /* @dev modifier checks owner is storeowner\n    */\n    modifier restrictStoreOwner() \n    {\n        require(storeOwnerAddressMap[msg.sender],\"Provided user is not storeOwner\");\n        _;\n    }\n    \n\n    modifier stopInEmergency { require(!stopped); _; }\n    modifier onlyInEmergency { require(stopped); _; }\n\n   \n    constructor() public{\n    }\n    \n    /* @dev create a new storefront that will be displayed on the marketplace\n     * @param name store name \n     * @returns storeId id of store\n    */\n    \n    function addStore(string memory _name) public restrictStoreOwner() returns (uint)\n    {\n        storeCount++;\n        stores[storeCount] = Store(_name,0,0,msg.sender);\n        emit LogAddStore(storeCount,_name);\n        return storeCount;\n       \n    }\n    /* @dev delete a store that will be removed from the marketplace\n    * @param _storeId identifier of a store\n    */\n     function deleteStore(uint _storeId) public restrictStoreOwner() returns (uint)\n    {\n        storeCount--;\n        delete stores[_storeId];\n        emit LogDeleteStore(_storeId);\n        return _storeId;\n       \n    }\n \n    /* @dev add a product to a specific store \n    * @param _storeId identifier of a store\n      * @param _name name of product\n       * @param _unitPrice price of product\n        * @param _totalQuantity total inventory of product available\n         \n    */\n    function addProduct(uint _storeId,string memory _name,uint _unitPrice,uint _totalQuantity) public restrictStoreOwner() returns (uint)\n    {\n        stores[_storeId].productsCount= stores[_storeId].productsCount+1;\n        uint productId = stores[_storeId].productsCount;\n        Product memory product = Product(productId,_name,_unitPrice,_totalQuantity,0);\n        stores[_storeId].products[productId] = product;\n        emit LogProductAdded(_storeId,_name,_unitPrice,_totalQuantity);\n        return  productId;\n    }\n      /* @dev remove a product from  a specific store \n    * @param _storeId identifier of a store\n      * @param _productId identifier of a product\n    \n    */\n    function removeProduct(uint _storeId,uint _productId) public restrictStoreOwner() \n    {\n        stores[_storeId].productsCount--;\n        delete stores[_storeId].products[_productId];\n        emit LogProductRemoved(_storeId,_productId);\n    }\n    \n       /* @dev change any of the products prices.\n    * @param _storeId identifier of a store\n      * @param _productId identifier of a product\n    * @param _newUnitPrice new unit price of a product\n    */\n    function updatePrice(uint _storeId,uint _productId,uint _newUnitPrice) public restrictStoreOwner() \n    {\n        stores[_storeId].products[_productId].unitPrice = _newUnitPrice;\n        emit LogUpdatePrice(_storeId,_productId,stores[_storeId].products[_productId].unitPrice);\n    }\n  \n    /* @dev withdraw any funds that the store has collected from sales\n    * @param _storeId identifier of a store\n      * @param _funds  funds need to be withdraw from store balance\n    */\n    function withdrawFunds(uint _storeId,uint _funds) public payable onlyInEmergency() //checkAvailFunds(_storeId,_funds)\n    {\n        \n        stores[_storeId].storeSales = SafeMath.sub(stores[_storeId].storeSales,_funds);\n        emit LogWithdrawFunds(_storeId,_funds);\n    }\n    /* @dev check availability funds\n    * @param _storeId identifier of a store\n      * @param _funds  funds need to be withdraw from store balance\n    */\n    modifier checkAvailFunds(uint _storeId,uint _funds) {\n        require(stores[_storeId].storeSales>=_funds,\"Funds plan to withdraw is more than Store Balance\");\n        _;\n    }\n\n\n       /* @dev check whether buyer has enough funds \n    * @param _storeId identifier of a store\n      * @param _productId identifier of a product\n    * @param quantity product quantity\n    */\n    modifier buyerEnoughFunds(uint storeId,uint productId,uint quantity) \n    { \n        \n        uint totalCost = stores[storeId].products[productId].unitPrice * (quantity);\n        require(msg.sender.balance >= totalCost,\"Buyer doesn't have enought balance\"); \n        _;\n    }\n      /* @dev check product inventory .\n    * @param _storeId identifier of a store\n      * @param _productId identifier of a product\n    * @param quantity product quantity\n    */\n    modifier checkStock(uint storeId,uint productId,uint quantity)\n    {\n        require (stores[storeId].products[productId].totalQuantity>=quantity,\"Out-of-Stock\"); \n        _;\n    }\n\n   /* @dev buy product .\n    * @param _storeId identifier of a store\n      * @param _productId identifier of a product\n    * @param quantity product quantity\n    */\n    function purchaseProduct(uint _storeId,uint _productId,uint _quantity) public\n    checkStock(_storeId,_productId,_quantity) buyerEnoughFunds(_storeId,_productId,_quantity) stopInEmergency()\n     payable\n    {\n        \n        uint totalAmount = stores[_storeId].products[_productId].unitPrice * _quantity;\n       \n        adjustInventory(_storeId,_productId,_quantity);\n        stores[_storeId].products[_productId].productSales +=totalAmount;\n        stores[_storeId].storeSales +=totalAmount;\n        emit LogProductBought(_storeId,_productId,_quantity);\n    }\n    /* @dev inventory will be reduced .\n    * @param _storeId identifier of a store\n      * @param _productId identifier of a product\n    * @param quantity product quantity\n    */\n    function adjustInventory(uint _storeId,uint _productId,uint _quantity) private\n    {\n        stores[_storeId].products[_productId].totalQuantity -= _quantity;\n        emit LogInventoryAdjustment(_storeId,_productId,_quantity);\n\n    }\n    function getStoreCount() external view returns(uint)\n    {\n        return storeCount;\n    }\n    function getProductCount(uint storeId) external view returns(uint)\n    {\n        return stores[storeId].productsCount;\n    }\n    function getProductPrice(uint storeId,uint productId)  public view returns (uint)\n{\n    return stores[storeId].products[productId].unitPrice;\n}   \n}\n",
  "sourcePath": "/home/naresh/final_projects/final-project-naresh071872/contracts/OnlineMarketPlace.sol",
  "compiler": {
    "name": "solc",
    "version": "0.5.0+commit.1d4f565a.Emscripten.clang"
  },
  "schemaVersion": "3.0.1",
  "updatedAt": "2019-01-28T01:24:14.178Z",
  "devdoc": {
    "methods": {}
  },
  "userdoc": {
    "methods": {
      "changeOwner(address)": {
        "notice": "Make `_newOwner` the new owner of this contract."
      },
      "disown()": {
        "notice": "Erase ownership information. May only be called 6 weeks after the contract has been created."
      }
    }
  }
}