{
  "contractName": "OnlineMarketPlace",
  "abi": [
    {
      "constant": true,
      "inputs": [
        {
          "name": "",
          "type": "bytes32"
        },
        {
          "name": "",
          "type": "uint256"
        }
      ],
      "name": "productsByStore",
      "outputs": [
        {
          "name": "",
          "type": "bytes32"
        }
      ],
      "payable": false,
      "stateMutability": "view",
      "type": "function",
      "signature": "0x07508e85"
    },
    {
      "constant": false,
      "inputs": [
        {
          "name": "_newOwner",
          "type": "address"
        }
      ],
      "name": "forceOwnerChange",
      "outputs": [],
      "payable": true,
      "stateMutability": "payable",
      "type": "function",
      "signature": "0x0cb0c7f0"
    },
    {
      "constant": false,
      "inputs": [],
      "name": "disown",
      "outputs": [],
      "payable": false,
      "stateMutability": "nonpayable",
      "type": "function",
      "signature": "0x1e9bf0da"
    },
    {
      "constant": true,
      "inputs": [
        {
          "name": "",
          "type": "bytes32"
        }
      ],
      "name": "stores",
      "outputs": [
        {
          "name": "storeId",
          "type": "bytes32"
        },
        {
          "name": "name",
          "type": "bytes32"
        },
        {
          "name": "owner",
          "type": "address"
        },
        {
          "name": "storeSales",
          "type": "uint256"
        }
      ],
      "payable": false,
      "stateMutability": "view",
      "type": "function",
      "signature": "0x2b4f5948"
    },
    {
      "constant": true,
      "inputs": [
        {
          "name": "",
          "type": "address"
        },
        {
          "name": "",
          "type": "uint256"
        }
      ],
      "name": "storesByOwner",
      "outputs": [
        {
          "name": "",
          "type": "bytes32"
        }
      ],
      "payable": false,
      "stateMutability": "view",
      "type": "function",
      "signature": "0x382b2ce3"
    },
    {
      "constant": true,
      "inputs": [
        {
          "name": "",
          "type": "uint256"
        }
      ],
      "name": "storeOwners",
      "outputs": [
        {
          "name": "",
          "type": "address"
        }
      ],
      "payable": false,
      "stateMutability": "view",
      "type": "function",
      "signature": "0x44d50993"
    },
    {
      "constant": true,
      "inputs": [
        {
          "name": "",
          "type": "address"
        }
      ],
      "name": "adminAddressMap",
      "outputs": [
        {
          "name": "",
          "type": "bool"
        }
      ],
      "payable": false,
      "stateMutability": "view",
      "type": "function",
      "signature": "0x4ffa0ffc"
    },
    {
      "constant": true,
      "inputs": [],
      "name": "stopped",
      "outputs": [
        {
          "name": "",
          "type": "bool"
        }
      ],
      "payable": false,
      "stateMutability": "view",
      "type": "function",
      "signature": "0x75f12b21"
    },
    {
      "constant": true,
      "inputs": [
        {
          "name": "",
          "type": "address"
        }
      ],
      "name": "storeOwnerAddressMap",
      "outputs": [
        {
          "name": "",
          "type": "bool"
        }
      ],
      "payable": false,
      "stateMutability": "view",
      "type": "function",
      "signature": "0x86194785"
    },
    {
      "constant": true,
      "inputs": [],
      "name": "owner",
      "outputs": [
        {
          "name": "",
          "type": "address"
        }
      ],
      "payable": false,
      "stateMutability": "view",
      "type": "function",
      "signature": "0x8da5cb5b"
    },
    {
      "constant": false,
      "inputs": [
        {
          "name": "_newOwner",
          "type": "address"
        }
      ],
      "name": "changeOwner",
      "outputs": [],
      "payable": false,
      "stateMutability": "nonpayable",
      "type": "function",
      "signature": "0xa6f9dae1"
    },
    {
      "constant": true,
      "inputs": [],
      "name": "creationTime",
      "outputs": [
        {
          "name": "",
          "type": "uint256"
        }
      ],
      "payable": false,
      "stateMutability": "view",
      "type": "function",
      "signature": "0xd8270dce"
    },
    {
      "constant": true,
      "inputs": [
        {
          "name": "",
          "type": "uint256"
        }
      ],
      "name": "administrators",
      "outputs": [
        {
          "name": "",
          "type": "address"
        }
      ],
      "payable": false,
      "stateMutability": "view",
      "type": "function",
      "signature": "0xd89d1510"
    },
    {
      "inputs": [],
      "payable": false,
      "stateMutability": "nonpayable",
      "type": "constructor",
      "signature": "constructor"
    },
    {
      "anonymous": false,
      "inputs": [
        {
          "indexed": false,
          "name": "_owner",
          "type": "address"
        }
      ],
      "name": "LogAdminAdded",
      "type": "event",
      "signature": "0x873b6546df550db4e197c19f621af58777f109107ed897212d3ab52d5a9f2ede"
    },
    {
      "anonymous": false,
      "inputs": [
        {
          "indexed": false,
          "name": "_owner",
          "type": "address"
        }
      ],
      "name": "LogAdminDeleted",
      "type": "event",
      "signature": "0xc248fc73d6760c715e23a360ece4bfa5e4a9c6868fd39343647b174a6ffaf05b"
    },
    {
      "anonymous": false,
      "inputs": [
        {
          "indexed": false,
          "name": "_owner",
          "type": "address"
        }
      ],
      "name": "LogStoreOwnerAdded",
      "type": "event",
      "signature": "0x9b6906422b19475ec1131684c08d1c6dd03361fc4c734e83a6ecd44acf0fc596"
    },
    {
      "anonymous": false,
      "inputs": [
        {
          "indexed": false,
          "name": "_owner",
          "type": "address"
        }
      ],
      "name": "LogStoreOwnerDeleted",
      "type": "event",
      "signature": "0x8ab0f29f24d118975d6c3ca64cb8189d89957d9af42b5ded53f95044e18f8dd5"
    },
    {
      "anonymous": false,
      "inputs": [
        {
          "indexed": false,
          "name": "_storeId",
          "type": "bytes32"
        },
        {
          "indexed": false,
          "name": "_name",
          "type": "bytes32"
        }
      ],
      "name": "LogAddStore",
      "type": "event",
      "signature": "0x390862c647918dfe2ef39adb33999bde3835bc7d39a92049a42a555e25111881"
    },
    {
      "anonymous": false,
      "inputs": [
        {
          "indexed": false,
          "name": "_storeId",
          "type": "bytes32"
        }
      ],
      "name": "LogDeleteStore",
      "type": "event",
      "signature": "0x73aad82ec6afb6718115694651c839b07359aaa238a030b2fc609a5880ebf194"
    },
    {
      "anonymous": false,
      "inputs": [
        {
          "indexed": false,
          "name": "_storeId",
          "type": "bytes32"
        },
        {
          "indexed": false,
          "name": "_productId",
          "type": "bytes32"
        },
        {
          "indexed": false,
          "name": "_name",
          "type": "bytes32"
        },
        {
          "indexed": false,
          "name": "_unitPrice",
          "type": "uint256"
        },
        {
          "indexed": false,
          "name": "_totalQuantity",
          "type": "uint256"
        }
      ],
      "name": "LogProductAdded",
      "type": "event",
      "signature": "0x064cd4dd4c25d1af5d1ce717805003fc81aebd569faef44cbf238842c953e4aa"
    },
    {
      "anonymous": false,
      "inputs": [
        {
          "indexed": false,
          "name": "_storeId",
          "type": "bytes32"
        },
        {
          "indexed": false,
          "name": "_productId",
          "type": "bytes32"
        }
      ],
      "name": "LogProductRemoved",
      "type": "event",
      "signature": "0xd835e845a175ef69f312ffaa45f78523ed1cd8735d819f9a5d3051d484802644"
    },
    {
      "anonymous": false,
      "inputs": [
        {
          "indexed": false,
          "name": "_productId",
          "type": "bytes32"
        },
        {
          "indexed": false,
          "name": "_unitPrice",
          "type": "uint256"
        },
        {
          "indexed": false,
          "name": "_oldUnitPrice",
          "type": "uint256"
        }
      ],
      "name": "LogUpdatePrice",
      "type": "event",
      "signature": "0x10dff794aae575c019f9edab71b40a38e6cf26988925a164fcc2b554de4e60e1"
    },
    {
      "anonymous": false,
      "inputs": [
        {
          "indexed": false,
          "name": "_storeId",
          "type": "bytes32"
        },
        {
          "indexed": false,
          "name": "_funds",
          "type": "uint256"
        }
      ],
      "name": "LogWithdrawFunds",
      "type": "event",
      "signature": "0xe6cd5859b124086f68dde97d225a95283c47da748f015aa7bcafe988f843334e"
    },
    {
      "anonymous": false,
      "inputs": [
        {
          "indexed": false,
          "name": "_storeId",
          "type": "bytes32"
        },
        {
          "indexed": false,
          "name": "_productId",
          "type": "bytes32"
        },
        {
          "indexed": false,
          "name": "_quantity",
          "type": "uint256"
        }
      ],
      "name": "LogProductBought",
      "type": "event",
      "signature": "0x018926588ba010ac395f93526bc599383781e67431b552951abc59ea5f5b6e3a"
    },
    {
      "anonymous": false,
      "inputs": [
        {
          "indexed": false,
          "name": "_storeId",
          "type": "bytes32"
        },
        {
          "indexed": false,
          "name": "_productId",
          "type": "bytes32"
        },
        {
          "indexed": false,
          "name": "_quantity",
          "type": "uint256"
        }
      ],
      "name": "LogInventoryAdjustment",
      "type": "event",
      "signature": "0x40e984977bf7e57ce47a333700964890fc7b33f1de85982418a32877297ac8ad"
    },
    {
      "anonymous": false,
      "inputs": [
        {
          "indexed": false,
          "name": "_productId",
          "type": "bytes32"
        },
        {
          "indexed": false,
          "name": "_newQuantity",
          "type": "uint256"
        },
        {
          "indexed": false,
          "name": "oldQty",
          "type": "uint256"
        }
      ],
      "name": "LogProductQtyUpdated",
      "type": "event",
      "signature": "0x7208c1a49a76f379f2037957b1dd8b25a952573d95088c3c25c5245a87568416"
    },
    {
      "constant": false,
      "inputs": [
        {
          "name": "_owner",
          "type": "address"
        }
      ],
      "name": "addAdmin",
      "outputs": [],
      "payable": false,
      "stateMutability": "nonpayable",
      "type": "function",
      "signature": "0x70480275"
    },
    {
      "constant": false,
      "inputs": [
        {
          "name": "_owner",
          "type": "address"
        }
      ],
      "name": "deleteAdmin",
      "outputs": [],
      "payable": false,
      "stateMutability": "nonpayable",
      "type": "function",
      "signature": "0x27e1f7df"
    },
    {
      "constant": true,
      "inputs": [],
      "name": "getAdministrators",
      "outputs": [
        {
          "name": "",
          "type": "address[]"
        }
      ],
      "payable": false,
      "stateMutability": "view",
      "type": "function",
      "signature": "0x543b3693"
    },
    {
      "constant": false,
      "inputs": [
        {
          "name": "_owner",
          "type": "address"
        }
      ],
      "name": "addStoreOwner",
      "outputs": [],
      "payable": false,
      "stateMutability": "nonpayable",
      "type": "function",
      "signature": "0x9adeb5f1"
    },
    {
      "constant": false,
      "inputs": [
        {
          "name": "_owner",
          "type": "address"
        }
      ],
      "name": "deleteStoreOwner",
      "outputs": [],
      "payable": false,
      "stateMutability": "nonpayable",
      "type": "function",
      "signature": "0xdcba65af"
    },
    {
      "constant": true,
      "inputs": [],
      "name": "getStoreOwners",
      "outputs": [
        {
          "name": "",
          "type": "address[]"
        }
      ],
      "payable": false,
      "stateMutability": "view",
      "type": "function",
      "signature": "0x91f4245a"
    },
    {
      "constant": false,
      "inputs": [
        {
          "name": "_name",
          "type": "bytes32"
        }
      ],
      "name": "addStore",
      "outputs": [
        {
          "name": "",
          "type": "bytes32"
        }
      ],
      "payable": false,
      "stateMutability": "nonpayable",
      "type": "function",
      "signature": "0x9a20400c"
    },
    {
      "constant": false,
      "inputs": [
        {
          "name": "_storeId",
          "type": "bytes32"
        }
      ],
      "name": "deleteStore",
      "outputs": [
        {
          "name": "",
          "type": "bytes32"
        }
      ],
      "payable": false,
      "stateMutability": "nonpayable",
      "type": "function",
      "signature": "0x24ad4256"
    },
    {
      "constant": true,
      "inputs": [
        {
          "name": "storeOwner",
          "type": "address"
        }
      ],
      "name": "findStoresByOwner",
      "outputs": [
        {
          "name": "",
          "type": "bytes32[]"
        },
        {
          "name": "",
          "type": "bytes32[]"
        },
        {
          "name": "",
          "type": "uint256[]"
        }
      ],
      "payable": false,
      "stateMutability": "view",
      "type": "function",
      "signature": "0x25206abb"
    },
    {
      "constant": false,
      "inputs": [
        {
          "name": "_storeId",
          "type": "bytes32"
        },
        {
          "name": "_funds",
          "type": "uint256"
        }
      ],
      "name": "withdrawFunds",
      "outputs": [],
      "payable": true,
      "stateMutability": "payable",
      "type": "function",
      "signature": "0xef68de49"
    },
    {
      "constant": true,
      "inputs": [],
      "name": "findStores",
      "outputs": [
        {
          "name": "",
          "type": "bytes32[]"
        },
        {
          "name": "",
          "type": "bytes32[]"
        },
        {
          "name": "",
          "type": "address[]"
        }
      ],
      "payable": false,
      "stateMutability": "view",
      "type": "function",
      "signature": "0xef53e0ca"
    },
    {
      "constant": false,
      "inputs": [
        {
          "name": "_storeId",
          "type": "bytes32"
        },
        {
          "name": "_name",
          "type": "bytes32"
        },
        {
          "name": "_unitPrice",
          "type": "uint256"
        },
        {
          "name": "_totalQuantity",
          "type": "uint256"
        }
      ],
      "name": "addProduct",
      "outputs": [
        {
          "name": "",
          "type": "bytes32"
        }
      ],
      "payable": false,
      "stateMutability": "nonpayable",
      "type": "function",
      "signature": "0x23213f1d"
    },
    {
      "constant": false,
      "inputs": [
        {
          "name": "_storeId",
          "type": "bytes32"
        },
        {
          "name": "_productId",
          "type": "bytes32"
        }
      ],
      "name": "removeProduct",
      "outputs": [],
      "payable": false,
      "stateMutability": "nonpayable",
      "type": "function",
      "signature": "0x59f0dc5a"
    },
    {
      "constant": false,
      "inputs": [
        {
          "name": "_productId",
          "type": "bytes32"
        },
        {
          "name": "_newUnitPrice",
          "type": "uint256"
        }
      ],
      "name": "updatePrice",
      "outputs": [
        {
          "name": "",
          "type": "bytes32"
        }
      ],
      "payable": false,
      "stateMutability": "nonpayable",
      "type": "function",
      "signature": "0x5f704f3e"
    },
    {
      "constant": false,
      "inputs": [
        {
          "name": "_productId",
          "type": "bytes32"
        },
        {
          "name": "_newQuantity",
          "type": "uint256"
        }
      ],
      "name": "updateItemQuantity",
      "outputs": [
        {
          "name": "",
          "type": "bytes32"
        }
      ],
      "payable": false,
      "stateMutability": "nonpayable",
      "type": "function",
      "signature": "0xc0c5e925"
    },
    {
      "constant": false,
      "inputs": [
        {
          "name": "_storeId",
          "type": "bytes32"
        },
        {
          "name": "_productId",
          "type": "bytes32"
        },
        {
          "name": "_quantity",
          "type": "uint256"
        }
      ],
      "name": "purchaseProduct",
      "outputs": [
        {
          "name": "",
          "type": "bool"
        }
      ],
      "payable": true,
      "stateMutability": "payable",
      "type": "function",
      "signature": "0x21ae6b4c"
    },
    {
      "constant": true,
      "inputs": [
        {
          "name": "_storeId",
          "type": "bytes32"
        }
      ],
      "name": "productCatalog",
      "outputs": [
        {
          "name": "",
          "type": "bytes32[]"
        },
        {
          "name": "",
          "type": "bytes32[]"
        },
        {
          "name": "",
          "type": "uint256[]"
        },
        {
          "name": "",
          "type": "uint256[]"
        }
      ],
      "payable": false,
      "stateMutability": "view",
      "type": "function",
      "signature": "0x37245b74"
    },
    {
      "constant": true,
      "inputs": [],
      "name": "getStoreCount",
      "outputs": [
        {
          "name": "",
          "type": "uint256"
        }
      ],
      "payable": false,
      "stateMutability": "view",
      "type": "function",
      "signature": "0x98e8bd97"
    },
    {
      "constant": true,
      "inputs": [
        {
          "name": "_storeId",
          "type": "bytes32"
        }
      ],
      "name": "getProductCount",
      "outputs": [
        {
          "name": "",
          "type": "uint256"
        }
      ],
      "payable": false,
      "stateMutability": "view",
      "type": "function",
      "signature": "0x43cadb07"
    },
    {
      "constant": true,
      "inputs": [
        {
          "name": "_productId",
          "type": "bytes32"
        }
      ],
      "name": "getProductPrice",
      "outputs": [
        {
          "name": "",
          "type": "uint256"
        }
      ],
      "payable": false,
      "stateMutability": "view",
      "type": "function",
      "signature": "0x91c57e73"
    }
  ],
  "bytecode": "0x6080604052336000806101000a81548173ffffffffffffffffffffffffffffffffffffffff021916908373ffffffffffffffffffffffffffffffffffffffff160217905550426001556000600260006101000a81548160ff02191690831515021790555034801561006f57600080fd5b506001600560003373ffffffffffffffffffffffffffffffffffffffff1673ffffffffffffffffffffffffffffffffffffffff16815260200190815260200160002060006101000a81548160ff02191690831515021790555060033390806001815401808255809150509060018203906000526020600020016000909192909190916101000a81548173ffffffffffffffffffffffffffffffffffffffff021916908373ffffffffffffffffffffffffffffffffffffffff16021790555050613ecc8061013d6000396000f3fe6080604052600436106101a1576000357c0100000000000000000000000000000000000000000000000000000000900463ffffffff16806307508e85146101a65780630cb0c7f0146101ff5780631e9bf0da1461024357806321ae6b4c1461025a57806323213f1d146102b457806324ad42561461032157806325206abb1461037057806327e1f7df146104a65780632b4f5948146104f757806337245b7414610587578063382b2ce3146106ef57806343cadb071461075e57806344d50993146107ad5780634ffa0ffc14610828578063543b36931461089157806359f0dc5a146108fd5780635f704f3e14610942578063704802751461099b57806375f12b21146109ec5780638619478514610a1b5780638da5cb5b14610a8457806391c57e7314610adb57806391f4245a14610b2a57806398e8bd9714610b965780639a20400c14610bc15780639adeb5f114610c10578063a6f9dae114610c61578063c0c5e92514610cb2578063d8270dce14610d0b578063d89d151014610d36578063dcba65af14610db1578063ef53e0ca14610e02578063ef68de4914610efe575b600080fd5b3480156101b257600080fd5b506101e9600480360360408110156101c957600080fd5b810190808035906020019092919080359060200190929190505050610f36565b6040518082815260200191505060405180910390f35b6102416004803603602081101561021557600080fd5b81019080803573ffffffffffffffffffffffffffffffffffffffff169060200190929190505050610f66565b005b34801561024f57600080fd5b506102586110c7565b005b61029a6004803603606081101561027057600080fd5b81019080803590602001909291908035906020019092919080359060200190929190505050611234565b604051808215151515815260200191505060405180910390f35b3480156102c057600080fd5b5061030b600480360360808110156102d757600080fd5b8101908080359060200190929190803590602001909291908035906020019092919080359060200190929190505050611507565b6040518082815260200191505060405180910390f35b34801561032d57600080fd5b5061035a6004803603602081101561034457600080fd5b810190808035906020019092919050505061175d565b6040518082815260200191505060405180910390f35b34801561037c57600080fd5b506103bf6004803603602081101561039357600080fd5b81019080803573ffffffffffffffffffffffffffffffffffffffff169060200190929190505050611d04565b60405180806020018060200180602001848103845287818151815260200191508051906020019060200280838360005b8381101561040a5780820151818401526020810190506103ef565b50505050905001848103835286818151815260200191508051906020019060200280838360005b8381101561044c578082015181840152602081019050610431565b50505050905001848103825285818151815260200191508051906020019060200280838360005b8381101561048e578082015181840152602081019050610473565b50505050905001965050505050505060405180910390f35b3480156104b257600080fd5b506104f5600480360360208110156104c957600080fd5b81019080803573ffffffffffffffffffffffffffffffffffffffff169060200190929190505050611f11565b005b34801561050357600080fd5b506105306004803603602081101561051a57600080fd5b810190808035906020019092919050505061223b565b604051808581526020018481526020018373ffffffffffffffffffffffffffffffffffffffff1673ffffffffffffffffffffffffffffffffffffffff16815260200182815260200194505050505060405180910390f35b34801561059357600080fd5b506105c0600480360360208110156105aa57600080fd5b810190808035906020019092919050505061228b565b6040518080602001806020018060200180602001858103855289818151815260200191508051906020019060200280838360005b8381101561060f5780820151818401526020810190506105f4565b50505050905001858103845288818151815260200191508051906020019060200280838360005b83811015610651578082015181840152602081019050610636565b50505050905001858103835287818151815260200191508051906020019060200280838360005b83811015610693578082015181840152602081019050610678565b50505050905001858103825286818151815260200191508051906020019060200280838360005b838110156106d55780820151818401526020810190506106ba565b505050509050019850505050505050505060405180910390f35b3480156106fb57600080fd5b506107486004803603604081101561071257600080fd5b81019080803573ffffffffffffffffffffffffffffffffffffffff1690602001909291908035906020019092919050505061252a565b6040518082815260200191505060405180910390f35b34801561076a57600080fd5b506107976004803603602081101561078157600080fd5b810190808035906020019092919050505061255a565b6040518082815260200191505060405180910390f35b3480156107b957600080fd5b506107e6600480360360208110156107d057600080fd5b810190808035906020019092919050505061257a565b604051808273ffffffffffffffffffffffffffffffffffffffff1673ffffffffffffffffffffffffffffffffffffffff16815260200191505060405180910390f35b34801561083457600080fd5b506108776004803603602081101561084b57600080fd5b81019080803573ffffffffffffffffffffffffffffffffffffffff1690602001909291905050506125b8565b604051808215151515815260200191505060405180910390f35b34801561089d57600080fd5b506108a66125d8565b6040518080602001828103825283818151815260200191508051906020019060200280838360005b838110156108e95780820151818401526020810190506108ce565b505050509050019250505060405180910390f35b34801561090957600080fd5b506109406004803603604081101561092057600080fd5b8101908080359060200190929190803590602001909291905050506126c0565b005b34801561094e57600080fd5b506109856004803603604081101561096557600080fd5b810190808035906020019092919080359060200190929190505050612925565b6040518082815260200191505060405180910390f35b3480156109a757600080fd5b506109ea600480360360208110156109be57600080fd5b81019080803573ffffffffffffffffffffffffffffffffffffffff169060200190929190505050612a6f565b005b3480156109f857600080fd5b50610a01612c7d565b604051808215151515815260200191505060405180910390f35b348015610a2757600080fd5b50610a6a60048036036020811015610a3e57600080fd5b81019080803573ffffffffffffffffffffffffffffffffffffffff169060200190929190505050612c90565b604051808215151515815260200191505060405180910390f35b348015610a9057600080fd5b50610a99612cb0565b604051808273ffffffffffffffffffffffffffffffffffffffff1673ffffffffffffffffffffffffffffffffffffffff16815260200191505060405180910390f35b348015610ae757600080fd5b50610b1460048036036020811015610afe57600080fd5b8101908080359060200190929190505050612cd5565b6040518082815260200191505060405180910390f35b348015610b3657600080fd5b50610b3f612cf5565b6040518080602001828103825283818151815260200191508051906020019060200280838360005b83811015610b82578082015181840152602081019050610b67565b505050509050019250505060405180910390f35b348015610ba257600080fd5b50610bab612ddd565b6040518082815260200191505060405180910390f35b348015610bcd57600080fd5b50610bfa60048036036020811015610be457600080fd5b8101908080359060200190929190505050612dea565b6040518082815260200191505060405180910390f35b348015610c1c57600080fd5b50610c5f60048036036020811015610c3357600080fd5b81019080803573ffffffffffffffffffffffffffffffffffffffff1690602001909291905050506130c0565b005b348015610c6d57600080fd5b50610cb060048036036020811015610c8457600080fd5b81019080803573ffffffffffffffffffffffffffffffffffffffff1690602001909291905050506132cb565b005b348015610cbe57600080fd5b50610cf560048036036040811015610cd557600080fd5b8101908080359060200190929190803590602001909291905050506133d4565b6040518082815260200191505060405180910390f35b348015610d1757600080fd5b50610d2061351e565b6040518082815260200191505060405180910390f35b348015610d4257600080fd5b50610d6f60048036036020811015610d5957600080fd5b8101908080359060200190929190505050613524565b604051808273ffffffffffffffffffffffffffffffffffffffff1673ffffffffffffffffffffffffffffffffffffffff16815260200191505060405180910390f35b348015610dbd57600080fd5b50610e0060048036036020811015610dd457600080fd5b81019080803573ffffffffffffffffffffffffffffffffffffffff169060200190929190505050613562565b005b348015610e0e57600080fd5b50610e17613889565b60405180806020018060200180602001848103845287818151815260200191508051906020019060200280838360005b83811015610e62578082015181840152602081019050610e47565b50505050905001848103835286818151815260200191508051906020019060200280838360005b83811015610ea4578082015181840152602081019050610e89565b50505050905001848103825285818151815260200191508051906020019060200280838360005b83811015610ee6578082015181840152602081019050610ecb565b50505050905001965050505050505060405180910390f35b610f3460048036036040811015610f1457600080fd5b810190808035906020019092919080359060200190929190505050613a94565b005b600860205281600052604060002081815481101515610f5157fe5b90600052602060002001600091509150505481565b680ad78ebc5ac6200000803410151515610fe8576040517f08c379a000000000000000000000000000000000000000000000000000000000815260040180806020018281038252601a8152602001807f4e6f7420656e6f7567682045746865722070726f76696465642e00000000000081525060200191505060405180910390fd5b816000806101000a81548173ffffffffffffffffffffffffffffffffffffffff021916908373ffffffffffffffffffffffffffffffffffffffff160217905550600160008060009054906101000a900473ffffffffffffffffffffffffffffffffffffffff1673ffffffffffffffffffffffffffffffffffffffff1616141561107057611071565b5b803411156110c3573373ffffffffffffffffffffffffffffffffffffffff166108fc8234039081150290604051600060405180830381858888f193505050501580156110c1573d6000803e3d6000fd5b505b5050565b6000809054906101000a900473ffffffffffffffffffffffffffffffffffffffff168073ffffffffffffffffffffffffffffffffffffffff163373ffffffffffffffffffffffffffffffffffffffff1614151561118c576040517f08c379a00000000000000000000000000000000000000000000000000000000081526004018080602001828103825260168152602001807f53656e646572206e6f7420617574686f72697a65642e0000000000000000000081525060200191505060405180910390fd5b62375f006001540180421015151561120c576040517f08c379a000000000000000000000000000000000000000000000000000000000815260040180806020018281038252601a8152602001807f46756e6374696f6e2063616c6c656420746f6f206561726c792e00000000000081525060200191505060405180910390fd5b6000806101000a81549073ffffffffffffffffffffffffffffffffffffffff02191690555050565b600083838380600a600084815260200190815260200160002060030154101515156112c7576040517f08c379a000000000000000000000000000000000000000000000000000000000815260040180806020018281038252600c8152602001807f4f75742d6f662d53746f636b000000000000000000000000000000000000000081525060200191505060405180910390fd5b868686600081600a600085815260200190815260200160002060020154029050803373ffffffffffffffffffffffffffffffffffffffff16311015151561139c576040517f08c379a00000000000000000000000000000000000000000000000000000000081526004018080602001828103825260228152602001807f427579657220646f65736e2774206861766520656e6f756768742062616c616e81526020017f636500000000000000000000000000000000000000000000000000000000000081525060400191505060405180910390fd5b600260009054906101000a900460ff161515156113b857600080fd5b600089600a60008d8152602001908152602001600020600201540290508034111561142e573373ffffffffffffffffffffffffffffffffffffffff166108fc6114013484613b55565b9081150290604051600060405180830381858888f1935050505015801561142c573d6000803e3d6000fd5b505b6114398c8c8c613c06565b611459600a60008d81526020019081526020016000206004015482613c8c565b600a60008d815260200190815260200160002060040181905550611493600960008e81526020019081526020016000206003015482613c8c565b600960008e8152602001908152602001600020600301819055507f018926588ba010ac395f93526bc599383781e67431b552951abc59ea5f5b6e3a8c8c8c60405180848152602001838152602001828152602001935050505060405180910390a16001985050505050505050509392505050565b6000600660003373ffffffffffffffffffffffffffffffffffffffff1673ffffffffffffffffffffffffffffffffffffffff16815260200190815260200160002060009054906101000a900460ff1615156115ca576040517f08c379a000000000000000000000000000000000000000000000000000000000815260040180806020018281038252601f8152602001807f50726f76696465642075736572206973206e6f742073746f72654f776e65720081525060200191505060405180910390fd5b6000338542604051602001808473ffffffffffffffffffffffffffffffffffffffff1673ffffffffffffffffffffffffffffffffffffffff166c010000000000000000000000000281526014018381526020018281526020019350505050604051602081830303815290604052805190602001209050611648613d62565b60a0604051908101604052808381526020018781526020018681526020018581526020016000815250905080600a60008481526020019081526020016000206000820151816000015560208201518160010155604082015181600201556060820151816003015560808201518160040155905050600860008881526020019081526020016000208290806001815401808255809150509060018203906000526020600020016000909192909190915055507f064cd4dd4c25d1af5d1ce717805003fc81aebd569faef44cbf238842c953e4aa8783888888604051808681526020018581526020018481526020018381526020018281526020019550505050505060405180910390a18192505050949350505050565b6000600660003373ffffffffffffffffffffffffffffffffffffffff1673ffffffffffffffffffffffffffffffffffffffff16815260200190815260200160002060009054906101000a900460ff161515611820576040517f08c379a000000000000000000000000000000000000000000000000000000000815260040180806020018281038252601f8152602001807f50726f76696465642075736572206973206e6f742073746f72654f776e65720081525060200191505060405180910390fd5b60008090505b60086000848152602001908152602001600020805490508110156118bf576000600860008581526020019081526020016000208281548110151561186657fe5b90600052602060002001549050600a600082815260200190815260200160002060008082016000905560018201600090556002820160009055600382016000905560048201600090555050508080600101915050611826565b506008600083815260200190815260200160002060006118df9190613d98565b6000600b60003373ffffffffffffffffffffffffffffffffffffffff1673ffffffffffffffffffffffffffffffffffffffff16815260200190815260200160002080549050905060008090505b81811015611b085783600b60003373ffffffffffffffffffffffffffffffffffffffff1673ffffffffffffffffffffffffffffffffffffffff1681526020019081526020016000208281548110151561198157fe5b90600052602060002001541415611afb57600b60003373ffffffffffffffffffffffffffffffffffffffff1673ffffffffffffffffffffffffffffffffffffffff168152602001908152602001600020600183038154811015156119e157fe5b9060005260206000200154600b60003373ffffffffffffffffffffffffffffffffffffffff1673ffffffffffffffffffffffffffffffffffffffff16815260200190815260200160002082815481101515611a3857fe5b9060005260206000200181905550600b60003373ffffffffffffffffffffffffffffffffffffffff1673ffffffffffffffffffffffffffffffffffffffff16815260200190815260200160002060018303815481101515611a9557fe5b9060005260206000200160009055600b60003373ffffffffffffffffffffffffffffffffffffffff1673ffffffffffffffffffffffffffffffffffffffff168152602001908152602001600020805480919060019003611af59190613db9565b50611b08565b808060010191505061192c565b50600780549050905060008090505b81811015611bc25783600782815481101515611b2f57fe5b90600052602060002001541415611bb557600760018303815481101515611b5257fe5b9060005260206000200154600782815481101515611b6c57fe5b9060005260206000200181905550600760018303815481101515611b8c57fe5b90600052602060002001600090556007805480919060019003611baf9190613db9565b50611bc2565b8080600101915050611b17565b506000600960008581526020019081526020016000206003015490506000811115611c6e573373ffffffffffffffffffffffffffffffffffffffff166108fc829081150290604051600060405180830381858888f19350505050158015611c2d573d6000803e3d6000fd5b507fe6cd5859b124086f68dde97d225a95283c47da748f015aa7bcafe988f843334e8482604051808381526020018281526020019250505060405180910390a15b6009600085815260200190815260200160002060008082016000905560018201600090556002820160006101000a81549073ffffffffffffffffffffffffffffffffffffffff0219169055600382016000905550507f73aad82ec6afb6718115694651c839b07359aaa238a030b2fc609a5880ebf194846040518082815260200191505060405180910390a18392505050919050565b60608060606000600b60008673ffffffffffffffffffffffffffffffffffffffff1673ffffffffffffffffffffffffffffffffffffffff168152602001908152602001600020805490509050606081604051908082528060200260200182016040528015611d815781602001602082028038833980820191505090505b509050606082604051908082528060200260200182016040528015611db55781602001602082028038833980820191505090505b509050606083604051908082528060200260200182016040528015611de95781602001602082028038833980820191505090505b50905060008090505b84811015611efc576000600b60008b73ffffffffffffffffffffffffffffffffffffffff1673ffffffffffffffffffffffffffffffffffffffff16815260200190815260200160002082815481101515611e4857fe5b9060005260206000200154905060096000828152602001908152602001600020600001548583815181101515611e7a57fe5b906020019060200201818152505060096000828152602001908152602001600020600101548483815181101515611ead57fe5b906020019060200201818152505060096000828152602001908152602001600020600301548383815181101515611ee057fe5b9060200190602002018181525050508080600101915050611df2565b50828282965096509650505050509193909250565b3373ffffffffffffffffffffffffffffffffffffffff166000809054906101000a900473ffffffffffffffffffffffffffffffffffffffff1673ffffffffffffffffffffffffffffffffffffffff16141515611ffb576040517f08c379a00000000000000000000000000000000000000000000000000000000081526004018080602001828103825260238152602001807f50726f76696465642075736572206973206e6f7420636f6e7472616374206f7781526020017f6e6572000000000000000000000000000000000000000000000000000000000081525060400191505060405180910390fd5b6000600560008373ffffffffffffffffffffffffffffffffffffffff1673ffffffffffffffffffffffffffffffffffffffff16815260200190815260200160002060006101000a81548160ff0219169083151502179055506000600380549050905060008090505b818110156121d3578273ffffffffffffffffffffffffffffffffffffffff1660038281548110151561209157fe5b9060005260206000200160009054906101000a900473ffffffffffffffffffffffffffffffffffffffff1673ffffffffffffffffffffffffffffffffffffffff1614156121c6576003600183038154811015156120ea57fe5b9060005260206000200160009054906101000a900473ffffffffffffffffffffffffffffffffffffffff1660038281548110151561212457fe5b9060005260206000200160006101000a81548173ffffffffffffffffffffffffffffffffffffffff021916908373ffffffffffffffffffffffffffffffffffffffff16021790555060036001830381548110151561217e57fe5b9060005260206000200160006101000a81549073ffffffffffffffffffffffffffffffffffffffff021916905560038054809190600190036121c09190613de5565b506121d3565b8080600101915050612063565b507fc248fc73d6760c715e23a360ece4bfa5e4a9c6868fd39343647b174a6ffaf05b82604051808273ffffffffffffffffffffffffffffffffffffffff1673ffffffffffffffffffffffffffffffffffffffff16815260200191505060405180910390a15050565b60096020528060005260406000206000915090508060000154908060010154908060020160009054906101000a900473ffffffffffffffffffffffffffffffffffffffff16908060030154905084565b6060806060806060600860008781526020019081526020016000208054806020026020016040519081016040528092919081815260200182805480156122f057602002820191906000526020600020905b8154815260200190600101908083116122dc575b5050505050905060008151905060608160405190808252806020026020018201604052801561232e5781602001602082028038833980820191505090505b5090506060826040519080825280602002602001820160405280156123625781602001602082028038833980820191505090505b5090506060836040519080825280602002602001820160405280156123965781602001602082028038833980820191505090505b5090506060846040519080825280602002602001820160405280156123ca5781602001602082028038833980820191505090505b50905060008090505b8581101561251057600a600088838151811015156123ed57fe5b90602001906020020151815260200190815260200160002060000154858281518110151561241757fe5b9060200190602002018181525050600a6000888381518110151561243757fe5b90602001906020020151815260200190815260200160002060010154848281518110151561246157fe5b9060200190602002018181525050600a6000888381518110151561248157fe5b9060200190602002015181526020019081526020016000206003015483828151811015156124ab57fe5b9060200190602002018181525050600a600088838151811015156124cb57fe5b9060200190602002015181526020019081526020016000206002015482828151811015156124f557fe5b906020019060200201818152505080806001019150506123d3565b508383838399509950995099505050505050509193509193565b600b6020528160005260406000208181548110151561254557fe5b90600052602060002001600091509150505481565b600060086000838152602001908152602001600020805490509050919050565b60048181548110151561258957fe5b906000526020600020016000915054906101000a900473ffffffffffffffffffffffffffffffffffffffff1681565b60056020528060005260406000206000915054906101000a900460ff1681565b6060600060038054905090506060816040519080825280602002602001820160405280156126155781602001602082028038833980820191505090505b50905060008090505b828110156126b75760038181548110151561263557fe5b9060005260206000200160009054906101000a900473ffffffffffffffffffffffffffffffffffffffff16828281518110151561266e57fe5b9060200190602002019073ffffffffffffffffffffffffffffffffffffffff16908173ffffffffffffffffffffffffffffffffffffffff1681525050808060010191505061261e565b50809250505090565b600660003373ffffffffffffffffffffffffffffffffffffffff1673ffffffffffffffffffffffffffffffffffffffff16815260200190815260200160002060009054906101000a900460ff161515612781576040517f08c379a000000000000000000000000000000000000000000000000000000000815260040180806020018281038252601f8152602001807f50726f76696465642075736572206973206e6f742073746f72654f776e65720081525060200191505060405180910390fd5b60006008600084815260200190815260200160002080549050905060008090505b818110156128a2578260086000868152602001908152602001600020828154811015156127cb57fe5b906000526020600020015414156128955760086000858152602001908152602001600020600183038154811015156127ff57fe5b9060005260206000200154600860008681526020019081526020016000208281548110151561282a57fe5b9060005260206000200181905550600860008581526020019081526020016000206001830381548110151561285b57fe5b90600052602060002001600090556008600085815260200190815260200160002080548091906001900361288f9190613db9565b506128a2565b80806001019150506127a2565b50600a6000838152602001908152602001600020600080820160009055600182016000905560028201600090556003820160009055600482016000905550507fd835e845a175ef69f312ffaa45f78523ed1cd8735d819f9a5d3051d4848026448383604051808381526020018281526020019250505060405180910390a1505050565b6000600660003373ffffffffffffffffffffffffffffffffffffffff1673ffffffffffffffffffffffffffffffffffffffff16815260200190815260200160002060009054906101000a900460ff1615156129e8576040517f08c379a000000000000000000000000000000000000000000000000000000000815260040180806020018281038252601f8152602001807f50726f76696465642075736572206973206e6f742073746f72654f776e65720081525060200191505060405180910390fd5b6000600a600085815260200190815260200160002060020154905082600a6000868152602001908152602001600020600201819055507f10dff794aae575c019f9edab71b40a38e6cf26988925a164fcc2b554de4e60e184848360405180848152602001838152602001828152602001935050505060405180910390a18391505092915050565b3373ffffffffffffffffffffffffffffffffffffffff166000809054906101000a900473ffffffffffffffffffffffffffffffffffffffff1673ffffffffffffffffffffffffffffffffffffffff16141515612b59576040517f08c379a00000000000000000000000000000000000000000000000000000000081526004018080602001828103825260238152602001807f50726f76696465642075736572206973206e6f7420636f6e7472616374206f7781526020017f6e6572000000000000000000000000000000000000000000000000000000000081525060400191505060405180910390fd5b6001600560008373ffffffffffffffffffffffffffffffffffffffff1673ffffffffffffffffffffffffffffffffffffffff16815260200190815260200160002060006101000a81548160ff02191690831515021790555060038190806001815401808255809150509060018203906000526020600020016000909192909190916101000a81548173ffffffffffffffffffffffffffffffffffffffff021916908373ffffffffffffffffffffffffffffffffffffffff160217905550507f873b6546df550db4e197c19f621af58777f109107ed897212d3ab52d5a9f2ede81604051808273ffffffffffffffffffffffffffffffffffffffff1673ffffffffffffffffffffffffffffffffffffffff16815260200191505060405180910390a150565b600260009054906101000a900460ff1681565b60066020528060005260406000206000915054906101000a900460ff1681565b6000809054906101000a900473ffffffffffffffffffffffffffffffffffffffff1681565b6000600a6000838152602001908152602001600020600201549050919050565b606060006004805490509050606081604051908082528060200260200182016040528015612d325781602001602082028038833980820191505090505b50905060008090505b82811015612dd457600481815481101515612d5257fe5b9060005260206000200160009054906101000a900473ffffffffffffffffffffffffffffffffffffffff168282815181101515612d8b57fe5b9060200190602002019073ffffffffffffffffffffffffffffffffffffffff16908173ffffffffffffffffffffffffffffffffffffffff16815250508080600101915050612d3b565b50809250505090565b6000600780549050905090565b6000600660003373ffffffffffffffffffffffffffffffffffffffff1673ffffffffffffffffffffffffffffffffffffffff16815260200190815260200160002060009054906101000a900460ff161515612ead576040517f08c379a000000000000000000000000000000000000000000000000000000000815260040180806020018281038252601f8152602001807f50726f76696465642075736572206973206e6f742073746f72654f776e65720081525060200191505060405180910390fd5b6000338342604051602001808473ffffffffffffffffffffffffffffffffffffffff1673ffffffffffffffffffffffffffffffffffffffff166c010000000000000000000000000281526014018381526020018281526020019350505050604051602081830303815290604052805190602001209050612f2b613e11565b6080604051908101604052808381526020018581526020013373ffffffffffffffffffffffffffffffffffffffff168152602001600081525090506007829080600181540180825580915050906001820390600052602060002001600090919290919091505550600b60003373ffffffffffffffffffffffffffffffffffffffff1673ffffffffffffffffffffffffffffffffffffffff1681526020019081526020016000208290806001815401808255809150509060018203906000526020600020016000909192909190915055508060096000848152602001908152602001600020600082015181600001556020820151816001015560408201518160020160006101000a81548173ffffffffffffffffffffffffffffffffffffffff021916908373ffffffffffffffffffffffffffffffffffffffff160217905550606082015181600301559050507f390862c647918dfe2ef39adb33999bde3835bc7d39a92049a42a555e251118818285604051808381526020018281526020019250505060405180910390a18192505050919050565b600560003373ffffffffffffffffffffffffffffffffffffffff1673ffffffffffffffffffffffffffffffffffffffff16815260200190815260200160002060009054906101000a900460ff1615156131a7576040517f08c379a00000000000000000000000000000000000000000000000000000000081526004018080602001828103825260228152602001807f50726f76696465642075736572206973206e6f742061646d696e69737472617481526020017f6f7200000000000000000000000000000000000000000000000000000000000081525060400191505060405180910390fd5b6001600660008373ffffffffffffffffffffffffffffffffffffffff1673ffffffffffffffffffffffffffffffffffffffff16815260200190815260200160002060006101000a81548160ff02191690831515021790555060048190806001815401808255809150509060018203906000526020600020016000909192909190916101000a81548173ffffffffffffffffffffffffffffffffffffffff021916908373ffffffffffffffffffffffffffffffffffffffff160217905550507f9b6906422b19475ec1131684c08d1c6dd03361fc4c734e83a6ecd44acf0fc59681604051808273ffffffffffffffffffffffffffffffffffffffff1673ffffffffffffffffffffffffffffffffffffffff16815260200191505060405180910390a150565b6000809054906101000a900473ffffffffffffffffffffffffffffffffffffffff168073ffffffffffffffffffffffffffffffffffffffff163373ffffffffffffffffffffffffffffffffffffffff16141515613390576040517f08c379a00000000000000000000000000000000000000000000000000000000081526004018080602001828103825260168152602001807f53656e646572206e6f7420617574686f72697a65642e0000000000000000000081525060200191505060405180910390fd5b816000806101000a81548173ffffffffffffffffffffffffffffffffffffffff021916908373ffffffffffffffffffffffffffffffffffffffff1602179055505050565b6000600660003373ffffffffffffffffffffffffffffffffffffffff1673ffffffffffffffffffffffffffffffffffffffff16815260200190815260200160002060009054906101000a900460ff161515613497576040517f08c379a000000000000000000000000000000000000000000000000000000000815260040180806020018281038252601f8152602001807f50726f76696465642075736572206973206e6f742073746f72654f776e65720081525060200191505060405180910390fd5b6000600a600085815260200190815260200160002060030154905082600a6000868152602001908152602001600020600301819055507f7208c1a49a76f379f2037957b1dd8b25a952573d95088c3c25c5245a8756841684848360405180848152602001838152602001828152602001935050505060405180910390a18391505092915050565b60015481565b60038181548110151561353357fe5b906000526020600020016000915054906101000a900473ffffffffffffffffffffffffffffffffffffffff1681565b600560003373ffffffffffffffffffffffffffffffffffffffff1673ffffffffffffffffffffffffffffffffffffffff16815260200190815260200160002060009054906101000a900460ff161515613649576040517f08c379a00000000000000000000000000000000000000000000000000000000081526004018080602001828103825260228152602001807f50726f76696465642075736572206973206e6f742061646d696e69737472617481526020017f6f7200000000000000000000000000000000000000000000000000000000000081525060400191505060405180910390fd5b6000600660008373ffffffffffffffffffffffffffffffffffffffff1673ffffffffffffffffffffffffffffffffffffffff16815260200190815260200160002060006101000a81548160ff0219169083151502179055506000600480549050905060008090505b81811015613821578273ffffffffffffffffffffffffffffffffffffffff166004828154811015156136df57fe5b9060005260206000200160009054906101000a900473ffffffffffffffffffffffffffffffffffffffff1673ffffffffffffffffffffffffffffffffffffffff1614156138145760046001830381548110151561373857fe5b9060005260206000200160009054906101000a900473ffffffffffffffffffffffffffffffffffffffff1660048281548110151561377257fe5b9060005260206000200160006101000a81548173ffffffffffffffffffffffffffffffffffffffff021916908373ffffffffffffffffffffffffffffffffffffffff1602179055506004600183038154811015156137cc57fe5b9060005260206000200160006101000a81549073ffffffffffffffffffffffffffffffffffffffff0219169055600480548091906001900361380e9190613de5565b50613821565b80806001019150506136b1565b507f8ab0f29f24d118975d6c3ca64cb8189d89957d9af42b5ded53f95044e18f8dd582604051808273ffffffffffffffffffffffffffffffffffffffff1673ffffffffffffffffffffffffffffffffffffffff16815260200191505060405180910390a15050565b6060806060600060078054905090506060816040519080825280602002602001820160405280156138c95781602001602082028038833980820191505090505b5090506060826040519080825280602002602001820160405280156138fd5781602001602082028038833980820191505090505b5090506060836040519080825280602002602001820160405280156139315781602001602082028038833980820191505090505b50905060008090505b84811015613a81576009600060078381548110151561395557fe5b9060005260206000200154815260200190815260200160002060000154848281518110151561398057fe5b9060200190602002018181525050600960006007838154811015156139a157fe5b906000526020600020015481526020019081526020016000206001015483828151811015156139cc57fe5b9060200190602002018181525050600960006007838154811015156139ed57fe5b9060005260206000200154815260200190815260200160002060020160009054906101000a900473ffffffffffffffffffffffffffffffffffffffff168282815181101515613a3857fe5b9060200190602002019073ffffffffffffffffffffffffffffffffffffffff16908173ffffffffffffffffffffffffffffffffffffffff1681525050808060010191505061393a565b5082828296509650965050505050909192565b600260009054906101000a900460ff161515613aaf57600080fd5b600060096000848152602001908152602001600020600301819055503373ffffffffffffffffffffffffffffffffffffffff166108fc829081150290604051600060405180830381858888f19350505050158015613b11573d6000803e3d6000fd5b507fe6cd5859b124086f68dde97d225a95283c47da748f015aa7bcafe988f843334e8282604051808381526020018281526020019250505060405180910390a15050565b6000828211151515613bf5576040517f08c379a00000000000000000000000000000000000000000000000000000000081526004018080602001828103825260358152602001807f4e6f206974656d73206c65667420696e206172726179202d206e6f206974656d81526020017f73206265696e6720736f6c6420696e2073746f7265000000000000000000000081525060400191505060405180910390fd5b600082840390508091505092915050565b613c26600a60008481526020019081526020016000206003015482613b55565b600a6000848152602001908152602001600020600301819055507f40e984977bf7e57ce47a333700964890fc7b33f1de85982418a32877297ac8ad83838360405180848152602001838152602001828152602001935050505060405180910390a1505050565b6000808284019050838110151515613d58576040517f08c379a00000000000000000000000000000000000000000000000000000000081526004018080602001828103825260538152602001807f617661696c61626c652073746f726549442773202f20736b752773206f76657281526020017f666c6f776e2e20436f6e73696465722072657573696e6720766f6964206f722081526020017f616c7068616e756d657269632076616c7565730000000000000000000000000081525060600191505060405180910390fd5b8091505092915050565b60a06040519081016040528060008019168152602001600080191681526020016000815260200160008152602001600081525090565b5080546000825590600052602060002090810190613db69190613e56565b50565b815481835581811115613de057818360005260206000209182019101613ddf9190613e56565b5b505050565b815481835581811115613e0c57818360005260206000209182019101613e0b9190613e7b565b5b505050565b6080604051908101604052806000801916815260200160008019168152602001600073ffffffffffffffffffffffffffffffffffffffff168152602001600081525090565b613e7891905b80821115613e74576000816000905550600101613e5c565b5090565b90565b613e9d91905b80821115613e99576000816000905550600101613e81565b5090565b9056fea165627a7a723058207c7e6f47e405bb186e16adbd7241897ff349e9bab5f3efcb27d8e05b5651b16e0029",
  "source": "pragma solidity ^0.5.0;\n\nimport \"./AccessRestriction.sol\";\nimport \"./SafeMath.sol\";\n/* @title OnlineMarketPlace\n* @author Naresh Saladi\n* @notice Final Project - Consensys Training\n*/\ncontract OnlineMarketPlace is AccessRestriction {\n\n    //state variable to maintain data in blockchain\n\n    // data for administrators and storeowners\n    bool public stopped = false;\n     address[] public administrators;\n     address[] public storeOwners;\n     mapping(address => bool) public adminAddressMap;  \n     mapping(address => bool) public storeOwnerAddressMap;  \n\n    //data for store\n      struct Store  {\n        bytes32 storeId;\n        bytes32 name;\n        address owner;\n        uint storeSales;\n    }\n    //data for product\n     struct Product{\n        bytes32 productId;\n        bytes32 name;\n        uint unitPrice;\n        uint totalQuantity;\n        uint productSales;\n    }\n    \n    bytes32[] storeIds;\n    //data for storeId key and list of productIds array as values\n    mapping(bytes32 => bytes32[]) public productsByStore;\n    // data for storeId key and stores\n    mapping(bytes32 => Store) public stores;\n    //data for productId key and products\n    mapping(bytes32 => Product) products;\n    //data for list of storeIds by owner\n    mapping (address => bytes32[]) public storesByOwner;\n\n    //data to maintain counts\n    uint storeCounterer;\n    uint adminCount;\n    uint storeOwnerCount;\n    \n     //Events\n     event LogAdminAdded(address _owner);\n     event LogAdminDeleted(address _owner);\n      event LogStoreOwnerAdded(address _owner);\n     event LogStoreOwnerDeleted(address _owner);\n     \n     event LogAddStore(bytes32 _storeId,bytes32 _name);\n     event LogDeleteStore(bytes32 _storeId);\n   \n     event LogProductAdded(bytes32 _storeId,bytes32 _productId,bytes32 _name,uint _unitPrice,uint _totalQuantity);\n     event LogProductRemoved(bytes32 _storeId,bytes32 _productId);\n     event LogUpdatePrice(bytes32 _productId,uint _unitPrice,uint _oldUnitPrice);\n     \n     event LogWithdrawFunds(bytes32 _storeId,uint _funds);\n     \n     event LogProductBought(bytes32 _storeId,bytes32 _productId,uint _quantity);\n     event LogInventoryAdjustment(bytes32 _storeId,bytes32 _productId,uint _quantity);\n     event LogProductQtyUpdated(bytes32 _productId,uint _newQuantity,uint oldQty);\n\n    //contract instantiation - send contract owner as admin\n     constructor() public{\n        adminAddressMap[msg.sender] = true;\n        administrators.push(msg.sender);\n       \n    }\n     /* @dev modifier checks owner is contract owner\n    * @param _owner address of next administrator\n    */\n    modifier restrictContractOwner() \n    {\n       \n        require(owner == msg.sender,\"Provided user is not contract owner\");\n        _;\n    }\n    /* @dev adds given ethereum address as administrator\n    * @param _owner address of next administrator\n    */\n     function addAdmin(address _owner) public restrictContractOwner()\n    {\n        adminAddressMap[_owner]=true;\n        administrators.push(_owner);\n        emit LogAdminAdded(_owner);\n         \n    }\n    /* @dev removes given ethereum address as administrator\n    * @param _owner address of next administrator\n    */\n     function deleteAdmin(address _owner) public restrictContractOwner()\n    {\n        adminAddressMap[_owner]=false;\n        uint _adminCount = administrators.length;\n        for(uint i = 0; i < _adminCount; i++) {\n            if (administrators[i] == _owner) {\n                administrators[i] = administrators[_adminCount-1];\n                delete administrators[_adminCount-1];\n                administrators.length --;\n                break;\n            }\n        }\n        emit LogAdminDeleted(_owner);\n      \n    }\n    /* @dev modifier checks owner is contract owner\n    * @param _owner address of next administrator\n    */\n    modifier restrictAdmin() \n    {\n        require(adminAddressMap[msg.sender],\"Provided user is not administrator\");\n        _;\n    }\n        /** @dev Get a list of all the administrators.\n    * @return admins The array of all the administrators address.\n    */  \n    function getAdministrators()\n    public\n    view\n    returns(address[] memory) {\n        uint _adminCount = administrators.length;\n        address[] memory admins = new address[](_adminCount);\n        for (uint i = 0; i < _adminCount; i++) {\n            admins[i] = administrators[i];\n        }\n        return admins;\n    }\n     /* @dev adds given ethereum address as storeowner\n    * @param _owner address of storeowner\n    */\n     function addStoreOwner(address _owner) public restrictAdmin()\n    {\n        storeOwnerAddressMap[_owner]=true;\n        storeOwners.push(_owner);\n        emit LogStoreOwnerAdded(_owner);\n        \n    }\n    /* @dev removes given ethereum address as storeOwner\n    * @param _owner address of store owner\n    */\n     function deleteStoreOwner(address _owner) public restrictAdmin()\n    {\n         storeOwnerAddressMap[_owner]=false;\n         uint ownerCount = storeOwners.length;\n        for(uint i = 0; i < ownerCount; i++) {\n            if (storeOwners[i] == _owner) {\n                storeOwners[i] = storeOwners[ownerCount-1];\n                delete storeOwners[ownerCount-1];\n                storeOwners.length --;\n                break;\n            }\n        }\n        emit LogStoreOwnerDeleted(_owner); \n    }\n    /* @dev modifier checks owner is storeowner\n    */\n    modifier restrictStoreOwner() \n    {\n        require(storeOwnerAddressMap[msg.sender],\"Provided user is not storeOwner\");\n        _;\n    }\n\n     /** @dev Get a list of all the store owners.\n    * @return owners The array of all the store owners address.\n    */\n    function getStoreOwners()\n    public\n    view\n    returns(address[] memory) {\n        uint _storeOwnerCount = storeOwners.length;\n        address[] memory owners = new address[](_storeOwnerCount);\n        for (uint i = 0; i < _storeOwnerCount; i++) {\n            owners[i] = storeOwners[i];\n        }\n        return owners;\n        \n    }\n\n    modifier stopInEmergency { require(!stopped); _; }\n    modifier onlyInEmergency { require(stopped); _; }\n\n    \n    /* @dev create a new storefront that will be displayed on the marketplace\n     * @param name store name \n     * @returns storeId id of store\n    */\n    \n    function addStore(bytes32 _name) public restrictStoreOwner() returns (bytes32)\n    {\n        bytes32 _storeId = keccak256(abi.encodePacked(msg.sender, _name, now));\n        Store memory _store =Store(_storeId,_name,msg.sender,0);\n        storeIds.push(_storeId);\n        storesByOwner[msg.sender].push(_storeId);\n        stores[_storeId] = _store;\n        emit LogAddStore(_storeId,_name);\n        return _storeId;  \n    }\n    /* @dev delete a store that will be removed from the marketplace\n    * @param _storeId identifier of a store\n    */\n     function deleteStore(bytes32 _storeId) public restrictStoreOwner() returns (bytes32)\n    {\n        \n         // Delete all the items from the store inventory.\n        for (uint i = 0; i < productsByStore[_storeId].length; i++) {\n            bytes32 productId = productsByStore[_storeId][i];\n            delete products[productId];\n        }\n\n        // Delete the store inventory.\n        delete productsByStore[_storeId];\n\n        // Remove from storefrontsByOwner mapping.\n        uint storeCount = storesByOwner[msg.sender].length;\n        for(uint i = 0; i < storeCount; i++) {\n            if (storesByOwner[msg.sender][i] == _storeId) {\n                storesByOwner[msg.sender][i] = storesByOwner[msg.sender][storeCount-1];\n                delete storesByOwner[msg.sender][storeCount-1];\n                storesByOwner[msg.sender].length --;\n                break;\n            }\n        }\n\n        // Remove from storeIds array.\n        storeCount = storeIds.length;\n        for(uint i = 0; i < storeCount; i++) {\n            if (storeIds[i] == _storeId) {\n                storeIds[i] = storeIds[storeCount - 1];\n                delete storeIds[storeCount - 1];\n                storeIds.length --;\n                break;\n            }\n        }\n\n        // Withdraw Balance if needed.\n        uint storeBalance = stores[_storeId].storeSales;\n        if (storeBalance > 0) {\n            //stores[_storeId].storeBalance = 0;\n            msg.sender.transfer(storeBalance);\n            emit LogWithdrawFunds(_storeId, storeBalance);\n        }\n        \n        delete stores[_storeId]; \n        emit LogDeleteStore(_storeId);\n        return _storeId;\n       \n    }\n \n function findStoresByOwner(address storeOwner)\n    public\n    view\n    returns(bytes32[]  memory ,bytes32[] memory, uint[] memory) {\n        uint storeCount = storesByOwner[storeOwner].length;\n        bytes32[] memory _storeIds = new bytes32[](storeCount);\n        bytes32[] memory names = new bytes32[](storeCount);\n        uint[] memory storeSales = new uint[](storeCount);\n       \n        for(uint i = 0; i < storeCount; i++) {\n            bytes32 storeId = storesByOwner[storeOwner][i];\n            _storeIds[i] = stores[storeId].storeId;\n            names[i] = stores[storeId].name;\n            storeSales[i] = stores[storeId].storeSales;\n        }\n        return (_storeIds, names, storeSales);\n    }\n\n    /* @dev withdraw any funds that the store has collected from sales\n    * @param _storeId identifier of a store\n      * @param _funds  funds need to be withdraw from store balance\n    */\n    function withdrawFunds(bytes32 _storeId,uint _funds) public payable onlyInEmergency() //checkAvailFunds(_storeId,_funds)\n    {\n        stores[_storeId].storeSales = 0;\n        msg.sender.transfer(_funds);\n        emit LogWithdrawFunds(_storeId,_funds);\n    \n    }\n\n    /** @dev Get all the created Storefronts.\n    * @return (ids, names, owners) The Id, name and owner for each Storefront.\n    */\n    function findStores()\n    public\n    view\n    returns(bytes32[] memory, bytes32[] memory, address[] memory) {\n        uint storeCount = storeIds.length;\n        bytes32[] memory _storeIds = new bytes32[](storeCount);\n        bytes32[] memory names = new bytes32[](storeCount);\n        address[] memory owners = new address[](storeCount);\n        for(uint i = 0; i < storeCount; i ++) {\n            _storeIds[i] = stores[storeIds[i]].storeId;\n            names[i] = stores[storeIds[i]].name;\n            owners[i] = stores[storeIds[i]].owner;\n        }\n        return(_storeIds, names, owners);\n    }\n    /* @dev add a product to a specific store \n    * @param _storeId identifier of a store\n      * @param _name name of product\n       * @param _unitPrice price of product\n        * @param _totalQuantity total inventory of product available\n         \n    */\n    function addProduct(bytes32 _storeId,bytes32 _name,uint _unitPrice,uint _totalQuantity) public restrictStoreOwner() returns (bytes32)\n    {\n        \n        bytes32 _productId = keccak256(abi.encodePacked(msg.sender, _name, now));\n        Product memory product = Product(_productId,_name,_unitPrice,_totalQuantity,0);\n        products[_productId] = product;\n        productsByStore[_storeId].push(_productId);\n        emit LogProductAdded(_storeId,_productId,_name,_unitPrice,_totalQuantity);\n        return  _productId;\n    }\n      /* @dev remove a product from  a specific store \n    * @param _storeId identifier of a store\n      * @param _productId identifier of a product\n    \n    */\n    function removeProduct(bytes32 _storeId,bytes32 _productId) public restrictStoreOwner() \n    {\n          // Remove the item from inventory mapping\n        uint productCount = productsByStore[_storeId].length;\n        for(uint i = 0; i < productCount; i++) {\n            if (productsByStore[_storeId][i] == _productId) {\n                productsByStore[_storeId][i] = productsByStore[_storeId][productCount-1];\n                delete productsByStore[_storeId][productCount-1];\n                productsByStore[_storeId].length --;\n                break;\n            }\n        }\n        //Remove item from items mapping\n        delete products[_productId];\n        emit LogProductRemoved(_storeId,_productId);\n    }\n    \n       /* @dev change any of the products prices.\n    * @param _storeId identifier of a store\n      * @param _productId identifier of a product\n    * @param _newUnitPrice new unit price of a product\n    */\n    function updatePrice(bytes32 _productId,uint _newUnitPrice) public restrictStoreOwner() \n    returns (bytes32)\n    {\n        uint oldPrice = products[_productId].unitPrice;\n        products[_productId].unitPrice = _newUnitPrice;\n        emit LogUpdatePrice(_productId,_newUnitPrice,oldPrice);\n        return _productId;\n    }\n  \n /** @dev Updates the quantity of an Item from a specicic Storefront.\n    * @param _productId The item ID we want to update.\n    * @param _newQuantity The new quantity value we want to set the Item to.\n    * @return _productId The updated item ID.\n    */\n    function updateItemQuantity(bytes32 _productId, uint _newQuantity)\n    public\n    restrictStoreOwner()\n    returns(bytes32) {\n        uint oldQty = products[_productId].totalQuantity;\n        products[_productId].totalQuantity = _newQuantity;\n        emit LogProductQtyUpdated(_productId, _newQuantity, oldQty);\n        return _productId;\n    }   \n    /* @dev check availability funds\n    * @param _storeId identifier of a store\n      * @param _funds  funds need to be withdraw from store balance\n    */\n    modifier checkAvailFunds(bytes32 _storeId,uint _funds) {\n        require(stores[_storeId].storeSales>=_funds,\"Funds plan to withdraw is more than Store Balance\");\n        _;\n    }\n\n\n       /* @dev check whether buyer has enough funds \n    * @param _storeId identifier of a store\n      * @param _productId identifier of a product\n    * @param quantity product quantity\n    */\n    modifier buyerEnoughFunds(bytes32 storeId,bytes32 productId,uint quantity) \n    { \n        \n        uint totalCost = products[productId].unitPrice * (quantity);\n        require(msg.sender.balance >= totalCost,\"Buyer doesn't have enought balance\"); \n        _;\n    }\n      /* @dev check product inventory .\n    * @param _storeId identifier of a store\n      * @param _productId identifier of a product\n    * @param quantity product quantity\n    */\n    modifier checkStock(bytes32 storeId,bytes32 productId,uint quantity)\n    {\n        require (products[productId].totalQuantity>=quantity,\"Out-of-Stock\"); \n        _;\n    }\n\n   /* @dev buy product .\n    * @param _storeId identifier of a store\n      * @param _productId identifier of a product\n    * @param quantity product quantity\n    */\n    function purchaseProduct(bytes32 _storeId,bytes32 _productId,uint _quantity) public\n    checkStock(_storeId,_productId,_quantity) buyerEnoughFunds(_storeId,_productId,_quantity) stopInEmergency()\n     payable returns (bool)\n    {\n        \n        uint totalPrice = products[_productId].unitPrice * _quantity;\n        if (msg.value > totalPrice) {\n            msg.sender.transfer(SafeMath.sub(msg.value,totalPrice));\n        }\n        adjustInventory(_storeId,_productId,_quantity);\n        products[_productId].productSales =SafeMath.add(products[_productId].productSales,totalPrice);\n        stores[_storeId].storeSales = SafeMath.add(stores[_storeId].storeSales,totalPrice);\n        emit LogProductBought(_storeId,_productId,_quantity);\n        return true;\n    }\n    /* @dev inventory will be reduced .\n    * @param _storeId identifier of a store\n      * @param _productId identifier of a product\n    * @param quantity product quantity\n    */\n    function adjustInventory(bytes32 _storeId,bytes32 _productId,uint _quantity) private\n    {\n        products[_productId].totalQuantity = SafeMath.sub(products[_productId].totalQuantity,_quantity);\n        emit LogInventoryAdjustment(_storeId,_productId,_quantity);\n\n    }\n    /** @dev Get the inventory for a specific store.\n    * @param _storeId The storefront ID.\n    * @return (itemIds, itemNames, itemQuantities, itemPrices) The Id, name, quantity and price for each Item.\n    */\n    function productCatalog(bytes32 _storeId)\n    public\n    view\n    returns(bytes32[] memory, bytes32[] memory, uint[] memory, uint[] memory)\n    {\n        bytes32[] memory productIdArray = productsByStore[_storeId];\n        uint productIdSize = productIdArray.length;\n        bytes32[] memory productIds = new bytes32[](productIdSize);\n        bytes32[] memory productNames = new bytes32[](productIdSize);\n        uint[] memory totalQuantity = new uint[](productIdSize);\n        uint[] memory unitPrice = new uint[](productIdSize);\n        for(uint i = 0; i < productIdSize; i++) {\n            productIds[i] = products[productIdArray[i]].productId;\n            productNames[i] = products[productIdArray[i]].name;\n            totalQuantity[i] = products[productIdArray[i]].totalQuantity;\n            unitPrice[i] = products[productIdArray[i]].unitPrice;\n        }\n        return (productIds, productNames, totalQuantity, unitPrice);\n        \n    }\n    function getStoreCount() external view returns(uint)\n    {\n        return storeIds.length;\n    }\n    function getProductCount(bytes32 _storeId) external view returns(uint)\n    {\n        return productsByStore[_storeId].length;\n    }\n    function getProductPrice(bytes32 _productId)  public view returns (uint)\n{\n    return products[_productId].unitPrice;\n} \n \n    \n}",
  "sourcePath": "/Users/naresh_saladi/review/final-project-naresh071872/contracts/OnlineMarketPlace.sol",
  "compiler": {
    "name": "solc",
    "version": "0.5.0+commit.1d4f565a.Emscripten.clang"
  },
  "schemaVersion": "3.0.1",
  "updatedAt": "2019-01-29T07:06:02.318Z",
  "devdoc": {
    "methods": {
      "findStores()": {
        "details": "Get all the created Storefronts.",
        "return": "(ids, names, owners) The Id, name and owner for each Storefront."
      },
      "getAdministrators()": {
        "details": "Get a list of all the administrators.",
        "return": "admins The array of all the administrators address."
      },
      "getStoreOwners()": {
        "details": "Get a list of all the store owners.",
        "return": "owners The array of all the store owners address."
      },
      "productCatalog(bytes32)": {
        "details": "Get the inventory for a specific store.",
        "params": {
          "_storeId": "The storefront ID."
        },
        "return": "(itemIds, itemNames, itemQuantities, itemPrices) The Id, name, quantity and price for each Item."
      },
      "updateItemQuantity(bytes32,uint256)": {
        "details": "Updates the quantity of an Item from a specicic Storefront.",
        "params": {
          "_newQuantity": "The new quantity value we want to set the Item to.",
          "_productId": "The item ID we want to update."
        },
        "return": "_productId The updated item ID."
      }
    }
  },
  "userdoc": {
    "methods": {
      "changeOwner(address)": {
        "notice": "Make `_newOwner` the new owner of this contract."
      },
      "disown()": {
        "notice": "Erase ownership information. May only be called 6 weeks after the contract has been created."
      }
    }
  }
}