{
  "contractName": "ShopperContract",
  "abi": [
    {
      "constant": true,
      "inputs": [
        {
          "name": "",
          "type": "address"
        }
      ],
      "name": "storeOwners",
      "outputs": [
        {
          "name": "name",
          "type": "string"
        },
        {
          "name": "storeCount",
          "type": "uint256"
        },
        {
          "name": "ownerAddress",
          "type": "address"
        }
      ],
      "payable": false,
      "stateMutability": "view",
      "type": "function"
    },
    {
      "constant": true,
      "inputs": [
        {
          "name": "",
          "type": "uint256"
        }
      ],
      "name": "stores",
      "outputs": [
        {
          "name": "name",
          "type": "string"
        },
        {
          "name": "storeOwnerAddress",
          "type": "address"
        }
      ],
      "payable": false,
      "stateMutability": "view",
      "type": "function"
    },
    {
      "inputs": [],
      "payable": false,
      "stateMutability": "nonpayable",
      "type": "constructor"
    },
    {
      "constant": false,
      "inputs": [
        {
          "name": "storeId",
          "type": "uint256"
        },
        {
          "name": "productId",
          "type": "uint256"
        },
        {
          "name": "quantity",
          "type": "uint256"
        }
      ],
      "name": "purchaseProduct",
      "outputs": [],
      "payable": true,
      "stateMutability": "payable",
      "type": "function"
    }
  ],
  "bytecode": "0x608060405234801561001057600080fd5b506106bf806100206000396000f3fe608060405260043610610057576000357c0100000000000000000000000000000000000000000000000000000000900463ffffffff16806302703acf1461005c578063057cc2a11461009e578063e8a59cd8146101a2575b600080fd5b61009c6004803603606081101561007257600080fd5b81019080803590602001909291908035906020019092919080359060200190929190505050610289565b005b3480156100aa57600080fd5b506100ed600480360360208110156100c157600080fd5b81019080803573ffffffffffffffffffffffffffffffffffffffff169060200190929190505050610477565b60405180806020018481526020018373ffffffffffffffffffffffffffffffffffffffff1673ffffffffffffffffffffffffffffffffffffffff168152602001828103825285818151815260200191508051906020019080838360005b8381101561016557808201518184015260208101905061014a565b50505050905090810190601f1680156101925780820380516001836020036101000a031916815260200191505b5094505050505060405180910390f35b3480156101ae57600080fd5b506101db600480360360208110156101c557600080fd5b8101908080359060200190929190505050610559565b60405180806020018373ffffffffffffffffffffffffffffffffffffffff1673ffffffffffffffffffffffffffffffffffffffff168152602001828103825284818151815260200191508051906020019080838360005b8381101561024d578082015181840152602081019050610232565b50505050905090810190601f16801561027a5780820380516001836020036101000a031916815260200191505b50935050505060405180910390f35b828282806000808581526020019081526020016000206001016000848152602001908152602001600020600201541015151561032d576040517f08c379a000000000000000000000000000000000000000000000000000000000815260040180806020018281038252600c8152602001807f4f75742d6f662d53746f636b000000000000000000000000000000000000000081525060200191505060405180910390fd5b8585856000816000808681526020019081526020016000206001016000858152602001908152602001600020600101540290508034101515156103b3576040517f08c379a0000000000000000000000000000000000000000000000000000000008152600401808060200182810382526000815260200160200191505060405180910390fd5b6000886000808d815260200190815260200160002060010160008c8152602001908152602001600020600101540290506000808c815260200190815260200160002060020160009054906101000a900473ffffffffffffffffffffffffffffffffffffffff1673ffffffffffffffffffffffffffffffffffffffff166108fc829081150290604051600060405180830381858888f1935050505015801561045e573d6000803e3d6000fd5b5061046a8b8b8b610635565b5050505050505050505050565b6001602052806000526040600020600091509050806000018054600181600116156101000203166002900480601f0160208091040260200160405190810160405280929190818152602001828054600181600116156101000203166002900480156105235780601f106104f857610100808354040283529160200191610523565b820191906000526020600020905b81548152906001019060200180831161050657829003601f168201915b5050505050908060010154908060020160009054906101000a900473ffffffffffffffffffffffffffffffffffffffff16905083565b6000602052806000526040600020600091509050806000018054600181600116156101000203166002900480601f0160208091040260200160405190810160405280929190818152602001828054600181600116156101000203166002900480156106055780601f106105da57610100808354040283529160200191610605565b820191906000526020600020905b8154815290600101906020018083116105e857829003601f168201915b5050505050908060020160009054906101000a900473ffffffffffffffffffffffffffffffffffffffff16905082565b806000808581526020019081526020016000206001016000848152602001908152602001600020600201540360008085815260200190815260200160002060010160008481526020019081526020016000206002018190555050505056fea165627a7a72305820bf9abeb1fdca696924b32fefe294be27cd4c9639f447085438e1f08bad8acf3d0029",
  "source": "pragma solidity ^0.5.0;\n\nimport \"./DataStoreContract.sol\";\n/** \nA shopper logs into the app. \nThe web app does not recognize their address so they are shown the generic shopper application. \n*/\n\ncontract ShopperContract is DataStoreContract{\n  \n\n    constructor() public\n    {\n\n    }\n    /**\n//From the main page they can browse all of the storefronts that have been created in the marketplace. \n    function browseStores() public returns ( mapping(uint => EStore) memory) \n    {\n        return stores;\n    }\n/**     Clicking on a storefront will take them to a product page. \nThey can see a list of products offered by the store, including their price and quantity. \n\n    function browseProducts(uint storeId) public returns ( mapping(uint => Product) memory)\n    {\n        return stores[storeId].products;\n    }*/\n    \n    modifier paidEnough(uint storeId,uint productId,uint quantity) \n    { \n        uint totalCost = stores[storeId].products[productId].unitPrice * quantity;\n        require(msg.value >= totalCost,\"\"); \n        _;\n    }\n    modifier checkStock(uint storeId,uint productId,uint quantity)\n    {\n        require (stores[storeId].products[productId].totalQuantity>=quantity,\"Out-of-Stock\"); \n        _;\n    }\n/**Shoppers can purchase a product, which will debit their account and send it to the store. \nThe quantity of the item in the store’s inventory will be reduced by the appropriate amount.*/\n    function purchaseProduct(uint storeId,uint productId,uint quantity) public\n    checkStock(storeId,productId,quantity) paidEnough(storeId,productId,quantity)\n     payable\n    {\n        \n        uint totalPrice = stores[storeId].products[productId].unitPrice * quantity;\n        stores[storeId].storeOwnerAddress.transfer(totalPrice);\n        adjustInventory(storeId,productId,quantity);\n    }\n    \n    function adjustInventory(uint storeId,uint productId,uint quantity) private\n    {\n        stores[storeId].products[productId].totalQuantity = stores[storeId].products[productId].totalQuantity - quantity;\n\n    }\n}",
  "sourcePath": "/Users/naresh_saladi/final-project-naresh071872/contracts/ShopperContract.sol",
  "compiler": {
    "name": "solc",
    "version": "0.5.0+commit.1d4f565a.Emscripten.clang"
  },
  "schemaVersion": "3.0.1",
  "updatedAt": "2019-01-26T04:26:35.992Z",
  "devdoc": {
    "methods": {}
  },
  "userdoc": {
    "methods": {
      "purchaseProduct(uint256,uint256,uint256)": {
        "notice": "Shoppers can purchase a product, which will debit their account and send it to the store.  The quantity of the item in the store’s inventory will be reduced by the appropriate amount."
      }
    },
    "notice": "A shopper logs into the app.  The web app does not recognize their address so they are shown the generic shopper application. "
  }
}