{
  "contractName": "StoreOwnerContract",
  "abi": [
    {
      "constant": true,
      "inputs": [
        {
          "name": "",
          "type": "address"
        }
      ],
      "name": "storeOwners",
      "outputs": [
        {
          "name": "name",
          "type": "string"
        },
        {
          "name": "storeCount",
          "type": "uint256"
        },
        {
          "name": "ownerAddress",
          "type": "address"
        }
      ],
      "payable": false,
      "stateMutability": "view",
      "type": "function"
    },
    {
      "constant": true,
      "inputs": [
        {
          "name": "",
          "type": "uint256"
        }
      ],
      "name": "stores",
      "outputs": [
        {
          "name": "name",
          "type": "string"
        },
        {
          "name": "storeOwnerAddress",
          "type": "address"
        }
      ],
      "payable": false,
      "stateMutability": "view",
      "type": "function"
    },
    {
      "inputs": [],
      "payable": false,
      "stateMutability": "nonpayable",
      "type": "constructor"
    },
    {
      "constant": true,
      "inputs": [],
      "name": "approveOwner",
      "outputs": [
        {
          "name": "",
          "type": "bool"
        }
      ],
      "payable": false,
      "stateMutability": "view",
      "type": "function"
    },
    {
      "constant": false,
      "inputs": [
        {
          "name": "storeId",
          "type": "uint256"
        },
        {
          "name": "name",
          "type": "string"
        }
      ],
      "name": "addStore",
      "outputs": [],
      "payable": false,
      "stateMutability": "nonpayable",
      "type": "function"
    },
    {
      "constant": false,
      "inputs": [
        {
          "name": "storeId",
          "type": "uint256"
        },
        {
          "name": "productId",
          "type": "uint256"
        },
        {
          "name": "name",
          "type": "string"
        },
        {
          "name": "unitPrice",
          "type": "uint256"
        },
        {
          "name": "totalQuantity",
          "type": "uint256"
        }
      ],
      "name": "addProduct",
      "outputs": [],
      "payable": false,
      "stateMutability": "nonpayable",
      "type": "function"
    },
    {
      "constant": false,
      "inputs": [
        {
          "name": "storeId",
          "type": "uint256"
        },
        {
          "name": "productId",
          "type": "uint256"
        }
      ],
      "name": "removeProduct",
      "outputs": [],
      "payable": false,
      "stateMutability": "nonpayable",
      "type": "function"
    },
    {
      "constant": false,
      "inputs": [
        {
          "name": "storeId",
          "type": "uint256"
        },
        {
          "name": "productId",
          "type": "uint256"
        },
        {
          "name": "unitPrice",
          "type": "uint256"
        }
      ],
      "name": "changePrice",
      "outputs": [],
      "payable": false,
      "stateMutability": "nonpayable",
      "type": "function"
    },
    {
      "constant": false,
      "inputs": [
        {
          "name": "storeId",
          "type": "uint256"
        },
        {
          "name": "funds",
          "type": "uint256"
        }
      ],
      "name": "withdrawFunds",
      "outputs": [],
      "payable": true,
      "stateMutability": "payable",
      "type": "function"
    }
  ],
  "bytecode": "0x608060405234801561001057600080fd5b50610b4f806100206000396000f3fe60806040526004361061008e576000357c0100000000000000000000000000000000000000000000000000000000900463ffffffff168063057cc2a114610093578063295a5434146101975780633f55e7491461028757806340e2b4b8146103595780635287d535146103a8578063e40ae8b2146103ed578063e52531051461041c578063e8a59cd814610454575b600080fd5b34801561009f57600080fd5b506100e2600480360360208110156100b657600080fd5b81019080803573ffffffffffffffffffffffffffffffffffffffff16906020019092919050505061053b565b60405180806020018481526020018373ffffffffffffffffffffffffffffffffffffffff1673ffffffffffffffffffffffffffffffffffffffff168152602001828103825285818151815260200191508051906020019080838360005b8381101561015a57808201518184015260208101905061013f565b50505050905090810190601f1680156101875780820380516001836020036101000a031916815260200191505b5094505050505060405180910390f35b3480156101a357600080fd5b50610285600480360360a08110156101ba57600080fd5b810190808035906020019092919080359060200190929190803590602001906401000000008111156101eb57600080fd5b8201836020820111156101fd57600080fd5b8035906020019184600183028401116401000000008311171561021f57600080fd5b91908080601f016020809104026020016040519081016040528093929190818152602001838380828437600081840152601f19601f820116905080830192505050505050509192919290803590602001909291908035906020019092919050505061061d565b005b34801561029357600080fd5b50610357600480360360408110156102aa57600080fd5b8101908080359060200190929190803590602001906401000000008111156102d157600080fd5b8201836020820111156102e357600080fd5b8035906020019184600183028401116401000000008311171561030557600080fd5b91908080601f016020809104026020016040519081016040528093929190818152602001838380828437600081840152601f19601f8201169050808301925050505050505091929192905050506106a6565b005b34801561036557600080fd5b506103a66004803603606081101561037c57600080fd5b810190808035906020019092919080359060200190929190803590602001909291905050506107a0565b005b3480156103b457600080fd5b506103eb600480360360408110156103cb57600080fd5b8101908080359060200190929190803590602001909291905050506107d3565b005b3480156103f957600080fd5b50610402610820565b604051808215151515815260200191505060405180910390f35b6104526004803603604081101561043257600080fd5b8101908080359060200190929190803590602001909291905050506108b8565b005b34801561046057600080fd5b5061048d6004803603602081101561047757600080fd5b8101908080359060200190929190505050610938565b60405180806020018373ffffffffffffffffffffffffffffffffffffffff1673ffffffffffffffffffffffffffffffffffffffff168152602001828103825284818151815260200191508051906020019080838360005b838110156104ff5780820151818401526020810190506104e4565b50505050905090810190601f16801561052c5780820380516001836020036101000a031916815260200191505b50935050505060405180910390f35b6001602052806000526040600020600091509050806000018054600181600116156101000203166002900480601f0160208091040260200160405190810160405280929190818152602001828054600181600116156101000203166002900480156105e75780601f106105bc576101008083540402835291602001916105e7565b820191906000526020600020905b8154815290600101906020018083116105ca57829003601f168201915b5050505050908060010154908060020160009054906101000a900473ffffffffffffffffffffffffffffffffffffffff16905083565b610625610a14565b6060604051908101604052808581526020018481526020018381525090508060008088815260200190815260200160002060010160008781526020019081526020016000206000820151816000019080519060200190610686929190610a36565b506020820151816001015560408201518160020155905050505050505050565b600160003373ffffffffffffffffffffffffffffffffffffffff1673ffffffffffffffffffffffffffffffffffffffff1681526020019081526020016000206001016000815480929190600101919050555060408051908101604052808281526020013373ffffffffffffffffffffffffffffffffffffffff168152506000808481526020019081526020016000206000820151816000019080519060200190610751929190610a36565b5060208201518160020160006101000a81548173ffffffffffffffffffffffffffffffffffffffff021916908373ffffffffffffffffffffffffffffffffffffffff1602179055509050505050565b80600080858152602001908152602001600020600101600084815260200190815260200160002060010181905550505050565b60008083815260200190815260200160002060010160008281526020019081526020016000206000808201600061080a9190610ab6565b6001820160009055600282016000905550505050565b60003373ffffffffffffffffffffffffffffffffffffffff16600160003373ffffffffffffffffffffffffffffffffffffffff1673ffffffffffffffffffffffffffffffffffffffff16815260200190815260200160002060020160009054906101000a900473ffffffffffffffffffffffffffffffffffffffff1673ffffffffffffffffffffffffffffffffffffffff1614905090565b60008083815260200190815260200160002060020160009054906101000a900473ffffffffffffffffffffffffffffffffffffffff1673ffffffffffffffffffffffffffffffffffffffff166108fc829081150290604051600060405180830381858888f19350505050158015610933573d6000803e3d6000fd5b505050565b6000602052806000526040600020600091509050806000018054600181600116156101000203166002900480601f0160208091040260200160405190810160405280929190818152602001828054600181600116156101000203166002900480156109e45780601f106109b9576101008083540402835291602001916109e4565b820191906000526020600020905b8154815290600101906020018083116109c757829003601f168201915b5050505050908060020160009054906101000a900473ffffffffffffffffffffffffffffffffffffffff16905082565b6060604051908101604052806060815260200160008152602001600081525090565b828054600181600116156101000203166002900490600052602060002090601f016020900481019282601f10610a7757805160ff1916838001178555610aa5565b82800160010185558215610aa5579182015b82811115610aa4578251825591602001919060010190610a89565b5b509050610ab29190610afe565b5090565b50805460018160011615610100020316600290046000825580601f10610adc5750610afb565b601f016020900490600052602060002090810190610afa9190610afe565b5b50565b610b2091905b80821115610b1c576000816000905550600101610b04565b5090565b9056fea165627a7a72305820c62654b320aebe56e252f13f5e65a9690541d43987161b64984bd20fbe44c8af0029",
  "source": "pragma solidity ^0.5.0;\nimport \"./DataStoreContract.sol\";\n\ncontract StoreOwnerContract is DataStoreContract\n{\n\n    constructor() public\n    {\n   \n    }\n    /**An approved store owner logs into the app. \n    The web app recognizes their address and identifies them as a store owner. \n    They are shown the store owner functions.*/\n\n    function approveOwner() public view returns (bool)\n    {\n        return storeOwners[msg.sender].ownerAddress == msg.sender;\n    }\n    //They can create a new storefront that will be displayed on the marketplace. \n    function addStore(uint storeId,string memory name) public\n    {\n        storeOwners[msg.sender].storeCount++;\n        stores[storeId] = EStore(name,msg.sender);\n       \n    }\n    \n    //They can click on a storefront to manage it.\n    //They can add/remove products to the storefront  \n    function addProduct(uint storeId,uint productId,string memory name,uint unitPrice,uint totalQuantity) public\n    {\n        Product memory product = Product(name,unitPrice,totalQuantity);\n        stores[storeId].products[productId] = product;\n    }\n    function removeProduct(uint storeId,uint productId) public\n    {\n        delete stores[storeId].products[productId];\n    }\n    //change any of the products’ prices.\n    function changePrice(uint storeId,uint productId,uint unitPrice) public\n    {\n        stores[storeId].products[productId].unitPrice = unitPrice;\n    }\n    //They can also withdraw any funds that the store has collected from sales.\n    function withdrawFunds(uint storeId,uint funds) public payable\n    {\n        stores[storeId].storeOwnerAddress.transfer(funds);\n    }\n}",
  "sourcePath": "/Users/naresh_saladi/final-project-naresh071872/contracts/StoreOwnerContract.sol",
  "compiler": {
    "name": "solc",
    "version": "0.5.0+commit.1d4f565a.Emscripten.clang"
  },
  "schemaVersion": "3.0.1",
  "updatedAt": "2019-01-26T04:26:35.987Z",
  "devdoc": {
    "methods": {}
  },
  "userdoc": {
    "methods": {
      "approveOwner()": {
        "notice": "An approved store owner logs into the app.  The web app recognizes their address and identifies them as a store owner.  They are shown the store owner functions."
      }
    }
  }
}